{"contracts/FanChainToken.sol":{"FanChainToken":{"abi":[{"inputs":[],"stateMutability":"nonpayable","type":"constructor"},{"anonymous":false,"inputs":[{"indexed":true,"internalType":"address","name":"owner","type":"address"},{"indexed":true,"internalType":"address","name":"spender","type":"address"},{"indexed":false,"internalType":"uint256","name":"value","type":"uint256"}],"name":"Approval","type":"event"},{"anonymous":false,"inputs":[{"indexed":true,"internalType":"address","name":"previousOwner","type":"address"},{"indexed":true,"internalType":"address","name":"newOwner","type":"address"}],"name":"OwnershipTransferred","type":"event"},{"anonymous":false,"inputs":[{"indexed":true,"internalType":"address","name":"to","type":"address"},{"indexed":false,"internalType":"uint256","name":"amount","type":"uint256"}],"name":"TokensMinted","type":"event"},{"anonymous":false,"inputs":[{"indexed":true,"internalType":"address","name":"from","type":"address"},{"indexed":true,"internalType":"address","name":"to","type":"address"},{"indexed":false,"internalType":"uint256","name":"value","type":"uint256"}],"name":"Transfer","type":"event"},{"anonymous":false,"inputs":[{"indexed":true,"internalType":"address","name":"account","type":"address"},{"indexed":false,"internalType":"uint256","name":"newLimit","type":"uint256"}],"name":"TransferLimitChanged","type":"event"},{"anonymous":false,"inputs":[{"indexed":true,"internalType":"address","name":"beneficiary","type":"address"},{"indexed":false,"internalType":"uint256","name":"amount","type":"uint256"}],"name":"VestingStarted","type":"event"},{"inputs":[],"name":"MAX_SUPPLY","outputs":[{"internalType":"uint256","name":"","type":"uint256"}],"stateMutability":"view","type":"function"},{"inputs":[],"name":"VESTING_DURATION","outputs":[{"internalType":"uint256","name":"","type":"uint256"}],"stateMutability":"view","type":"function"},{"inputs":[{"internalType":"address","name":"owner","type":"address"},{"internalType":"address","name":"spender","type":"address"}],"name":"allowance","outputs":[{"internalType":"uint256","name":"","type":"uint256"}],"stateMutability":"view","type":"function"},{"inputs":[{"internalType":"address","name":"spender","type":"address"},{"internalType":"uint256","name":"amount","type":"uint256"}],"name":"approve","outputs":[{"internalType":"bool","name":"","type":"bool"}],"stateMutability":"nonpayable","type":"function"},{"inputs":[{"internalType":"address","name":"account","type":"address"}],"name":"balanceOf","outputs":[{"internalType":"uint256","name":"","type":"uint256"}],"stateMutability":"view","type":"function"},{"inputs":[{"internalType":"uint256","name":"amount","type":"uint256"}],"name":"burn","outputs":[],"stateMutability":"nonpayable","type":"function"},{"inputs":[{"internalType":"address","name":"from","type":"address"},{"internalType":"uint256","name":"amount","type":"uint256"}],"name":"burnFrom","outputs":[],"stateMutability":"nonpayable","type":"function"},{"inputs":[],"name":"claimVested","outputs":[],"stateMutability":"nonpayable","type":"function"},{"inputs":[],"name":"decimals","outputs":[{"internalType":"uint8","name":"","type":"uint8"}],"stateMutability":"view","type":"function"},{"inputs":[{"internalType":"address","name":"spender","type":"address"},{"internalType":"uint256","name":"subtractedValue","type":"uint256"}],"name":"decreaseAllowance","outputs":[{"internalType":"bool","name":"","type":"bool"}],"stateMutability":"nonpayable","type":"function"},{"inputs":[],"name":"defaultTransferLimit","outputs":[{"internalType":"uint256","name":"","type":"uint256"}],"stateMutability":"view","type":"function"},{"inputs":[{"internalType":"address","name":"beneficiary","type":"address"}],"name":"getVestingInfo","outputs":[{"internalType":"uint256","name":"totalAmount","type":"uint256"},{"internalType":"uint256","name":"startTime","type":"uint256"},{"internalType":"uint256","name":"cliffTime","type":"uint256"},{"internalType":"uint256","name":"vestedAmount","type":"uint256"}],"stateMutability":"view","type":"function"},{"inputs":[{"internalType":"address","name":"spender","type":"address"},{"internalType":"uint256","name":"addedValue","type":"uint256"}],"name":"increaseAllowance","outputs":[{"internalType":"bool","name":"","type":"bool"}],"stateMutability":"nonpayable","type":"function"},{"inputs":[{"internalType":"address","name":"to","type":"address"},{"internalType":"uint256","name":"amount","type":"uint256"}],"name":"mint","outputs":[],"stateMutability":"nonpayable","type":"function"},{"inputs":[],"name":"name","outputs":[{"internalType":"string","name":"","type":"string"}],"stateMutability":"view","type":"function"},{"inputs":[],"name":"owner","outputs":[{"internalType":"address","name":"","type":"address"}],"stateMutability":"view","type":"function"},{"inputs":[],"name":"renounceOwnership","outputs":[],"stateMutability":"nonpayable","type":"function"},{"inputs":[{"internalType":"uint256","name":"limit","type":"uint256"}],"name":"setDefaultTransferLimit","outputs":[],"stateMutability":"nonpayable","type":"function"},{"inputs":[{"internalType":"address","name":"account","type":"address"},{"internalType":"uint256","name":"limit","type":"uint256"}],"name":"setTransferLimit","outputs":[],"stateMutability":"nonpayable","type":"function"},{"inputs":[{"internalType":"address","name":"beneficiary","type":"address"},{"internalType":"uint256","name":"amount","type":"uint256"}],"name":"startVesting","outputs":[],"stateMutability":"nonpayable","type":"function"},{"inputs":[],"name":"symbol","outputs":[{"internalType":"string","name":"","type":"string"}],"stateMutability":"view","type":"function"},{"inputs":[],"name":"totalSupply","outputs":[{"internalType":"uint256","name":"","type":"uint256"}],"stateMutability":"view","type":"function"},{"inputs":[{"internalType":"address","name":"to","type":"address"},{"internalType":"uint256","name":"amount","type":"uint256"}],"name":"transfer","outputs":[{"internalType":"bool","name":"","type":"bool"}],"stateMutability":"nonpayable","type":"function"},{"inputs":[{"internalType":"address","name":"from","type":"address"},{"internalType":"address","name":"to","type":"address"},{"internalType":"uint256","name":"amount","type":"uint256"}],"name":"transferFrom","outputs":[{"internalType":"bool","name":"","type":"bool"}],"stateMutability":"nonpayable","type":"function"},{"inputs":[{"internalType":"address","name":"","type":"address"}],"name":"transferLimits","outputs":[{"internalType":"uint256","name":"","type":"uint256"}],"stateMutability":"view","type":"function"},{"inputs":[{"internalType":"address","name":"newOwner","type":"address"}],"name":"transferOwnership","outputs":[],"stateMutability":"nonpayable","type":"function"},{"inputs":[{"internalType":"address","name":"","type":"address"}],"name":"vestingAmounts","outputs":[{"internalType":"uint256","name":"","type":"uint256"}],"stateMutability":"view","type":"function"},{"inputs":[{"internalType":"address","name":"","type":"address"}],"name":"vestingCliff","outputs":[{"internalType":"uint256","name":"","type":"uint256"}],"stateMutability":"view","type":"function"},{"inputs":[{"internalType":"address","name":"","type":"address"}],"name":"vestingStart","outputs":[{"internalType":"uint256","name":"","type":"uint256"}],"stateMutability":"view","type":"function"}],"evm":{"bytecode":{"linkReferences":{},"object":"60806040908082523462000595578060006006546200001e816200059a565b8084526001918083169081156200057657506001146200052b575b50601f93601f199203840182168301926001600160401b0391818510838611176200040457848752838686600060075462000074816200059a565b808452908681169081156200050e5750600114620004bd575b50030116850185811084821117620004045787528151838111620004045780600393620000bb85546200059a565b89811162000489575b5060209089831160011462000426576000926200041a575b505060001982851b1c191690821b1782555b845192831162000404576004946200010786546200059a565b878111620003c5575b506020908785116001146200035c578495509084929160009562000350575b50501b92600019911b1c19161781555b60058054336001600160a01b0319821681179092556001600160a01b03167f8be0079c531659141344cd1fd0a4f28419497f9722a3daafe3b4186f6b6457e0600080a36200018f6006546200059a565b82811162000320575b507f50534c2046616e436861696e20546f6b656e0000000000000000000000000024600655600754620001cb906200059a565b828111620002f0575b506008632829a62360e11b0160075569d3c21bcecceda1000000600881905569152d02c7e14af6800000600a55913315620002ae57506002549082820180921162000299575060025533600052600060205281600020818154019055815190815260007fddf252ad1be2c89b69c2b068fc378daa952ba7f163c4a11628f55a4df523b3ef60203393a360085481519081527f3f2c9d57c068687834f0de942a9babb9e5acab57d516d3480a3c16ee165a427360203392a25161136a9081620005f18239f35b601190634e487b7160e01b6000525260246000fd5b60649250602084519262461bcd60e51b845283015260248201527f45524332303a206d696e7420746f20746865207a65726f2061646472657373006044820152fd5b60076000526200031990830160051c6000805160206200195b83398151915290810190620005d7565b38620001d4565b60066000526200034990830160051c6000805160206200197b83398151915290810190620005d7565b3862000198565b0151935038806200012f565b9291948416928660005284826000209460005b88828210620003ab5750501062000390575b50505050811b0181556200013f565b01519060f884600019921b161c191690553880808062000381565b84860151885590960195602094850194889350016200036f565b620003f3908760005260206000208980880160051c82019260208910620003fa575b0160051c0190620005d7565b3862000110565b92508192620003e7565b634e487b7160e01b600052604160045260246000fd5b015190503880620000dc565b90878594169186600052816000209260005b818110620004705750841162000457575b505050811b018255620000ee565b015160001983871b60f8161c1916905538808062000449565b8284015185558796909401936020938401930162000438565b620004b6908660005260206000208b80860160051c82019260208710620003fa570160051c0190620005d7565b38620000c4565b600760009081526020925090866000805160206200195b8339815191525b828410620004f057505050820101386200008d565b80548d85018601528b97508d96508c955092840192889101620004db565b90506020925060ff191682840152151560051b820101386200008d565b60066000908152919250602091906000805160206200197b8339815191525b8183106200055f575050830101903862000039565b80548784018501528695509183019184016200054a565b9050602092935060ff191682850152151560051b830101903862000039565b600080fd5b90600182811c92168015620005cc575b6020831014620005b657565b634e487b7160e01b600052602260045260246000fd5b91607f1691620005aa565b818110620005e3575050565b60008155600101620005d756fe608060408181526004918236101561001657600080fd5b600092833560e01c918263032bbf4f14610cbd5750816306fdde0314610be3578163095ea7b314610bb95781630f75327f14610b8157816318160ddd14610b6257816323b872dd14610b25578163313ce56714610b0957816332cb6b0c14610ae35781633950935114610a9357816340c10f191461094d57816342966c681461092f5781634cfc4d30146109105781635ddbe56d146108f157816369efe471146108b957816370a0823114610876578163715018a61461081957816379cc6790146107e65781638da5cb5b146107bd57816395d89b411461069e578163a457c2d7146105f6578163a6435fff1461049e578163a9059cbb1461046d578163d01c44cd1461037f578163d5a2e2f614610347578163dd62ed3e146102fe578163eb9beadc146102dc578163f0b6e33f14610274578163f2fde38b146101a4575063fb897ce41461016457600080fd5b346101a05760203660031901126101a057608090610188610183610cf1565b6111ae565b92939091815194855260208501528301526060820152f35b5080fd5b905034610270576020366003190112610270576101bf610cf1565b906101c8610d6b565b6001600160a01b0391821692831561021e575050600554826bffffffffffffffffffffffff60a01b821617600555167f8be0079c531659141344cd1fd0a4f28419497f9722a3daafe3b4186f6b6457e08380a380f35b906020608492519162461bcd60e51b8352820152602660248201527f4f776e61626c653a206e6577206f776e657220697320746865207a65726f206160448201526564647265737360d01b6064820152fd5b8280fd5b5050346101a057806003193601126101a0577f196a06af490acfe9f9bcbbf8be5a5abad4e1bc733fb238fa9c50a6f00689e1b560206102b1610cf1565b602435906102bd610d6b565b6001600160a01b0316808652600983528486208290559351908152a280f35b8390346101a05760203660031901126101a0576102f7610d6b565b35600a5580f35b5050346101a057806003193601126101a0578060209261031c610cf1565b610324610d0c565b6001600160a01b0391821683526001865283832091168252845220549051908152f35b5050346101a05760203660031901126101a05760209181906001600160a01b0361036f610cf1565b168152600d845220549051908152f35b839150346101a057816003193601126101a057338252602090600b82528383205490811561043d57338452600c83528484205490600d84528585205442106104065750916103ec600b926103d58697954261118e565b6303c26700908181106103f65750505b3330610de6565b3384525281205580f35b610400919261119b565b046103e5565b855162461bcd60e51b8152908101849052601160248201527010db1a5999881b9bdd081c995858da1959607a1b6044820152606490fd5b845162461bcd60e51b8152908101839052600a6024820152694e6f2076657374696e6760b01b6044820152606490fd5b5050346101a057806003193601126101a05760209061049761048d610cf1565b6024359033610de6565b5160018152f35b8383346101a057806003193601126101a0576104b8610cf1565b6024356104c3610d6b565b60018060a01b0380921692838552602092600b8452818620546105ba5760055416826105028260018060a01b0316600052600060205260406000205490565b106105805782610513913090610de6565b838552600b83528181862055600c8352428186205562ed4e00420180421161056d57859650847f7b97dcefcb9fdae22321c09ae87ed7865e06d2477325d246f8f1ff039a701a3d959652600d84528187205551908152a280f35b634e487b7160e01b865260118752602486fd5b815162461bcd60e51b81528088018590526014602482015273496e73756666696369656e742062616c616e636560601b6044820152606490fd5b815162461bcd60e51b8152808801859052601660248201527556657374696e6720616c72656164792061637469766560501b6044820152606490fd5b9050823461069b578260031936011261069b57610611610cf1565b918360243592338152600160205281812060018060a01b038616825260205220549082821061064a576020856104978585038733610f62565b608490602086519162461bcd60e51b8352820152602560248201527f45524332303a2064656372656173656420616c6c6f77616e63652062656c6f77604482015264207a65726f60d81b6064820152fd5b80fd5b8383346101a057816003193601126101a057805190828454600181811c908083169283156107b3575b60209384841081146107a057838852908115610784575060011461072f575b505050829003601f01601f191682019267ffffffffffffffff84118385101761071c5750829182610718925282610d22565b0390f35b634e487b7160e01b815260418552602490fd5b8787529192508591837f8a35acfbc15ff81a39ae7d344fd709f28e8600b4aa8c65c6b64bfe7fe36bd19b5b83851061077057505050508301018580806106e6565b80548886018301529301928490820161075a565b60ff1916878501525050151560051b84010190508580806106e6565b634e487b7160e01b895260228a52602489fd5b91607f16916106c7565b5050346101a057816003193601126101a05760055490516001600160a01b039091168152602090f35b5050346101a05736600319011261069b57610816610802610cf1565b60243590610811823383611064565b61122d565b80f35b833461069b578060031936011261069b57610832610d6b565b600580546001600160a01b0319811690915581906001600160a01b03167f8be0079c531659141344cd1fd0a4f28419497f9722a3daafe3b4186f6b6457e08280a380f35b5050346101a05760203660031901126101a0576020906108b2610897610cf1565b6001600160a01b031660009081526020819052604090205490565b9051908152f35b5050346101a05760203660031901126101a05760209181906001600160a01b036108e1610cf1565b1681526009845220549051908152f35b5050346101a057816003193601126101a057602090600a549051908152f35b5050346101a057816003193601126101a057602090516303c267008152f35b8390346101a05760203660031901126101a05761081690353361122d565b91905034610270578060031936011261027057610968610cf1565b9060243591610975610d6b565b600254906a084595161401484a00000061098f8584610dc3565b11610a5b576001600160a01b0316938415610a185750916020916109d4827f3f2c9d57c068687834f0de942a9babb9e5acab57d516d3480a3c16ee165a427395610dc3565b60025584865285835280862082815401905584867fddf252ad1be2c89b69c2b068fc378daa952ba7f163c4a11628f55a4df523b3ef858451868152a351908152a280f35b606490602084519162461bcd60e51b8352820152601f60248201527f45524332303a206d696e7420746f20746865207a65726f2061646472657373006044820152fd5b825162461bcd60e51b8152602081870152601260248201527145786365656473206d617820737570706c7960701b6044820152606490fd5b5050346101a057806003193601126101a057610497602092610adc610ab6610cf1565b338352600186528483206001600160a01b03821684528652918490205460243590610dc3565b9033610f62565b5050346101a057816003193601126101a057602090516a084595161401484a0000008152f35b5050346101a057816003193601126101a0576020905160128152f35b5050346101a05760603660031901126101a057602090610497610b46610cf1565b610b4e610d0c565b60443591610b5d833383611064565b610de6565b5050346101a057816003193601126101a0576020906002549051908152f35b5050346101a05760203660031901126101a05760209181906001600160a01b03610ba9610cf1565b168152600b845220549051908152f35b5050346101a057806003193601126101a057602090610497610bd9610cf1565b6024359033610f62565b8383346101a057816003193601126101a05780519082600354600181811c90808316928315610cb3575b60209384841081146107a0578388529081156107845750600114610c5d57505050829003601f01601f191682019267ffffffffffffffff84118385101761071c5750829182610718925282610d22565b600387529192508591837fc2575a0e9e593c00f959f8c92f12db2869c3395a3b0502d05e2516446f71f85b5b838510610c9f57505050508301018580806106e6565b805488860183015293019284908201610c89565b91607f1691610c0d565b84908434610270576020366003190112610270576020926001600160a01b03610ce4610cf1565b168152600c845220548152f35b600435906001600160a01b0382168203610d0757565b600080fd5b602435906001600160a01b0382168203610d0757565b6020808252825181830181905290939260005b828110610d5757505060409293506000838284010152601f8019910116010190565b818101860151848201604001528501610d35565b6005546001600160a01b03163303610d7f57565b606460405162461bcd60e51b815260206004820152602060248201527f4f776e61626c653a2063616c6c6572206973206e6f7420746865206f776e65726044820152fd5b91908201809211610dd057565b634e487b7160e01b600052601160045260246000fd5b916001600160a01b0380841692908315610f0f578116938415610ebe57610e0e9183916110fc565b600082815280602052604081205491808310610e6a57604082827fddf252ad1be2c89b69c2b068fc378daa952ba7f163c4a11628f55a4df523b3ef958760209652828652038282205586815220818154019055604051908152a3565b60405162461bcd60e51b815260206004820152602660248201527f45524332303a207472616e7366657220616d6f756e7420657863656564732062604482015265616c616e636560d01b6064820152608490fd5b60405162461bcd60e51b815260206004820152602360248201527f45524332303a207472616e7366657220746f20746865207a65726f206164647260448201526265737360e81b6064820152608490fd5b60405162461bcd60e51b815260206004820152602560248201527f45524332303a207472616e736665722066726f6d20746865207a65726f206164604482015264647265737360d81b6064820152608490fd5b6001600160a01b039081169182156110135716918215610fc35760207f8c5be1e5ebec7d5bd14f71427d1e84f3dd0314c0f7b2291e5b200ac8c7c3b925918360005260018252604060002085600052825280604060002055604051908152a3565b60405162461bcd60e51b815260206004820152602260248201527f45524332303a20617070726f766520746f20746865207a65726f206164647265604482015261737360f01b6064820152608490fd5b60405162461bcd60e51b8152602060048201526024808201527f45524332303a20617070726f76652066726f6d20746865207a65726f206164646044820152637265737360e01b6064820152608490fd5b9060018060a01b038083166000526001602052604060002090821660005260205260406000205492600019840361109c575b50505050565b8084106110b7576110ae930391610f62565b38808080611096565b60405162461bcd60e51b815260206004820152601d60248201527f45524332303a20696e73756666696369656e7420616c6c6f77616e63650000006044820152606490fd5b6001600160a01b03919082161561118957811690811561118957600554163303611124575050565b600052600960205260406000205490811561117f575b1161114157565b60405162461bcd60e51b8152602060048201526016602482015275115e18d959591cc81d1c985b9cd9995c881b1a5b5a5d60521b6044820152606490fd5b600a54915061113a565b505050565b91908203918211610dd057565b81810292918115918404141715610dd057565b6001600160a01b03166000908152600b6020526040812054801561122457600c602052604082205492600d60205260408320549291834210156111f2575b93929190565b91506111fe844261118e565b6303c2670090818110611213575050816111ec565b61121d908461119b565b04916111ec565b50908180918190565b6001600160a01b031680156112e55760009181835282602052604083205481811061129557817fddf252ad1be2c89b69c2b068fc378daa952ba7f163c4a11628f55a4df523b3ef926020928587528684520360408620558060025403600255604051908152a3565b60405162461bcd60e51b815260206004820152602260248201527f45524332303a206275726e20616d6f756e7420657863656564732062616c616e604482015261636560f01b6064820152608490fd5b60405162461bcd60e51b815260206004820152602160248201527f45524332303a206275726e2066726f6d20746865207a65726f206164647265736044820152607360f81b6064820152608490fdfea2646970667358221220e4b5d753e8af4e160fd920984691d6687b8069af4e76944bdb2bc6109ddc1c4164736f6c63430008130033a66cc928b5edb82af9bd49922954155ab7b0942694bea4ce44661d9a8736c688f652222313e28459528d920b65115c16c04f3efc82aaedc97be59f3f377c0d3f","opcodes":"PUSH1 0x80 PUSH1 0x40 SWAP1 DUP1 DUP3 MSTORE CALLVALUE PUSH3 0x595 JUMPI DUP1 PUSH1 0x0 PUSH1 0x6 SLOAD PUSH3 0x1E DUP2 PUSH3 0x59A JUMP JUMPDEST DUP1 DUP5 MSTORE PUSH1 0x1 SWAP2 DUP1 DUP4 AND SWAP1 DUP2 ISZERO PUSH3 0x576 JUMPI POP PUSH1 0x1 EQ PUSH3 0x52B JUMPI JUMPDEST POP PUSH1 0x1F SWAP4 PUSH1 0x1F NOT SWAP3 SUB DUP5 ADD DUP3 AND DUP4 ADD SWAP3 PUSH1 0x1 PUSH1 0x1 PUSH1 0x40 SHL SUB SWAP2 DUP2 DUP6 LT DUP4 DUP7 GT OR PUSH3 0x404 JUMPI DUP5 DUP8 MSTORE DUP4 DUP7 DUP7 PUSH1 0x0 PUSH1 0x7 SLOAD PUSH3 0x74 DUP2 PUSH3 0x59A JUMP JUMPDEST DUP1 DUP5 MSTORE SWAP1 DUP7 DUP2 AND SWAP1 DUP2 ISZERO PUSH3 0x50E JUMPI POP PUSH1 0x1 EQ PUSH3 0x4BD JUMPI JUMPDEST POP SUB ADD AND DUP6 ADD DUP6 DUP2 LT DUP5 DUP3 GT OR PUSH3 0x404 JUMPI DUP8 MSTORE DUP2 MLOAD DUP4 DUP2 GT PUSH3 0x404 JUMPI DUP1 PUSH1 0x3 SWAP4 PUSH3 0xBB DUP6 SLOAD PUSH3 0x59A JUMP JUMPDEST DUP10 DUP2 GT PUSH3 0x489 JUMPI JUMPDEST POP PUSH1 0x20 SWAP1 DUP10 DUP4 GT PUSH1 0x1 EQ PUSH3 0x426 JUMPI PUSH1 0x0 SWAP3 PUSH3 0x41A JUMPI JUMPDEST POP POP PUSH1 0x0 NOT DUP3 DUP6 SHL SHR NOT AND SWAP1 DUP3 SHL OR DUP3 SSTORE JUMPDEST DUP5 MLOAD SWAP3 DUP4 GT PUSH3 0x404 JUMPI PUSH1 0x4 SWAP5 PUSH3 0x107 DUP7 SLOAD PUSH3 0x59A JUMP JUMPDEST DUP8 DUP2 GT PUSH3 0x3C5 JUMPI JUMPDEST POP PUSH1 0x20 SWAP1 DUP8 DUP6 GT PUSH1 0x1 EQ PUSH3 0x35C JUMPI DUP5 SWAP6 POP SWAP1 DUP5 SWAP3 SWAP2 PUSH1 0x0 SWAP6 PUSH3 0x350 JUMPI JUMPDEST POP POP SHL SWAP3 PUSH1 0x0 NOT SWAP2 SHL SHR NOT AND OR DUP2 SSTORE JUMPDEST PUSH1 0x5 DUP1 SLOAD CALLER PUSH1 0x1 PUSH1 0x1 PUSH1 0xA0 SHL SUB NOT DUP3 AND DUP2 OR SWAP1 SWAP3 SSTORE PUSH1 0x1 PUSH1 0x1 PUSH1 0xA0 SHL SUB AND PUSH32 0x8BE0079C531659141344CD1FD0A4F28419497F9722A3DAAFE3B4186F6B6457E0 PUSH1 0x0 DUP1 LOG3 PUSH3 0x18F PUSH1 0x6 SLOAD PUSH3 0x59A JUMP JUMPDEST DUP3 DUP2 GT PUSH3 0x320 JUMPI JUMPDEST POP PUSH32 0x50534C2046616E436861696E20546F6B656E0000000000000000000000000024 PUSH1 0x6 SSTORE PUSH1 0x7 SLOAD PUSH3 0x1CB SWAP1 PUSH3 0x59A JUMP JUMPDEST DUP3 DUP2 GT PUSH3 0x2F0 JUMPI JUMPDEST POP PUSH1 0x8 PUSH4 0x2829A623 PUSH1 0xE1 SHL ADD PUSH1 0x7 SSTORE PUSH10 0xD3C21BCECCEDA1000000 PUSH1 0x8 DUP2 SWAP1 SSTORE PUSH10 0x152D02C7E14AF6800000 PUSH1 0xA SSTORE SWAP2 CALLER ISZERO PUSH3 0x2AE JUMPI POP PUSH1 0x2 SLOAD SWAP1 DUP3 DUP3 ADD DUP1 SWAP3 GT PUSH3 0x299 JUMPI POP PUSH1 0x2 SSTORE CALLER PUSH1 0x0 MSTORE PUSH1 0x0 PUSH1 0x20 MSTORE DUP2 PUSH1 0x0 KECCAK256 DUP2 DUP2 SLOAD ADD SWAP1 SSTORE DUP2 MLOAD SWAP1 DUP2 MSTORE PUSH1 0x0 PUSH32 0xDDF252AD1BE2C89B69C2B068FC378DAA952BA7F163C4A11628F55A4DF523B3EF PUSH1 0x20 CALLER SWAP4 LOG3 PUSH1 0x8 SLOAD DUP2 MLOAD SWAP1 DUP2 MSTORE PUSH32 0x3F2C9D57C068687834F0DE942A9BABB9E5ACAB57D516D3480A3C16EE165A4273 PUSH1 0x20 CALLER SWAP3 LOG2 MLOAD PUSH2 0x136A SWAP1 DUP2 PUSH3 0x5F1 DUP3 CODECOPY RETURN JUMPDEST PUSH1 0x11 SWAP1 PUSH4 0x4E487B71 PUSH1 0xE0 SHL PUSH1 0x0 MSTORE MSTORE PUSH1 0x24 PUSH1 0x0 REVERT JUMPDEST PUSH1 0x64 SWAP3 POP PUSH1 0x20 DUP5 MLOAD SWAP3 PUSH3 0x461BCD PUSH1 0xE5 SHL DUP5 MSTORE DUP4 ADD MSTORE PUSH1 0x24 DUP3 ADD MSTORE PUSH32 0x45524332303A206D696E7420746F20746865207A65726F206164647265737300 PUSH1 0x44 DUP3 ADD MSTORE REVERT JUMPDEST PUSH1 0x7 PUSH1 0x0 MSTORE PUSH3 0x319 SWAP1 DUP4 ADD PUSH1 0x5 SHR PUSH1 0x0 DUP1 MLOAD PUSH1 0x20 PUSH3 0x195B DUP4 CODECOPY DUP2 MLOAD SWAP2 MSTORE SWAP1 DUP2 ADD SWAP1 PUSH3 0x5D7 JUMP JUMPDEST CODESIZE PUSH3 0x1D4 JUMP JUMPDEST PUSH1 0x6 PUSH1 0x0 MSTORE PUSH3 0x349 SWAP1 DUP4 ADD PUSH1 0x5 SHR PUSH1 0x0 DUP1 MLOAD PUSH1 0x20 PUSH3 0x197B DUP4 CODECOPY DUP2 MLOAD SWAP2 MSTORE SWAP1 DUP2 ADD SWAP1 PUSH3 0x5D7 JUMP JUMPDEST CODESIZE PUSH3 0x198 JUMP JUMPDEST ADD MLOAD SWAP4 POP CODESIZE DUP1 PUSH3 0x12F JUMP JUMPDEST SWAP3 SWAP2 SWAP5 DUP5 AND SWAP3 DUP7 PUSH1 0x0 MSTORE DUP5 DUP3 PUSH1 0x0 KECCAK256 SWAP5 PUSH1 0x0 JUMPDEST DUP9 DUP3 DUP3 LT PUSH3 0x3AB JUMPI POP POP LT PUSH3 0x390 JUMPI JUMPDEST POP POP POP POP DUP2 SHL ADD DUP2 SSTORE PUSH3 0x13F JUMP JUMPDEST ADD MLOAD SWAP1 PUSH1 0xF8 DUP5 PUSH1 0x0 NOT SWAP3 SHL AND SHR NOT AND SWAP1 SSTORE CODESIZE DUP1 DUP1 DUP1 PUSH3 0x381 JUMP JUMPDEST DUP5 DUP7 ADD MLOAD DUP9 SSTORE SWAP1 SWAP7 ADD SWAP6 PUSH1 0x20 SWAP5 DUP6 ADD SWAP5 DUP9 SWAP4 POP ADD PUSH3 0x36F JUMP JUMPDEST PUSH3 0x3F3 SWAP1 DUP8 PUSH1 0x0 MSTORE PUSH1 0x20 PUSH1 0x0 KECCAK256 DUP10 DUP1 DUP9 ADD PUSH1 0x5 SHR DUP3 ADD SWAP3 PUSH1 0x20 DUP10 LT PUSH3 0x3FA JUMPI JUMPDEST ADD PUSH1 0x5 SHR ADD SWAP1 PUSH3 0x5D7 JUMP JUMPDEST CODESIZE PUSH3 0x110 JUMP JUMPDEST SWAP3 POP DUP2 SWAP3 PUSH3 0x3E7 JUMP JUMPDEST PUSH4 0x4E487B71 PUSH1 0xE0 SHL PUSH1 0x0 MSTORE PUSH1 0x41 PUSH1 0x4 MSTORE PUSH1 0x24 PUSH1 0x0 REVERT JUMPDEST ADD MLOAD SWAP1 POP CODESIZE DUP1 PUSH3 0xDC JUMP JUMPDEST SWAP1 DUP8 DUP6 SWAP5 AND SWAP2 DUP7 PUSH1 0x0 MSTORE DUP2 PUSH1 0x0 KECCAK256 SWAP3 PUSH1 0x0 JUMPDEST DUP2 DUP2 LT PUSH3 0x470 JUMPI POP DUP5 GT PUSH3 0x457 JUMPI JUMPDEST POP POP POP DUP2 SHL ADD DUP3 SSTORE PUSH3 0xEE JUMP JUMPDEST ADD MLOAD PUSH1 0x0 NOT DUP4 DUP8 SHL PUSH1 0xF8 AND SHR NOT AND SWAP1 SSTORE CODESIZE DUP1 DUP1 PUSH3 0x449 JUMP JUMPDEST DUP3 DUP5 ADD MLOAD DUP6 SSTORE DUP8 SWAP7 SWAP1 SWAP5 ADD SWAP4 PUSH1 0x20 SWAP4 DUP5 ADD SWAP4 ADD PUSH3 0x438 JUMP JUMPDEST PUSH3 0x4B6 SWAP1 DUP7 PUSH1 0x0 MSTORE PUSH1 0x20 PUSH1 0x0 KECCAK256 DUP12 DUP1 DUP7 ADD PUSH1 0x5 SHR DUP3 ADD SWAP3 PUSH1 0x20 DUP8 LT PUSH3 0x3FA JUMPI ADD PUSH1 0x5 SHR ADD SWAP1 PUSH3 0x5D7 JUMP JUMPDEST CODESIZE PUSH3 0xC4 JUMP JUMPDEST PUSH1 0x7 PUSH1 0x0 SWAP1 DUP2 MSTORE PUSH1 0x20 SWAP3 POP SWAP1 DUP7 PUSH1 0x0 DUP1 MLOAD PUSH1 0x20 PUSH3 0x195B DUP4 CODECOPY DUP2 MLOAD SWAP2 MSTORE JUMPDEST DUP3 DUP5 LT PUSH3 0x4F0 JUMPI POP POP POP DUP3 ADD ADD CODESIZE PUSH3 0x8D JUMP JUMPDEST DUP1 SLOAD DUP14 DUP6 ADD DUP7 ADD MSTORE DUP12 SWAP8 POP DUP14 SWAP7 POP DUP13 SWAP6 POP SWAP3 DUP5 ADD SWAP3 DUP9 SWAP2 ADD PUSH3 0x4DB JUMP JUMPDEST SWAP1 POP PUSH1 0x20 SWAP3 POP PUSH1 0xFF NOT AND DUP3 DUP5 ADD MSTORE ISZERO ISZERO PUSH1 0x5 SHL DUP3 ADD ADD CODESIZE PUSH3 0x8D JUMP JUMPDEST PUSH1 0x6 PUSH1 0x0 SWAP1 DUP2 MSTORE SWAP2 SWAP3 POP PUSH1 0x20 SWAP2 SWAP1 PUSH1 0x0 DUP1 MLOAD PUSH1 0x20 PUSH3 0x197B DUP4 CODECOPY DUP2 MLOAD SWAP2 MSTORE JUMPDEST DUP2 DUP4 LT PUSH3 0x55F JUMPI POP POP DUP4 ADD ADD SWAP1 CODESIZE PUSH3 0x39 JUMP JUMPDEST DUP1 SLOAD DUP8 DUP5 ADD DUP6 ADD MSTORE DUP7 SWAP6 POP SWAP2 DUP4 ADD SWAP2 DUP5 ADD PUSH3 0x54A JUMP JUMPDEST SWAP1 POP PUSH1 0x20 SWAP3 SWAP4 POP PUSH1 0xFF NOT AND DUP3 DUP6 ADD MSTORE ISZERO ISZERO PUSH1 0x5 SHL DUP4 ADD ADD SWAP1 CODESIZE PUSH3 0x39 JUMP JUMPDEST PUSH1 0x0 DUP1 REVERT JUMPDEST SWAP1 PUSH1 0x1 DUP3 DUP2 SHR SWAP3 AND DUP1 ISZERO PUSH3 0x5CC JUMPI JUMPDEST PUSH1 0x20 DUP4 LT EQ PUSH3 0x5B6 JUMPI JUMP JUMPDEST PUSH4 0x4E487B71 PUSH1 0xE0 SHL PUSH1 0x0 MSTORE PUSH1 0x22 PUSH1 0x4 MSTORE PUSH1 0x24 PUSH1 0x0 REVERT JUMPDEST SWAP2 PUSH1 0x7F AND SWAP2 PUSH3 0x5AA JUMP JUMPDEST DUP2 DUP2 LT PUSH3 0x5E3 JUMPI POP POP JUMP JUMPDEST PUSH1 0x0 DUP2 SSTORE PUSH1 0x1 ADD PUSH3 0x5D7 JUMP INVALID PUSH1 0x80 PUSH1 0x40 DUP2 DUP2 MSTORE PUSH1 0x4 SWAP2 DUP3 CALLDATASIZE LT ISZERO PUSH2 0x16 JUMPI PUSH1 0x0 DUP1 REVERT JUMPDEST PUSH1 0x0 SWAP3 DUP4 CALLDATALOAD PUSH1 0xE0 SHR SWAP2 DUP3 PUSH4 0x32BBF4F EQ PUSH2 0xCBD JUMPI POP DUP2 PUSH4 0x6FDDE03 EQ PUSH2 0xBE3 JUMPI DUP2 PUSH4 0x95EA7B3 EQ PUSH2 0xBB9 JUMPI DUP2 PUSH4 0xF75327F EQ PUSH2 0xB81 JUMPI DUP2 PUSH4 0x18160DDD EQ PUSH2 0xB62 JUMPI DUP2 PUSH4 0x23B872DD EQ PUSH2 0xB25 JUMPI DUP2 PUSH4 0x313CE567 EQ PUSH2 0xB09 JUMPI DUP2 PUSH4 0x32CB6B0C EQ PUSH2 0xAE3 JUMPI DUP2 PUSH4 0x39509351 EQ PUSH2 0xA93 JUMPI DUP2 PUSH4 0x40C10F19 EQ PUSH2 0x94D JUMPI DUP2 PUSH4 0x42966C68 EQ PUSH2 0x92F JUMPI DUP2 PUSH4 0x4CFC4D30 EQ PUSH2 0x910 JUMPI DUP2 PUSH4 0x5DDBE56D EQ PUSH2 0x8F1 JUMPI DUP2 PUSH4 0x69EFE471 EQ PUSH2 0x8B9 JUMPI DUP2 PUSH4 0x70A08231 EQ PUSH2 0x876 JUMPI DUP2 PUSH4 0x715018A6 EQ PUSH2 0x819 JUMPI DUP2 PUSH4 0x79CC6790 EQ PUSH2 0x7E6 JUMPI DUP2 PUSH4 0x8DA5CB5B EQ PUSH2 0x7BD JUMPI DUP2 PUSH4 0x95D89B41 EQ PUSH2 0x69E JUMPI DUP2 PUSH4 0xA457C2D7 EQ PUSH2 0x5F6 JUMPI DUP2 PUSH4 0xA6435FFF EQ PUSH2 0x49E JUMPI DUP2 PUSH4 0xA9059CBB EQ PUSH2 0x46D JUMPI DUP2 PUSH4 0xD01C44CD EQ PUSH2 0x37F JUMPI DUP2 PUSH4 0xD5A2E2F6 EQ PUSH2 0x347 JUMPI DUP2 PUSH4 0xDD62ED3E EQ PUSH2 0x2FE JUMPI DUP2 PUSH4 0xEB9BEADC EQ PUSH2 0x2DC JUMPI DUP2 PUSH4 0xF0B6E33F EQ PUSH2 0x274 JUMPI DUP2 PUSH4 0xF2FDE38B EQ PUSH2 0x1A4 JUMPI POP PUSH4 0xFB897CE4 EQ PUSH2 0x164 JUMPI PUSH1 0x0 DUP1 REVERT JUMPDEST CALLVALUE PUSH2 0x1A0 JUMPI PUSH1 0x20 CALLDATASIZE PUSH1 0x3 NOT ADD SLT PUSH2 0x1A0 JUMPI PUSH1 0x80 SWAP1 PUSH2 0x188 PUSH2 0x183 PUSH2 0xCF1 JUMP JUMPDEST PUSH2 0x11AE JUMP JUMPDEST SWAP3 SWAP4 SWAP1 SWAP2 DUP2 MLOAD SWAP5 DUP6 MSTORE PUSH1 0x20 DUP6 ADD MSTORE DUP4 ADD MSTORE PUSH1 0x60 DUP3 ADD MSTORE RETURN JUMPDEST POP DUP1 REVERT JUMPDEST SWAP1 POP CALLVALUE PUSH2 0x270 JUMPI PUSH1 0x20 CALLDATASIZE PUSH1 0x3 NOT ADD SLT PUSH2 0x270 JUMPI PUSH2 0x1BF PUSH2 0xCF1 JUMP JUMPDEST SWAP1 PUSH2 0x1C8 PUSH2 0xD6B JUMP JUMPDEST PUSH1 0x1 PUSH1 0x1 PUSH1 0xA0 SHL SUB SWAP2 DUP3 AND SWAP3 DUP4 ISZERO PUSH2 0x21E JUMPI POP POP PUSH1 0x5 SLOAD DUP3 PUSH12 0xFFFFFFFFFFFFFFFFFFFFFFFF PUSH1 0xA0 SHL DUP3 AND OR PUSH1 0x5 SSTORE AND PUSH32 0x8BE0079C531659141344CD1FD0A4F28419497F9722A3DAAFE3B4186F6B6457E0 DUP4 DUP1 LOG3 DUP1 RETURN JUMPDEST SWAP1 PUSH1 0x20 PUSH1 0x84 SWAP3 MLOAD SWAP2 PUSH3 0x461BCD PUSH1 0xE5 SHL DUP4 MSTORE DUP3 ADD MSTORE PUSH1 0x26 PUSH1 0x24 DUP3 ADD MSTORE PUSH32 0x4F776E61626C653A206E6577206F776E657220697320746865207A65726F2061 PUSH1 0x44 DUP3 ADD MSTORE PUSH6 0x646472657373 PUSH1 0xD0 SHL PUSH1 0x64 DUP3 ADD MSTORE REVERT JUMPDEST DUP3 DUP1 REVERT JUMPDEST POP POP CALLVALUE PUSH2 0x1A0 JUMPI DUP1 PUSH1 0x3 NOT CALLDATASIZE ADD SLT PUSH2 0x1A0 JUMPI PUSH32 0x196A06AF490ACFE9F9BCBBF8BE5A5ABAD4E1BC733FB238FA9C50A6F00689E1B5 PUSH1 0x20 PUSH2 0x2B1 PUSH2 0xCF1 JUMP JUMPDEST PUSH1 0x24 CALLDATALOAD SWAP1 PUSH2 0x2BD PUSH2 0xD6B JUMP JUMPDEST PUSH1 0x1 PUSH1 0x1 PUSH1 0xA0 SHL SUB AND DUP1 DUP7 MSTORE PUSH1 0x9 DUP4 MSTORE DUP5 DUP7 KECCAK256 DUP3 SWAP1 SSTORE SWAP4 MLOAD SWAP1 DUP2 MSTORE LOG2 DUP1 RETURN JUMPDEST DUP4 SWAP1 CALLVALUE PUSH2 0x1A0 JUMPI PUSH1 0x20 CALLDATASIZE PUSH1 0x3 NOT ADD SLT PUSH2 0x1A0 JUMPI PUSH2 0x2F7 PUSH2 0xD6B JUMP JUMPDEST CALLDATALOAD PUSH1 0xA SSTORE DUP1 RETURN JUMPDEST POP POP CALLVALUE PUSH2 0x1A0 JUMPI DUP1 PUSH1 0x3 NOT CALLDATASIZE ADD SLT PUSH2 0x1A0 JUMPI DUP1 PUSH1 0x20 SWAP3 PUSH2 0x31C PUSH2 0xCF1 JUMP JUMPDEST PUSH2 0x324 PUSH2 0xD0C JUMP JUMPDEST PUSH1 0x1 PUSH1 0x1 PUSH1 0xA0 SHL SUB SWAP2 DUP3 AND DUP4 MSTORE PUSH1 0x1 DUP7 MSTORE DUP4 DUP4 KECCAK256 SWAP2 AND DUP3 MSTORE DUP5 MSTORE KECCAK256 SLOAD SWAP1 MLOAD SWAP1 DUP2 MSTORE RETURN JUMPDEST POP POP CALLVALUE PUSH2 0x1A0 JUMPI PUSH1 0x20 CALLDATASIZE PUSH1 0x3 NOT ADD SLT PUSH2 0x1A0 JUMPI PUSH1 0x20 SWAP2 DUP2 SWAP1 PUSH1 0x1 PUSH1 0x1 PUSH1 0xA0 SHL SUB PUSH2 0x36F PUSH2 0xCF1 JUMP JUMPDEST AND DUP2 MSTORE PUSH1 0xD DUP5 MSTORE KECCAK256 SLOAD SWAP1 MLOAD SWAP1 DUP2 MSTORE RETURN JUMPDEST DUP4 SWAP2 POP CALLVALUE PUSH2 0x1A0 JUMPI DUP2 PUSH1 0x3 NOT CALLDATASIZE ADD SLT PUSH2 0x1A0 JUMPI CALLER DUP3 MSTORE PUSH1 0x20 SWAP1 PUSH1 0xB DUP3 MSTORE DUP4 DUP4 KECCAK256 SLOAD SWAP1 DUP2 ISZERO PUSH2 0x43D JUMPI CALLER DUP5 MSTORE PUSH1 0xC DUP4 MSTORE DUP5 DUP5 KECCAK256 SLOAD SWAP1 PUSH1 0xD DUP5 MSTORE DUP6 DUP6 KECCAK256 SLOAD TIMESTAMP LT PUSH2 0x406 JUMPI POP SWAP2 PUSH2 0x3EC PUSH1 0xB SWAP3 PUSH2 0x3D5 DUP7 SWAP8 SWAP6 TIMESTAMP PUSH2 0x118E JUMP JUMPDEST PUSH4 0x3C26700 SWAP1 DUP2 DUP2 LT PUSH2 0x3F6 JUMPI POP POP JUMPDEST CALLER ADDRESS PUSH2 0xDE6 JUMP JUMPDEST CALLER DUP5 MSTORE MSTORE DUP2 KECCAK256 SSTORE DUP1 RETURN JUMPDEST PUSH2 0x400 SWAP2 SWAP3 PUSH2 0x119B JUMP JUMPDEST DIV PUSH2 0x3E5 JUMP JUMPDEST DUP6 MLOAD PUSH3 0x461BCD PUSH1 0xE5 SHL DUP2 MSTORE SWAP1 DUP2 ADD DUP5 SWAP1 MSTORE PUSH1 0x11 PUSH1 0x24 DUP3 ADD MSTORE PUSH17 0x10DB1A5999881B9BDD081C995858DA1959 PUSH1 0x7A SHL PUSH1 0x44 DUP3 ADD MSTORE PUSH1 0x64 SWAP1 REVERT JUMPDEST DUP5 MLOAD PUSH3 0x461BCD PUSH1 0xE5 SHL DUP2 MSTORE SWAP1 DUP2 ADD DUP4 SWAP1 MSTORE PUSH1 0xA PUSH1 0x24 DUP3 ADD MSTORE PUSH10 0x4E6F2076657374696E67 PUSH1 0xB0 SHL PUSH1 0x44 DUP3 ADD MSTORE PUSH1 0x64 SWAP1 REVERT JUMPDEST POP POP CALLVALUE PUSH2 0x1A0 JUMPI DUP1 PUSH1 0x3 NOT CALLDATASIZE ADD SLT PUSH2 0x1A0 JUMPI PUSH1 0x20 SWAP1 PUSH2 0x497 PUSH2 0x48D PUSH2 0xCF1 JUMP JUMPDEST PUSH1 0x24 CALLDATALOAD SWAP1 CALLER PUSH2 0xDE6 JUMP JUMPDEST MLOAD PUSH1 0x1 DUP2 MSTORE RETURN JUMPDEST DUP4 DUP4 CALLVALUE PUSH2 0x1A0 JUMPI DUP1 PUSH1 0x3 NOT CALLDATASIZE ADD SLT PUSH2 0x1A0 JUMPI PUSH2 0x4B8 PUSH2 0xCF1 JUMP JUMPDEST PUSH1 0x24 CALLDATALOAD PUSH2 0x4C3 PUSH2 0xD6B JUMP JUMPDEST PUSH1 0x1 DUP1 PUSH1 0xA0 SHL SUB DUP1 SWAP3 AND SWAP3 DUP4 DUP6 MSTORE PUSH1 0x20 SWAP3 PUSH1 0xB DUP5 MSTORE DUP2 DUP7 KECCAK256 SLOAD PUSH2 0x5BA JUMPI PUSH1 0x5 SLOAD AND DUP3 PUSH2 0x502 DUP3 PUSH1 0x1 DUP1 PUSH1 0xA0 SHL SUB AND PUSH1 0x0 MSTORE PUSH1 0x0 PUSH1 0x20 MSTORE PUSH1 0x40 PUSH1 0x0 KECCAK256 SLOAD SWAP1 JUMP JUMPDEST LT PUSH2 0x580 JUMPI DUP3 PUSH2 0x513 SWAP2 ADDRESS SWAP1 PUSH2 0xDE6 JUMP JUMPDEST DUP4 DUP6 MSTORE PUSH1 0xB DUP4 MSTORE DUP2 DUP2 DUP7 KECCAK256 SSTORE PUSH1 0xC DUP4 MSTORE TIMESTAMP DUP2 DUP7 KECCAK256 SSTORE PUSH3 0xED4E00 TIMESTAMP ADD DUP1 TIMESTAMP GT PUSH2 0x56D JUMPI DUP6 SWAP7 POP DUP5 PUSH32 0x7B97DCEFCB9FDAE22321C09AE87ED7865E06D2477325D246F8F1FF039A701A3D SWAP6 SWAP7 MSTORE PUSH1 0xD DUP5 MSTORE DUP2 DUP8 KECCAK256 SSTORE MLOAD SWAP1 DUP2 MSTORE LOG2 DUP1 RETURN JUMPDEST PUSH4 0x4E487B71 PUSH1 0xE0 SHL DUP7 MSTORE PUSH1 0x11 DUP8 MSTORE PUSH1 0x24 DUP7 REVERT JUMPDEST DUP2 MLOAD PUSH3 0x461BCD PUSH1 0xE5 SHL DUP2 MSTORE DUP1 DUP9 ADD DUP6 SWAP1 MSTORE PUSH1 0x14 PUSH1 0x24 DUP3 ADD MSTORE PUSH20 0x496E73756666696369656E742062616C616E6365 PUSH1 0x60 SHL PUSH1 0x44 DUP3 ADD MSTORE PUSH1 0x64 SWAP1 REVERT JUMPDEST DUP2 MLOAD PUSH3 0x461BCD PUSH1 0xE5 SHL DUP2 MSTORE DUP1 DUP9 ADD DUP6 SWAP1 MSTORE PUSH1 0x16 PUSH1 0x24 DUP3 ADD MSTORE PUSH22 0x56657374696E6720616C726561647920616374697665 PUSH1 0x50 SHL PUSH1 0x44 DUP3 ADD MSTORE PUSH1 0x64 SWAP1 REVERT JUMPDEST SWAP1 POP DUP3 CALLVALUE PUSH2 0x69B JUMPI DUP3 PUSH1 0x3 NOT CALLDATASIZE ADD SLT PUSH2 0x69B JUMPI PUSH2 0x611 PUSH2 0xCF1 JUMP JUMPDEST SWAP2 DUP4 PUSH1 0x24 CALLDATALOAD SWAP3 CALLER DUP2 MSTORE PUSH1 0x1 PUSH1 0x20 MSTORE DUP2 DUP2 KECCAK256 PUSH1 0x1 DUP1 PUSH1 0xA0 SHL SUB DUP7 AND DUP3 MSTORE PUSH1 0x20 MSTORE KECCAK256 SLOAD SWAP1 DUP3 DUP3 LT PUSH2 0x64A JUMPI PUSH1 0x20 DUP6 PUSH2 0x497 DUP6 DUP6 SUB DUP8 CALLER PUSH2 0xF62 JUMP JUMPDEST PUSH1 0x84 SWAP1 PUSH1 0x20 DUP7 MLOAD SWAP2 PUSH3 0x461BCD PUSH1 0xE5 SHL DUP4 MSTORE DUP3 ADD MSTORE PUSH1 0x25 PUSH1 0x24 DUP3 ADD MSTORE PUSH32 0x45524332303A2064656372656173656420616C6C6F77616E63652062656C6F77 PUSH1 0x44 DUP3 ADD MSTORE PUSH5 0x207A65726F PUSH1 0xD8 SHL PUSH1 0x64 DUP3 ADD MSTORE REVERT JUMPDEST DUP1 REVERT JUMPDEST DUP4 DUP4 CALLVALUE PUSH2 0x1A0 JUMPI DUP2 PUSH1 0x3 NOT CALLDATASIZE ADD SLT PUSH2 0x1A0 JUMPI DUP1 MLOAD SWAP1 DUP3 DUP5 SLOAD PUSH1 0x1 DUP2 DUP2 SHR SWAP1 DUP1 DUP4 AND SWAP3 DUP4 ISZERO PUSH2 0x7B3 JUMPI JUMPDEST PUSH1 0x20 SWAP4 DUP5 DUP5 LT DUP2 EQ PUSH2 0x7A0 JUMPI DUP4 DUP9 MSTORE SWAP1 DUP2 ISZERO PUSH2 0x784 JUMPI POP PUSH1 0x1 EQ PUSH2 0x72F JUMPI JUMPDEST POP POP POP DUP3 SWAP1 SUB PUSH1 0x1F ADD PUSH1 0x1F NOT AND DUP3 ADD SWAP3 PUSH8 0xFFFFFFFFFFFFFFFF DUP5 GT DUP4 DUP6 LT OR PUSH2 0x71C JUMPI POP DUP3 SWAP2 DUP3 PUSH2 0x718 SWAP3 MSTORE DUP3 PUSH2 0xD22 JUMP JUMPDEST SUB SWAP1 RETURN JUMPDEST PUSH4 0x4E487B71 PUSH1 0xE0 SHL DUP2 MSTORE PUSH1 0x41 DUP6 MSTORE PUSH1 0x24 SWAP1 REVERT JUMPDEST DUP8 DUP8 MSTORE SWAP2 SWAP3 POP DUP6 SWAP2 DUP4 PUSH32 0x8A35ACFBC15FF81A39AE7D344FD709F28E8600B4AA8C65C6B64BFE7FE36BD19B JUMPDEST DUP4 DUP6 LT PUSH2 0x770 JUMPI POP POP POP POP DUP4 ADD ADD DUP6 DUP1 DUP1 PUSH2 0x6E6 JUMP JUMPDEST DUP1 SLOAD DUP9 DUP7 ADD DUP4 ADD MSTORE SWAP4 ADD SWAP3 DUP5 SWAP1 DUP3 ADD PUSH2 0x75A JUMP JUMPDEST PUSH1 0xFF NOT AND DUP8 DUP6 ADD MSTORE POP POP ISZERO ISZERO PUSH1 0x5 SHL DUP5 ADD ADD SWAP1 POP DUP6 DUP1 DUP1 PUSH2 0x6E6 JUMP JUMPDEST PUSH4 0x4E487B71 PUSH1 0xE0 SHL DUP10 MSTORE PUSH1 0x22 DUP11 MSTORE PUSH1 0x24 DUP10 REVERT JUMPDEST SWAP2 PUSH1 0x7F AND SWAP2 PUSH2 0x6C7 JUMP JUMPDEST POP POP CALLVALUE PUSH2 0x1A0 JUMPI DUP2 PUSH1 0x3 NOT CALLDATASIZE ADD SLT PUSH2 0x1A0 JUMPI PUSH1 0x5 SLOAD SWAP1 MLOAD PUSH1 0x1 PUSH1 0x1 PUSH1 0xA0 SHL SUB SWAP1 SWAP2 AND DUP2 MSTORE PUSH1 0x20 SWAP1 RETURN JUMPDEST POP POP CALLVALUE PUSH2 0x1A0 JUMPI CALLDATASIZE PUSH1 0x3 NOT ADD SLT PUSH2 0x69B JUMPI PUSH2 0x816 PUSH2 0x802 PUSH2 0xCF1 JUMP JUMPDEST PUSH1 0x24 CALLDATALOAD SWAP1 PUSH2 0x811 DUP3 CALLER DUP4 PUSH2 0x1064 JUMP JUMPDEST PUSH2 0x122D JUMP JUMPDEST DUP1 RETURN JUMPDEST DUP4 CALLVALUE PUSH2 0x69B JUMPI DUP1 PUSH1 0x3 NOT CALLDATASIZE ADD SLT PUSH2 0x69B JUMPI PUSH2 0x832 PUSH2 0xD6B JUMP JUMPDEST PUSH1 0x5 DUP1 SLOAD PUSH1 0x1 PUSH1 0x1 PUSH1 0xA0 SHL SUB NOT DUP2 AND SWAP1 SWAP2 SSTORE DUP2 SWAP1 PUSH1 0x1 PUSH1 0x1 PUSH1 0xA0 SHL SUB AND PUSH32 0x8BE0079C531659141344CD1FD0A4F28419497F9722A3DAAFE3B4186F6B6457E0 DUP3 DUP1 LOG3 DUP1 RETURN JUMPDEST POP POP CALLVALUE PUSH2 0x1A0 JUMPI PUSH1 0x20 CALLDATASIZE PUSH1 0x3 NOT ADD SLT PUSH2 0x1A0 JUMPI PUSH1 0x20 SWAP1 PUSH2 0x8B2 PUSH2 0x897 PUSH2 0xCF1 JUMP JUMPDEST PUSH1 0x1 PUSH1 0x1 PUSH1 0xA0 SHL SUB AND PUSH1 0x0 SWAP1 DUP2 MSTORE PUSH1 0x20 DUP2 SWAP1 MSTORE PUSH1 0x40 SWAP1 KECCAK256 SLOAD SWAP1 JUMP JUMPDEST SWAP1 MLOAD SWAP1 DUP2 MSTORE RETURN JUMPDEST POP POP CALLVALUE PUSH2 0x1A0 JUMPI PUSH1 0x20 CALLDATASIZE PUSH1 0x3 NOT ADD SLT PUSH2 0x1A0 JUMPI PUSH1 0x20 SWAP2 DUP2 SWAP1 PUSH1 0x1 PUSH1 0x1 PUSH1 0xA0 SHL SUB PUSH2 0x8E1 PUSH2 0xCF1 JUMP JUMPDEST AND DUP2 MSTORE PUSH1 0x9 DUP5 MSTORE KECCAK256 SLOAD SWAP1 MLOAD SWAP1 DUP2 MSTORE RETURN JUMPDEST POP POP CALLVALUE PUSH2 0x1A0 JUMPI DUP2 PUSH1 0x3 NOT CALLDATASIZE ADD SLT PUSH2 0x1A0 JUMPI PUSH1 0x20 SWAP1 PUSH1 0xA SLOAD SWAP1 MLOAD SWAP1 DUP2 MSTORE RETURN JUMPDEST POP POP CALLVALUE PUSH2 0x1A0 JUMPI DUP2 PUSH1 0x3 NOT CALLDATASIZE ADD SLT PUSH2 0x1A0 JUMPI PUSH1 0x20 SWAP1 MLOAD PUSH4 0x3C26700 DUP2 MSTORE RETURN JUMPDEST DUP4 SWAP1 CALLVALUE PUSH2 0x1A0 JUMPI PUSH1 0x20 CALLDATASIZE PUSH1 0x3 NOT ADD SLT PUSH2 0x1A0 JUMPI PUSH2 0x816 SWAP1 CALLDATALOAD CALLER PUSH2 0x122D JUMP JUMPDEST SWAP2 SWAP1 POP CALLVALUE PUSH2 0x270 JUMPI DUP1 PUSH1 0x3 NOT CALLDATASIZE ADD SLT PUSH2 0x270 JUMPI PUSH2 0x968 PUSH2 0xCF1 JUMP JUMPDEST SWAP1 PUSH1 0x24 CALLDATALOAD SWAP2 PUSH2 0x975 PUSH2 0xD6B JUMP JUMPDEST PUSH1 0x2 SLOAD SWAP1 PUSH11 0x84595161401484A000000 PUSH2 0x98F DUP6 DUP5 PUSH2 0xDC3 JUMP JUMPDEST GT PUSH2 0xA5B JUMPI PUSH1 0x1 PUSH1 0x1 PUSH1 0xA0 SHL SUB AND SWAP4 DUP5 ISZERO PUSH2 0xA18 JUMPI POP SWAP2 PUSH1 0x20 SWAP2 PUSH2 0x9D4 DUP3 PUSH32 0x3F2C9D57C068687834F0DE942A9BABB9E5ACAB57D516D3480A3C16EE165A4273 SWAP6 PUSH2 0xDC3 JUMP JUMPDEST PUSH1 0x2 SSTORE DUP5 DUP7 MSTORE DUP6 DUP4 MSTORE DUP1 DUP7 KECCAK256 DUP3 DUP2 SLOAD ADD SWAP1 SSTORE DUP5 DUP7 PUSH32 0xDDF252AD1BE2C89B69C2B068FC378DAA952BA7F163C4A11628F55A4DF523B3EF DUP6 DUP5 MLOAD DUP7 DUP2 MSTORE LOG3 MLOAD SWAP1 DUP2 MSTORE LOG2 DUP1 RETURN JUMPDEST PUSH1 0x64 SWAP1 PUSH1 0x20 DUP5 MLOAD SWAP2 PUSH3 0x461BCD PUSH1 0xE5 SHL DUP4 MSTORE DUP3 ADD MSTORE PUSH1 0x1F PUSH1 0x24 DUP3 ADD MSTORE PUSH32 0x45524332303A206D696E7420746F20746865207A65726F206164647265737300 PUSH1 0x44 DUP3 ADD MSTORE REVERT JUMPDEST DUP3 MLOAD PUSH3 0x461BCD PUSH1 0xE5 SHL DUP2 MSTORE PUSH1 0x20 DUP2 DUP8 ADD MSTORE PUSH1 0x12 PUSH1 0x24 DUP3 ADD MSTORE PUSH18 0x45786365656473206D617820737570706C79 PUSH1 0x70 SHL PUSH1 0x44 DUP3 ADD MSTORE PUSH1 0x64 SWAP1 REVERT JUMPDEST POP POP CALLVALUE PUSH2 0x1A0 JUMPI DUP1 PUSH1 0x3 NOT CALLDATASIZE ADD SLT PUSH2 0x1A0 JUMPI PUSH2 0x497 PUSH1 0x20 SWAP3 PUSH2 0xADC PUSH2 0xAB6 PUSH2 0xCF1 JUMP JUMPDEST CALLER DUP4 MSTORE PUSH1 0x1 DUP7 MSTORE DUP5 DUP4 KECCAK256 PUSH1 0x1 PUSH1 0x1 PUSH1 0xA0 SHL SUB DUP3 AND DUP5 MSTORE DUP7 MSTORE SWAP2 DUP5 SWAP1 KECCAK256 SLOAD PUSH1 0x24 CALLDATALOAD SWAP1 PUSH2 0xDC3 JUMP JUMPDEST SWAP1 CALLER PUSH2 0xF62 JUMP JUMPDEST POP POP CALLVALUE PUSH2 0x1A0 JUMPI DUP2 PUSH1 0x3 NOT CALLDATASIZE ADD SLT PUSH2 0x1A0 JUMPI PUSH1 0x20 SWAP1 MLOAD PUSH11 0x84595161401484A000000 DUP2 MSTORE RETURN JUMPDEST POP POP CALLVALUE PUSH2 0x1A0 JUMPI DUP2 PUSH1 0x3 NOT CALLDATASIZE ADD SLT PUSH2 0x1A0 JUMPI PUSH1 0x20 SWAP1 MLOAD PUSH1 0x12 DUP2 MSTORE RETURN JUMPDEST POP POP CALLVALUE PUSH2 0x1A0 JUMPI PUSH1 0x60 CALLDATASIZE PUSH1 0x3 NOT ADD SLT PUSH2 0x1A0 JUMPI PUSH1 0x20 SWAP1 PUSH2 0x497 PUSH2 0xB46 PUSH2 0xCF1 JUMP JUMPDEST PUSH2 0xB4E PUSH2 0xD0C JUMP JUMPDEST PUSH1 0x44 CALLDATALOAD SWAP2 PUSH2 0xB5D DUP4 CALLER DUP4 PUSH2 0x1064 JUMP JUMPDEST PUSH2 0xDE6 JUMP JUMPDEST POP POP CALLVALUE PUSH2 0x1A0 JUMPI DUP2 PUSH1 0x3 NOT CALLDATASIZE ADD SLT PUSH2 0x1A0 JUMPI PUSH1 0x20 SWAP1 PUSH1 0x2 SLOAD SWAP1 MLOAD SWAP1 DUP2 MSTORE RETURN JUMPDEST POP POP CALLVALUE PUSH2 0x1A0 JUMPI PUSH1 0x20 CALLDATASIZE PUSH1 0x3 NOT ADD SLT PUSH2 0x1A0 JUMPI PUSH1 0x20 SWAP2 DUP2 SWAP1 PUSH1 0x1 PUSH1 0x1 PUSH1 0xA0 SHL SUB PUSH2 0xBA9 PUSH2 0xCF1 JUMP JUMPDEST AND DUP2 MSTORE PUSH1 0xB DUP5 MSTORE KECCAK256 SLOAD SWAP1 MLOAD SWAP1 DUP2 MSTORE RETURN JUMPDEST POP POP CALLVALUE PUSH2 0x1A0 JUMPI DUP1 PUSH1 0x3 NOT CALLDATASIZE ADD SLT PUSH2 0x1A0 JUMPI PUSH1 0x20 SWAP1 PUSH2 0x497 PUSH2 0xBD9 PUSH2 0xCF1 JUMP JUMPDEST PUSH1 0x24 CALLDATALOAD SWAP1 CALLER PUSH2 0xF62 JUMP JUMPDEST DUP4 DUP4 CALLVALUE PUSH2 0x1A0 JUMPI DUP2 PUSH1 0x3 NOT CALLDATASIZE ADD SLT PUSH2 0x1A0 JUMPI DUP1 MLOAD SWAP1 DUP3 PUSH1 0x3 SLOAD PUSH1 0x1 DUP2 DUP2 SHR SWAP1 DUP1 DUP4 AND SWAP3 DUP4 ISZERO PUSH2 0xCB3 JUMPI JUMPDEST PUSH1 0x20 SWAP4 DUP5 DUP5 LT DUP2 EQ PUSH2 0x7A0 JUMPI DUP4 DUP9 MSTORE SWAP1 DUP2 ISZERO PUSH2 0x784 JUMPI POP PUSH1 0x1 EQ PUSH2 0xC5D JUMPI POP POP POP DUP3 SWAP1 SUB PUSH1 0x1F ADD PUSH1 0x1F NOT AND DUP3 ADD SWAP3 PUSH8 0xFFFFFFFFFFFFFFFF DUP5 GT DUP4 DUP6 LT OR PUSH2 0x71C JUMPI POP DUP3 SWAP2 DUP3 PUSH2 0x718 SWAP3 MSTORE DUP3 PUSH2 0xD22 JUMP JUMPDEST PUSH1 0x3 DUP8 MSTORE SWAP2 SWAP3 POP DUP6 SWAP2 DUP4 PUSH32 0xC2575A0E9E593C00F959F8C92F12DB2869C3395A3B0502D05E2516446F71F85B JUMPDEST DUP4 DUP6 LT PUSH2 0xC9F JUMPI POP POP POP POP DUP4 ADD ADD DUP6 DUP1 DUP1 PUSH2 0x6E6 JUMP JUMPDEST DUP1 SLOAD DUP9 DUP7 ADD DUP4 ADD MSTORE SWAP4 ADD SWAP3 DUP5 SWAP1 DUP3 ADD PUSH2 0xC89 JUMP JUMPDEST SWAP2 PUSH1 0x7F AND SWAP2 PUSH2 0xC0D JUMP JUMPDEST DUP5 SWAP1 DUP5 CALLVALUE PUSH2 0x270 JUMPI PUSH1 0x20 CALLDATASIZE PUSH1 0x3 NOT ADD SLT PUSH2 0x270 JUMPI PUSH1 0x20 SWAP3 PUSH1 0x1 PUSH1 0x1 PUSH1 0xA0 SHL SUB PUSH2 0xCE4 PUSH2 0xCF1 JUMP JUMPDEST AND DUP2 MSTORE PUSH1 0xC DUP5 MSTORE KECCAK256 SLOAD DUP2 MSTORE RETURN JUMPDEST PUSH1 0x4 CALLDATALOAD SWAP1 PUSH1 0x1 PUSH1 0x1 PUSH1 0xA0 SHL SUB DUP3 AND DUP3 SUB PUSH2 0xD07 JUMPI JUMP JUMPDEST PUSH1 0x0 DUP1 REVERT JUMPDEST PUSH1 0x24 CALLDATALOAD SWAP1 PUSH1 0x1 PUSH1 0x1 PUSH1 0xA0 SHL SUB DUP3 AND DUP3 SUB PUSH2 0xD07 JUMPI JUMP JUMPDEST PUSH1 0x20 DUP1 DUP3 MSTORE DUP3 MLOAD DUP2 DUP4 ADD DUP2 SWAP1 MSTORE SWAP1 SWAP4 SWAP3 PUSH1 0x0 JUMPDEST DUP3 DUP2 LT PUSH2 0xD57 JUMPI POP POP PUSH1 0x40 SWAP3 SWAP4 POP PUSH1 0x0 DUP4 DUP3 DUP5 ADD ADD MSTORE PUSH1 0x1F DUP1 NOT SWAP2 ADD AND ADD ADD SWAP1 JUMP JUMPDEST DUP2 DUP2 ADD DUP7 ADD MLOAD DUP5 DUP3 ADD PUSH1 0x40 ADD MSTORE DUP6 ADD PUSH2 0xD35 JUMP JUMPDEST PUSH1 0x5 SLOAD PUSH1 0x1 PUSH1 0x1 PUSH1 0xA0 SHL SUB AND CALLER SUB PUSH2 0xD7F JUMPI JUMP JUMPDEST PUSH1 0x64 PUSH1 0x40 MLOAD PUSH3 0x461BCD PUSH1 0xE5 SHL DUP2 MSTORE PUSH1 0x20 PUSH1 0x4 DUP3 ADD MSTORE PUSH1 0x20 PUSH1 0x24 DUP3 ADD MSTORE PUSH32 0x4F776E61626C653A2063616C6C6572206973206E6F7420746865206F776E6572 PUSH1 0x44 DUP3 ADD MSTORE REVERT JUMPDEST SWAP2 SWAP1 DUP3 ADD DUP1 SWAP3 GT PUSH2 0xDD0 JUMPI JUMP JUMPDEST PUSH4 0x4E487B71 PUSH1 0xE0 SHL PUSH1 0x0 MSTORE PUSH1 0x11 PUSH1 0x4 MSTORE PUSH1 0x24 PUSH1 0x0 REVERT JUMPDEST SWAP2 PUSH1 0x1 PUSH1 0x1 PUSH1 0xA0 SHL SUB DUP1 DUP5 AND SWAP3 SWAP1 DUP4 ISZERO PUSH2 0xF0F JUMPI DUP2 AND SWAP4 DUP5 ISZERO PUSH2 0xEBE JUMPI PUSH2 0xE0E SWAP2 DUP4 SWAP2 PUSH2 0x10FC JUMP JUMPDEST PUSH1 0x0 DUP3 DUP2 MSTORE DUP1 PUSH1 0x20 MSTORE PUSH1 0x40 DUP2 KECCAK256 SLOAD SWAP2 DUP1 DUP4 LT PUSH2 0xE6A JUMPI PUSH1 0x40 DUP3 DUP3 PUSH32 0xDDF252AD1BE2C89B69C2B068FC378DAA952BA7F163C4A11628F55A4DF523B3EF SWAP6 DUP8 PUSH1 0x20 SWAP7 MSTORE DUP3 DUP7 MSTORE SUB DUP3 DUP3 KECCAK256 SSTORE DUP7 DUP2 MSTORE KECCAK256 DUP2 DUP2 SLOAD ADD SWAP1 SSTORE PUSH1 0x40 MLOAD SWAP1 DUP2 MSTORE LOG3 JUMP JUMPDEST PUSH1 0x40 MLOAD PUSH3 0x461BCD PUSH1 0xE5 SHL DUP2 MSTORE PUSH1 0x20 PUSH1 0x4 DUP3 ADD MSTORE PUSH1 0x26 PUSH1 0x24 DUP3 ADD MSTORE PUSH32 0x45524332303A207472616E7366657220616D6F756E7420657863656564732062 PUSH1 0x44 DUP3 ADD MSTORE PUSH6 0x616C616E6365 PUSH1 0xD0 SHL PUSH1 0x64 DUP3 ADD MSTORE PUSH1 0x84 SWAP1 REVERT JUMPDEST PUSH1 0x40 MLOAD PUSH3 0x461BCD PUSH1 0xE5 SHL DUP2 MSTORE PUSH1 0x20 PUSH1 0x4 DUP3 ADD MSTORE PUSH1 0x23 PUSH1 0x24 DUP3 ADD MSTORE PUSH32 0x45524332303A207472616E7366657220746F20746865207A65726F2061646472 PUSH1 0x44 DUP3 ADD MSTORE PUSH3 0x657373 PUSH1 0xE8 SHL PUSH1 0x64 DUP3 ADD MSTORE PUSH1 0x84 SWAP1 REVERT JUMPDEST PUSH1 0x40 MLOAD PUSH3 0x461BCD PUSH1 0xE5 SHL DUP2 MSTORE PUSH1 0x20 PUSH1 0x4 DUP3 ADD MSTORE PUSH1 0x25 PUSH1 0x24 DUP3 ADD MSTORE PUSH32 0x45524332303A207472616E736665722066726F6D20746865207A65726F206164 PUSH1 0x44 DUP3 ADD MSTORE PUSH5 0x6472657373 PUSH1 0xD8 SHL PUSH1 0x64 DUP3 ADD MSTORE PUSH1 0x84 SWAP1 REVERT JUMPDEST PUSH1 0x1 PUSH1 0x1 PUSH1 0xA0 SHL SUB SWAP1 DUP2 AND SWAP2 DUP3 ISZERO PUSH2 0x1013 JUMPI AND SWAP2 DUP3 ISZERO PUSH2 0xFC3 JUMPI PUSH1 0x20 PUSH32 0x8C5BE1E5EBEC7D5BD14F71427D1E84F3DD0314C0F7B2291E5B200AC8C7C3B925 SWAP2 DUP4 PUSH1 0x0 MSTORE PUSH1 0x1 DUP3 MSTORE PUSH1 0x40 PUSH1 0x0 KECCAK256 DUP6 PUSH1 0x0 MSTORE DUP3 MSTORE DUP1 PUSH1 0x40 PUSH1 0x0 KECCAK256 SSTORE PUSH1 0x40 MLOAD SWAP1 DUP2 MSTORE LOG3 JUMP JUMPDEST PUSH1 0x40 MLOAD PUSH3 0x461BCD PUSH1 0xE5 SHL DUP2 MSTORE PUSH1 0x20 PUSH1 0x4 DUP3 ADD MSTORE PUSH1 0x22 PUSH1 0x24 DUP3 ADD MSTORE PUSH32 0x45524332303A20617070726F766520746F20746865207A65726F206164647265 PUSH1 0x44 DUP3 ADD MSTORE PUSH2 0x7373 PUSH1 0xF0 SHL PUSH1 0x64 DUP3 ADD MSTORE PUSH1 0x84 SWAP1 REVERT JUMPDEST PUSH1 0x40 MLOAD PUSH3 0x461BCD PUSH1 0xE5 SHL DUP2 MSTORE PUSH1 0x20 PUSH1 0x4 DUP3 ADD MSTORE PUSH1 0x24 DUP1 DUP3 ADD MSTORE PUSH32 0x45524332303A20617070726F76652066726F6D20746865207A65726F20616464 PUSH1 0x44 DUP3 ADD MSTORE PUSH4 0x72657373 PUSH1 0xE0 SHL PUSH1 0x64 DUP3 ADD MSTORE PUSH1 0x84 SWAP1 REVERT JUMPDEST SWAP1 PUSH1 0x1 DUP1 PUSH1 0xA0 SHL SUB DUP1 DUP4 AND PUSH1 0x0 MSTORE PUSH1 0x1 PUSH1 0x20 MSTORE PUSH1 0x40 PUSH1 0x0 KECCAK256 SWAP1 DUP3 AND PUSH1 0x0 MSTORE PUSH1 0x20 MSTORE PUSH1 0x40 PUSH1 0x0 KECCAK256 SLOAD SWAP3 PUSH1 0x0 NOT DUP5 SUB PUSH2 0x109C JUMPI JUMPDEST POP POP POP POP JUMP JUMPDEST DUP1 DUP5 LT PUSH2 0x10B7 JUMPI PUSH2 0x10AE SWAP4 SUB SWAP2 PUSH2 0xF62 JUMP JUMPDEST CODESIZE DUP1 DUP1 DUP1 PUSH2 0x1096 JUMP JUMPDEST PUSH1 0x40 MLOAD PUSH3 0x461BCD PUSH1 0xE5 SHL DUP2 MSTORE PUSH1 0x20 PUSH1 0x4 DUP3 ADD MSTORE PUSH1 0x1D PUSH1 0x24 DUP3 ADD MSTORE PUSH32 0x45524332303A20696E73756666696369656E7420616C6C6F77616E6365000000 PUSH1 0x44 DUP3 ADD MSTORE PUSH1 0x64 SWAP1 REVERT JUMPDEST PUSH1 0x1 PUSH1 0x1 PUSH1 0xA0 SHL SUB SWAP2 SWAP1 DUP3 AND ISZERO PUSH2 0x1189 JUMPI DUP2 AND SWAP1 DUP2 ISZERO PUSH2 0x1189 JUMPI PUSH1 0x5 SLOAD AND CALLER SUB PUSH2 0x1124 JUMPI POP POP JUMP JUMPDEST PUSH1 0x0 MSTORE PUSH1 0x9 PUSH1 0x20 MSTORE PUSH1 0x40 PUSH1 0x0 KECCAK256 SLOAD SWAP1 DUP2 ISZERO PUSH2 0x117F JUMPI JUMPDEST GT PUSH2 0x1141 JUMPI JUMP JUMPDEST PUSH1 0x40 MLOAD PUSH3 0x461BCD PUSH1 0xE5 SHL DUP2 MSTORE PUSH1 0x20 PUSH1 0x4 DUP3 ADD MSTORE PUSH1 0x16 PUSH1 0x24 DUP3 ADD MSTORE PUSH22 0x115E18D959591CC81D1C985B9CD9995C881B1A5B5A5D PUSH1 0x52 SHL PUSH1 0x44 DUP3 ADD MSTORE PUSH1 0x64 SWAP1 REVERT JUMPDEST PUSH1 0xA SLOAD SWAP2 POP PUSH2 0x113A JUMP JUMPDEST POP POP POP JUMP JUMPDEST SWAP2 SWAP1 DUP3 SUB SWAP2 DUP3 GT PUSH2 0xDD0 JUMPI JUMP JUMPDEST DUP2 DUP2 MUL SWAP3 SWAP2 DUP2 ISZERO SWAP2 DUP5 DIV EQ OR ISZERO PUSH2 0xDD0 JUMPI JUMP JUMPDEST PUSH1 0x1 PUSH1 0x1 PUSH1 0xA0 SHL SUB AND PUSH1 0x0 SWAP1 DUP2 MSTORE PUSH1 0xB PUSH1 0x20 MSTORE PUSH1 0x40 DUP2 KECCAK256 SLOAD DUP1 ISZERO PUSH2 0x1224 JUMPI PUSH1 0xC PUSH1 0x20 MSTORE PUSH1 0x40 DUP3 KECCAK256 SLOAD SWAP3 PUSH1 0xD PUSH1 0x20 MSTORE PUSH1 0x40 DUP4 KECCAK256 SLOAD SWAP3 SWAP2 DUP4 TIMESTAMP LT ISZERO PUSH2 0x11F2 JUMPI JUMPDEST SWAP4 SWAP3 SWAP2 SWAP1 JUMP JUMPDEST SWAP2 POP PUSH2 0x11FE DUP5 TIMESTAMP PUSH2 0x118E JUMP JUMPDEST PUSH4 0x3C26700 SWAP1 DUP2 DUP2 LT PUSH2 0x1213 JUMPI POP POP DUP2 PUSH2 0x11EC JUMP JUMPDEST PUSH2 0x121D SWAP1 DUP5 PUSH2 0x119B JUMP JUMPDEST DIV SWAP2 PUSH2 0x11EC JUMP JUMPDEST POP SWAP1 DUP2 DUP1 SWAP2 DUP2 SWAP1 JUMP JUMPDEST PUSH1 0x1 PUSH1 0x1 PUSH1 0xA0 SHL SUB AND DUP1 ISZERO PUSH2 0x12E5 JUMPI PUSH1 0x0 SWAP2 DUP2 DUP4 MSTORE DUP3 PUSH1 0x20 MSTORE PUSH1 0x40 DUP4 KECCAK256 SLOAD DUP2 DUP2 LT PUSH2 0x1295 JUMPI DUP2 PUSH32 0xDDF252AD1BE2C89B69C2B068FC378DAA952BA7F163C4A11628F55A4DF523B3EF SWAP3 PUSH1 0x20 SWAP3 DUP6 DUP8 MSTORE DUP7 DUP5 MSTORE SUB PUSH1 0x40 DUP7 KECCAK256 SSTORE DUP1 PUSH1 0x2 SLOAD SUB PUSH1 0x2 SSTORE PUSH1 0x40 MLOAD SWAP1 DUP2 MSTORE LOG3 JUMP JUMPDEST PUSH1 0x40 MLOAD PUSH3 0x461BCD PUSH1 0xE5 SHL DUP2 MSTORE PUSH1 0x20 PUSH1 0x4 DUP3 ADD MSTORE PUSH1 0x22 PUSH1 0x24 DUP3 ADD MSTORE PUSH32 0x45524332303A206275726E20616D6F756E7420657863656564732062616C616E PUSH1 0x44 DUP3 ADD MSTORE PUSH2 0x6365 PUSH1 0xF0 SHL PUSH1 0x64 DUP3 ADD MSTORE PUSH1 0x84 SWAP1 REVERT JUMPDEST PUSH1 0x40 MLOAD PUSH3 0x461BCD PUSH1 0xE5 SHL DUP2 MSTORE PUSH1 0x20 PUSH1 0x4 DUP3 ADD MSTORE PUSH1 0x21 PUSH1 0x24 DUP3 ADD MSTORE PUSH32 0x45524332303A206275726E2066726F6D20746865207A65726F20616464726573 PUSH1 0x44 DUP3 ADD MSTORE PUSH1 0x73 PUSH1 0xF8 SHL PUSH1 0x64 DUP3 ADD MSTORE PUSH1 0x84 SWAP1 REVERT INVALID LOG2 PUSH5 0x6970667358 0x22 SLT KECCAK256 0xE4 0xB5 0xD7 MSTORE8 0xE8 0xAF 0x4E AND 0xF 0xD9 KECCAK256 SWAP9 CHAINID SWAP2 0xD6 PUSH9 0x7B8069AF4E76944BDB 0x2B 0xC6 LT SWAP14 0xDC SHR COINBASE PUSH5 0x736F6C6343 STOP ADDMOD SGT STOP CALLER 0xA6 PUSH13 0xC928B5EDB82AF9BD4992295415 GAS 0xB7 0xB0 SWAP5 0x26 SWAP5 0xBE LOG4 0xCE PREVRANDAO PUSH7 0x1D9A8736C688F6 MSTORE 0x22 0x23 SGT 0xE2 DUP5 MSIZE MSTORE DUP14 SWAP3 SIGNEXTEND PUSH6 0x115C16C04F3E 0xFC DUP3 0xAA 0xED 0xC9 PUSH28 0xE59F3F377C0D3F000000000000000000000000000000000000000000 "},"methodIdentifiers":{"MAX_SUPPLY()":"32cb6b0c","VESTING_DURATION()":"4cfc4d30","allowance(address,address)":"dd62ed3e","approve(address,uint256)":"095ea7b3","balanceOf(address)":"70a08231","burn(uint256)":"42966c68","burnFrom(address,uint256)":"79cc6790","claimVested()":"d01c44cd","decimals()":"313ce567","decreaseAllowance(address,uint256)":"a457c2d7","defaultTransferLimit()":"5ddbe56d","getVestingInfo(address)":"fb897ce4","increaseAllowance(address,uint256)":"39509351","mint(address,uint256)":"40c10f19","name()":"06fdde03","owner()":"8da5cb5b","renounceOwnership()":"715018a6","setDefaultTransferLimit(uint256)":"eb9beadc","setTransferLimit(address,uint256)":"f0b6e33f","startVesting(address,uint256)":"a6435fff","symbol()":"95d89b41","totalSupply()":"18160ddd","transfer(address,uint256)":"a9059cbb","transferFrom(address,address,uint256)":"23b872dd","transferLimits(address)":"69efe471","transferOwnership(address)":"f2fde38b","vestingAmounts(address)":"0f75327f","vestingCliff(address)":"d5a2e2f6","vestingStart(address)":"032bbf4f"}}}}}