{
  "_format": "hh-sol-artifact-1",
  "contractName": "FanChainToken",
  "sourceName": "contracts/FanChainToken.sol",
  "abi": [
    {
      "inputs": [],
      "stateMutability": "nonpayable",
      "type": "constructor"
    },
    {
      "anonymous": false,
      "inputs": [
        {
          "indexed": true,
          "internalType": "address",
          "name": "owner",
          "type": "address"
        },
        {
          "indexed": true,
          "internalType": "address",
          "name": "spender",
          "type": "address"
        },
        {
          "indexed": false,
          "internalType": "uint256",
          "name": "value",
          "type": "uint256"
        }
      ],
      "name": "Approval",
      "type": "event"
    },
    {
      "anonymous": false,
      "inputs": [
        {
          "indexed": true,
          "internalType": "address",
          "name": "previousOwner",
          "type": "address"
        },
        {
          "indexed": true,
          "internalType": "address",
          "name": "newOwner",
          "type": "address"
        }
      ],
      "name": "OwnershipTransferred",
      "type": "event"
    },
    {
      "anonymous": false,
      "inputs": [
        {
          "indexed": true,
          "internalType": "address",
          "name": "to",
          "type": "address"
        },
        {
          "indexed": false,
          "internalType": "uint256",
          "name": "amount",
          "type": "uint256"
        }
      ],
      "name": "TokensMinted",
      "type": "event"
    },
    {
      "anonymous": false,
      "inputs": [
        {
          "indexed": true,
          "internalType": "address",
          "name": "from",
          "type": "address"
        },
        {
          "indexed": true,
          "internalType": "address",
          "name": "to",
          "type": "address"
        },
        {
          "indexed": false,
          "internalType": "uint256",
          "name": "value",
          "type": "uint256"
        }
      ],
      "name": "Transfer",
      "type": "event"
    },
    {
      "anonymous": false,
      "inputs": [
        {
          "indexed": true,
          "internalType": "address",
          "name": "account",
          "type": "address"
        },
        {
          "indexed": false,
          "internalType": "uint256",
          "name": "newLimit",
          "type": "uint256"
        }
      ],
      "name": "TransferLimitChanged",
      "type": "event"
    },
    {
      "anonymous": false,
      "inputs": [
        {
          "indexed": true,
          "internalType": "address",
          "name": "beneficiary",
          "type": "address"
        },
        {
          "indexed": false,
          "internalType": "uint256",
          "name": "amount",
          "type": "uint256"
        }
      ],
      "name": "VestingStarted",
      "type": "event"
    },
    {
      "inputs": [],
      "name": "MAX_SUPPLY",
      "outputs": [
        {
          "internalType": "uint256",
          "name": "",
          "type": "uint256"
        }
      ],
      "stateMutability": "view",
      "type": "function"
    },
    {
      "inputs": [],
      "name": "VESTING_DURATION",
      "outputs": [
        {
          "internalType": "uint256",
          "name": "",
          "type": "uint256"
        }
      ],
      "stateMutability": "view",
      "type": "function"
    },
    {
      "inputs": [
        {
          "internalType": "address",
          "name": "owner",
          "type": "address"
        },
        {
          "internalType": "address",
          "name": "spender",
          "type": "address"
        }
      ],
      "name": "allowance",
      "outputs": [
        {
          "internalType": "uint256",
          "name": "",
          "type": "uint256"
        }
      ],
      "stateMutability": "view",
      "type": "function"
    },
    {
      "inputs": [
        {
          "internalType": "address",
          "name": "spender",
          "type": "address"
        },
        {
          "internalType": "uint256",
          "name": "amount",
          "type": "uint256"
        }
      ],
      "name": "approve",
      "outputs": [
        {
          "internalType": "bool",
          "name": "",
          "type": "bool"
        }
      ],
      "stateMutability": "nonpayable",
      "type": "function"
    },
    {
      "inputs": [
        {
          "internalType": "address",
          "name": "account",
          "type": "address"
        }
      ],
      "name": "balanceOf",
      "outputs": [
        {
          "internalType": "uint256",
          "name": "",
          "type": "uint256"
        }
      ],
      "stateMutability": "view",
      "type": "function"
    },
    {
      "inputs": [
        {
          "internalType": "uint256",
          "name": "amount",
          "type": "uint256"
        }
      ],
      "name": "burn",
      "outputs": [],
      "stateMutability": "nonpayable",
      "type": "function"
    },
    {
      "inputs": [
        {
          "internalType": "address",
          "name": "from",
          "type": "address"
        },
        {
          "internalType": "uint256",
          "name": "amount",
          "type": "uint256"
        }
      ],
      "name": "burnFrom",
      "outputs": [],
      "stateMutability": "nonpayable",
      "type": "function"
    },
    {
      "inputs": [],
      "name": "claimVested",
      "outputs": [],
      "stateMutability": "nonpayable",
      "type": "function"
    },
    {
      "inputs": [],
      "name": "decimals",
      "outputs": [
        {
          "internalType": "uint8",
          "name": "",
          "type": "uint8"
        }
      ],
      "stateMutability": "view",
      "type": "function"
    },
    {
      "inputs": [
        {
          "internalType": "address",
          "name": "spender",
          "type": "address"
        },
        {
          "internalType": "uint256",
          "name": "subtractedValue",
          "type": "uint256"
        }
      ],
      "name": "decreaseAllowance",
      "outputs": [
        {
          "internalType": "bool",
          "name": "",
          "type": "bool"
        }
      ],
      "stateMutability": "nonpayable",
      "type": "function"
    },
    {
      "inputs": [],
      "name": "defaultTransferLimit",
      "outputs": [
        {
          "internalType": "uint256",
          "name": "",
          "type": "uint256"
        }
      ],
      "stateMutability": "view",
      "type": "function"
    },
    {
      "inputs": [
        {
          "internalType": "address",
          "name": "beneficiary",
          "type": "address"
        }
      ],
      "name": "getVestingInfo",
      "outputs": [
        {
          "internalType": "uint256",
          "name": "totalAmount",
          "type": "uint256"
        },
        {
          "internalType": "uint256",
          "name": "startTime",
          "type": "uint256"
        },
        {
          "internalType": "uint256",
          "name": "cliffTime",
          "type": "uint256"
        },
        {
          "internalType": "uint256",
          "name": "vestedAmount",
          "type": "uint256"
        }
      ],
      "stateMutability": "view",
      "type": "function"
    },
    {
      "inputs": [
        {
          "internalType": "address",
          "name": "spender",
          "type": "address"
        },
        {
          "internalType": "uint256",
          "name": "addedValue",
          "type": "uint256"
        }
      ],
      "name": "increaseAllowance",
      "outputs": [
        {
          "internalType": "bool",
          "name": "",
          "type": "bool"
        }
      ],
      "stateMutability": "nonpayable",
      "type": "function"
    },
    {
      "inputs": [
        {
          "internalType": "address",
          "name": "to",
          "type": "address"
        },
        {
          "internalType": "uint256",
          "name": "amount",
          "type": "uint256"
        }
      ],
      "name": "mint",
      "outputs": [],
      "stateMutability": "nonpayable",
      "type": "function"
    },
    {
      "inputs": [],
      "name": "name",
      "outputs": [
        {
          "internalType": "string",
          "name": "",
          "type": "string"
        }
      ],
      "stateMutability": "view",
      "type": "function"
    },
    {
      "inputs": [],
      "name": "owner",
      "outputs": [
        {
          "internalType": "address",
          "name": "",
          "type": "address"
        }
      ],
      "stateMutability": "view",
      "type": "function"
    },
    {
      "inputs": [],
      "name": "renounceOwnership",
      "outputs": [],
      "stateMutability": "nonpayable",
      "type": "function"
    },
    {
      "inputs": [
        {
          "internalType": "uint256",
          "name": "limit",
          "type": "uint256"
        }
      ],
      "name": "setDefaultTransferLimit",
      "outputs": [],
      "stateMutability": "nonpayable",
      "type": "function"
    },
    {
      "inputs": [
        {
          "internalType": "address",
          "name": "account",
          "type": "address"
        },
        {
          "internalType": "uint256",
          "name": "limit",
          "type": "uint256"
        }
      ],
      "name": "setTransferLimit",
      "outputs": [],
      "stateMutability": "nonpayable",
      "type": "function"
    },
    {
      "inputs": [
        {
          "internalType": "address",
          "name": "beneficiary",
          "type": "address"
        },
        {
          "internalType": "uint256",
          "name": "amount",
          "type": "uint256"
        }
      ],
      "name": "startVesting",
      "outputs": [],
      "stateMutability": "nonpayable",
      "type": "function"
    },
    {
      "inputs": [],
      "name": "symbol",
      "outputs": [
        {
          "internalType": "string",
          "name": "",
          "type": "string"
        }
      ],
      "stateMutability": "view",
      "type": "function"
    },
    {
      "inputs": [],
      "name": "totalSupply",
      "outputs": [
        {
          "internalType": "uint256",
          "name": "",
          "type": "uint256"
        }
      ],
      "stateMutability": "view",
      "type": "function"
    },
    {
      "inputs": [
        {
          "internalType": "address",
          "name": "to",
          "type": "address"
        },
        {
          "internalType": "uint256",
          "name": "amount",
          "type": "uint256"
        }
      ],
      "name": "transfer",
      "outputs": [
        {
          "internalType": "bool",
          "name": "",
          "type": "bool"
        }
      ],
      "stateMutability": "nonpayable",
      "type": "function"
    },
    {
      "inputs": [
        {
          "internalType": "address",
          "name": "from",
          "type": "address"
        },
        {
          "internalType": "address",
          "name": "to",
          "type": "address"
        },
        {
          "internalType": "uint256",
          "name": "amount",
          "type": "uint256"
        }
      ],
      "name": "transferFrom",
      "outputs": [
        {
          "internalType": "bool",
          "name": "",
          "type": "bool"
        }
      ],
      "stateMutability": "nonpayable",
      "type": "function"
    },
    {
      "inputs": [
        {
          "internalType": "address",
          "name": "",
          "type": "address"
        }
      ],
      "name": "transferLimits",
      "outputs": [
        {
          "internalType": "uint256",
          "name": "",
          "type": "uint256"
        }
      ],
      "stateMutability": "view",
      "type": "function"
    },
    {
      "inputs": [
        {
          "internalType": "address",
          "name": "newOwner",
          "type": "address"
        }
      ],
      "name": "transferOwnership",
      "outputs": [],
      "stateMutability": "nonpayable",
      "type": "function"
    },
    {
      "inputs": [
        {
          "internalType": "address",
          "name": "",
          "type": "address"
        }
      ],
      "name": "vestingAmounts",
      "outputs": [
        {
          "internalType": "uint256",
          "name": "",
          "type": "uint256"
        }
      ],
      "stateMutability": "view",
      "type": "function"
    },
    {
      "inputs": [
        {
          "internalType": "address",
          "name": "",
          "type": "address"
        }
      ],
      "name": "vestingCliff",
      "outputs": [
        {
          "internalType": "uint256",
          "name": "",
          "type": "uint256"
        }
      ],
      "stateMutability": "view",
      "type": "function"
    },
    {
      "inputs": [
        {
          "internalType": "address",
          "name": "",
          "type": "address"
        }
      ],
      "name": "vestingStart",
      "outputs": [
        {
          "internalType": "uint256",
          "name": "",
          "type": "uint256"
        }
      ],
      "stateMutability": "view",
      "type": "function"
    }
  ],
  "bytecode": "0x60c060405260126080908152712829a6102330b721b430b4b7102a37b5b2b760711b60a052600690620000339082620004c8565b506040805180820190915260048152632829a62360e11b60208201526007906200005e9082620004c8565b5069d3c21bcecceda100000060085569152d02c7e14af6800000600a553480156200008857600080fd5b506006805462000098906200043a565b80601f0160208091040260200160405190810160405280929190818152602001828054620000c6906200043a565b8015620001175780601f10620000eb5761010080835404028352916020019162000117565b820191906000526020600020905b815481529060010190602001808311620000f957829003601f168201915b5050505050600780546200012b906200043a565b80601f016020809104026020016040519081016040528092919081815260200182805462000159906200043a565b8015620001aa5780601f106200017e57610100808354040283529160200191620001aa565b820191906000526020600020905b8154815290600101906020018083116200018c57829003601f168201915b50505050508160039081620001c09190620004c8565b506004620001cf8282620004c8565b505050620001ec620001e66200023e60201b60201c565b62000242565b62000200336008546200029460201b60201c565b60085460405190815233907f3f2c9d57c068687834f0de942a9babb9e5acab57d516d3480a3c16ee165a42739060200160405180910390a2620005bc565b3390565b600580546001600160a01b038381166001600160a01b0319831681179093556040519116919082907f8be0079c531659141344cd1fd0a4f28419497f9722a3daafe3b4186f6b6457e090600090a35050565b6001600160a01b038216620002f05760405162461bcd60e51b815260206004820152601f60248201527f45524332303a206d696e7420746f20746865207a65726f20616464726573730060448201526064015b60405180910390fd5b620002fe6000838362000369565b806002600082825462000312919062000594565b90915550506001600160a01b038216600081815260208181526040808320805486019055518481527fddf252ad1be2c89b69c2b068fc378daa952ba7f163c4a11628f55a4df523b3ef910160405180910390a35050565b6001600160a01b0383166200037d57505050565b6001600160a01b0382166200039157505050565b6005546001600160a01b031633146200041f576001600160a01b03821660009081526009602052604081205490819003620003cb5750600a545b808211156200041d5760405162461bcd60e51b815260206004820152601660248201527f45786365656473207472616e73666572206c696d6974000000000000000000006044820152606401620002e7565b505b505050565b634e487b7160e01b600052604160045260246000fd5b600181811c908216806200044f57607f821691505b6020821081036200047057634e487b7160e01b600052602260045260246000fd5b50919050565b601f8211156200041f57600081815260208120601f850160051c810160208610156200049f5750805b601f850160051c820191505b81811015620004c057828155600101620004ab565b505050505050565b81516001600160401b03811115620004e457620004e462000424565b620004fc81620004f584546200043a565b8462000476565b602080601f8311600181146200053457600084156200051b5750858301515b600019600386901b1c1916600185901b178555620004c0565b600085815260208120601f198616915b82811015620005655788860151825594840194600190910190840162000544565b5085821015620005845787850151600019600388901b60f8161c191681555b5050505050600190811b01905550565b80820180821115620005b657634e487b7160e01b600052601160045260246000fd5b92915050565b6113c980620005cc6000396000f3fe608060405234801561001057600080fd5b50600436106101cf5760003560e01c806370a0823111610104578063a9059cbb116100a2578063eb9beadc11610071578063eb9beadc146103e5578063f0b6e33f146103f8578063f2fde38b1461040b578063fb897ce41461041e57600080fd5b8063a9059cbb14610397578063d01c44cd146103aa578063d5a2e2f6146103b2578063dd62ed3e146103d257600080fd5b80638da5cb5b116100de5780638da5cb5b1461034e57806395d89b4114610369578063a457c2d714610371578063a6435fff1461038457600080fd5b806370a082311461030a578063715018a61461033357806379cc67901461033b57600080fd5b806332cb6b0c1161017157806342966c681161014b57806342966c68146102c35780634cfc4d30146102d65780635ddbe56d146102e157806369efe471146102ea57600080fd5b806332cb6b0c14610289578063395093511461029b57806340c10f19146102ae57600080fd5b80630f75327f116101ad5780630f75327f1461023f57806318160ddd1461025f57806323b872dd14610267578063313ce5671461027a57600080fd5b8063032bbf4f146101d457806306fdde0314610207578063095ea7b31461021c575b600080fd5b6101f46101e23660046111c2565b600c6020526000908152604090205481565b6040519081526020015b60405180910390f35b61020f610451565b6040516101fe91906111e4565b61022f61022a366004611232565b6104e3565b60405190151581526020016101fe565b6101f461024d3660046111c2565b600b6020526000908152604090205481565b6002546101f4565b61022f61027536600461125c565b6104fd565b604051601281526020016101fe565b6101f46a084595161401484a00000081565b61022f6102a9366004611232565b610521565b6102c16102bc366004611232565b610543565b005b6102c16102d1366004611298565b610604565b6101f46303c2670081565b6101f4600a5481565b6101f46102f83660046111c2565b60096020526000908152604090205481565b6101f46103183660046111c2565b6001600160a01b031660009081526020819052604090205490565b6102c1610611565b6102c1610349366004611232565b610625565b6005546040516001600160a01b0390911681526020016101fe565b61020f61063e565b61022f61037f366004611232565b61064d565b6102c1610392366004611232565b6106c8565b61022f6103a5366004611232565b61082c565b6102c161083a565b6101f46103c03660046111c2565b600d6020526000908152604090205481565b6101f46103e03660046112b1565b610944565b6102c16103f3366004611298565b61096f565b6102c1610406366004611232565b61097c565b6102c16104193660046111c2565b6109d1565b61043161042c3660046111c2565b610a47565b6040805194855260208501939093529183015260608201526080016101fe565b606060038054610460906112e4565b80601f016020809104026020016040519081016040528092919081815260200182805461048c906112e4565b80156104d95780601f106104ae576101008083540402835291602001916104d9565b820191906000526020600020905b8154815290600101906020018083116104bc57829003601f168201915b5050505050905090565b6000336104f1818585610aff565b60019150505b92915050565b60003361050b858285610c24565b610516858585610c9e565b506001949350505050565b6000336104f18185856105348383610944565b61053e9190611334565b610aff565b61054b610e4d565b6a084595161401484a0000008161056160025490565b61056b9190611334565b11156105b35760405162461bcd60e51b815260206004820152601260248201527145786365656473206d617820737570706c7960701b60448201526064015b60405180910390fd5b6105bd8282610ea7565b816001600160a01b03167f3f2c9d57c068687834f0de942a9babb9e5acab57d516d3480a3c16ee165a4273826040516105f891815260200190565b60405180910390a25050565b61060e3382610f72565b50565b610619610e4d565b61062360006110ad565b565b610630823383610c24565b61063a8282610f72565b5050565b606060048054610460906112e4565b6000338161065b8286610944565b9050838110156106bb5760405162461bcd60e51b815260206004820152602560248201527f45524332303a2064656372656173656420616c6c6f77616e63652062656c6f77604482015264207a65726f60d81b60648201526084016105aa565b6105168286868403610aff565b6106d0610e4d565b6001600160a01b0382166000908152600b60205260409020541561072f5760405162461bcd60e51b815260206004820152601660248201527556657374696e6720616c72656164792061637469766560501b60448201526064016105aa565b806107456103186005546001600160a01b031690565b101561078a5760405162461bcd60e51b8152602060048201526014602482015273496e73756666696369656e742062616c616e636560601b60448201526064016105aa565b6107a661079f6005546001600160a01b031690565b3083610c9e565b6001600160a01b0382166000908152600b60209081526040808320849055600c909152902042908190556107dd9062ed4e00611334565b6001600160a01b0383166000818152600d6020526040908190209290925590517f7b97dcefcb9fdae22321c09ae87ed7865e06d2477325d246f8f1ff039a701a3d906105f89084815260200190565b6000336104f1818585610c9e565b336000908152600b6020526040902054806108845760405162461bcd60e51b815260206004820152600a6024820152694e6f2076657374696e6760b01b60448201526064016105aa565b336000908152600c6020908152604080832054600d90925290912054428111156108e45760405162461bcd60e51b815260206004820152601160248201527010db1a5999881b9bdd081c995858da1959607a1b60448201526064016105aa565b60006108f08342611347565b905060006303c267008210610906575083610922565b6303c26700610915838761135a565b61091f9190611371565b90505b61092d303383610c9e565b5050336000908152600b6020526040812055505050565b6001600160a01b03918216600090815260016020908152604080832093909416825291909152205490565b610977610e4d565b600a55565b610984610e4d565b6001600160a01b03821660008181526009602052604090819020839055517f196a06af490acfe9f9bcbbf8be5a5abad4e1bc733fb238fa9c50a6f00689e1b5906105f89084815260200190565b6109d9610e4d565b6001600160a01b038116610a3e5760405162461bcd60e51b815260206004820152602660248201527f4f776e61626c653a206e6577206f776e657220697320746865207a65726f206160448201526564647265737360d01b60648201526084016105aa565b61060e816110ad565b6001600160a01b0381166000908152600b6020526040812054819081908190808203610a8157600080600080945094509450945050610af8565b6001600160a01b0386166000908152600c6020908152604080832054600d9092528220549091428211610aed576000610aba8442611347565b90506303c267008110610acf57849150610aeb565b6303c26700610ade828761135a565b610ae89190611371565b91505b505b929650909450925090505b9193509193565b6001600160a01b038316610b615760405162461bcd60e51b8152602060048201526024808201527f45524332303a20617070726f76652066726f6d20746865207a65726f206164646044820152637265737360e01b60648201526084016105aa565b6001600160a01b038216610bc25760405162461bcd60e51b815260206004820152602260248201527f45524332303a20617070726f766520746f20746865207a65726f206164647265604482015261737360f01b60648201526084016105aa565b6001600160a01b0383811660008181526001602090815260408083209487168084529482529182902085905590518481527f8c5be1e5ebec7d5bd14f71427d1e84f3dd0314c0f7b2291e5b200ac8c7c3b92591015b60405180910390a3505050565b6000610c308484610944565b90506000198114610c985781811015610c8b5760405162461bcd60e51b815260206004820152601d60248201527f45524332303a20696e73756666696369656e7420616c6c6f77616e636500000060448201526064016105aa565b610c988484848403610aff565b50505050565b6001600160a01b038316610d025760405162461bcd60e51b815260206004820152602560248201527f45524332303a207472616e736665722066726f6d20746865207a65726f206164604482015264647265737360d81b60648201526084016105aa565b6001600160a01b038216610d645760405162461bcd60e51b815260206004820152602360248201527f45524332303a207472616e7366657220746f20746865207a65726f206164647260448201526265737360e81b60648201526084016105aa565b610d6f8383836110ff565b6001600160a01b03831660009081526020819052604090205481811015610de75760405162461bcd60e51b815260206004820152602660248201527f45524332303a207472616e7366657220616d6f756e7420657863656564732062604482015265616c616e636560d01b60648201526084016105aa565b6001600160a01b03848116600081815260208181526040808320878703905593871680835291849020805487019055925185815290927fddf252ad1be2c89b69c2b068fc378daa952ba7f163c4a11628f55a4df523b3ef910160405180910390a3610c98565b6005546001600160a01b031633146106235760405162461bcd60e51b815260206004820181905260248201527f4f776e61626c653a2063616c6c6572206973206e6f7420746865206f776e657260448201526064016105aa565b6001600160a01b038216610efd5760405162461bcd60e51b815260206004820152601f60248201527f45524332303a206d696e7420746f20746865207a65726f20616464726573730060448201526064016105aa565b610f09600083836110ff565b8060026000828254610f1b9190611334565b90915550506001600160a01b038216600081815260208181526040808320805486019055518481527fddf252ad1be2c89b69c2b068fc378daa952ba7f163c4a11628f55a4df523b3ef910160405180910390a35050565b6001600160a01b038216610fd25760405162461bcd60e51b815260206004820152602160248201527f45524332303a206275726e2066726f6d20746865207a65726f206164647265736044820152607360f81b60648201526084016105aa565b610fde826000836110ff565b6001600160a01b038216600090815260208190526040902054818110156110525760405162461bcd60e51b815260206004820152602260248201527f45524332303a206275726e20616d6f756e7420657863656564732062616c616e604482015261636560f01b60648201526084016105aa565b6001600160a01b0383166000818152602081815260408083208686039055600280548790039055518581529192917fddf252ad1be2c89b69c2b068fc378daa952ba7f163c4a11628f55a4df523b3ef9101610c17565b505050565b600580546001600160a01b038381166001600160a01b0319831681179093556040519116919082907f8be0079c531659141344cd1fd0a4f28419497f9722a3daafe3b4186f6b6457e090600090a35050565b6001600160a01b03831661111257505050565b6001600160a01b03821661112557505050565b6005546001600160a01b031633146110a8576001600160a01b0382166000908152600960205260408120549081900361115d5750600a545b80821115610c985760405162461bcd60e51b8152602060048201526016602482015275115e18d959591cc81d1c985b9cd9995c881b1a5b5a5d60521b60448201526064016105aa565b80356001600160a01b03811681146111bd57600080fd5b919050565b6000602082840312156111d457600080fd5b6111dd826111a6565b9392505050565b600060208083528351808285015260005b81811015611211578581018301518582016040015282016111f5565b506000604082860101526040601f19601f8301168501019250505092915050565b6000806040838503121561124557600080fd5b61124e836111a6565b946020939093013593505050565b60008060006060848603121561127157600080fd5b61127a846111a6565b9250611288602085016111a6565b9150604084013590509250925092565b6000602082840312156112aa57600080fd5b5035919050565b600080604083850312156112c457600080fd5b6112cd836111a6565b91506112db602084016111a6565b90509250929050565b600181811c908216806112f857607f821691505b60208210810361131857634e487b7160e01b600052602260045260246000fd5b50919050565b634e487b7160e01b600052601160045260246000fd5b808201808211156104f7576104f761131e565b818103818111156104f7576104f761131e565b80820281158282048414176104f7576104f761131e565b60008261138e57634e487b7160e01b600052601260045260246000fd5b50049056fea2646970667358221220f217bf1e7643cb3050422457f78afb34f99f79de2a8ec1045558f49f71a9028764736f6c63430008130033",
  "linkReferences": {},
  "deployedLinkReferences": {}
}