{
  "_format": "hh-sol-artifact-1",
  "contractName": "FanChainToken",
  "sourceName": "contracts/FanChainToken.sol",
  "abi": [
    {
      "inputs": [],
      "stateMutability": "nonpayable",
      "type": "constructor"
    },
    {
      "anonymous": false,
      "inputs": [
        {
          "indexed": true,
          "internalType": "address",
          "name": "owner",
          "type": "address"
        },
        {
          "indexed": true,
          "internalType": "address",
          "name": "spender",
          "type": "address"
        },
        {
          "indexed": false,
          "internalType": "uint256",
          "name": "value",
          "type": "uint256"
        }
      ],
      "name": "Approval",
      "type": "event"
    },
    {
      "anonymous": false,
      "inputs": [
        {
          "indexed": true,
          "internalType": "address",
          "name": "previousOwner",
          "type": "address"
        },
        {
          "indexed": true,
          "internalType": "address",
          "name": "newOwner",
          "type": "address"
        }
      ],
      "name": "OwnershipTransferred",
      "type": "event"
    },
    {
      "anonymous": false,
      "inputs": [
        {
          "indexed": true,
          "internalType": "address",
          "name": "to",
          "type": "address"
        },
        {
          "indexed": false,
          "internalType": "uint256",
          "name": "amount",
          "type": "uint256"
        }
      ],
      "name": "TokensMinted",
      "type": "event"
    },
    {
      "anonymous": false,
      "inputs": [
        {
          "indexed": true,
          "internalType": "address",
          "name": "from",
          "type": "address"
        },
        {
          "indexed": true,
          "internalType": "address",
          "name": "to",
          "type": "address"
        },
        {
          "indexed": false,
          "internalType": "uint256",
          "name": "value",
          "type": "uint256"
        }
      ],
      "name": "Transfer",
      "type": "event"
    },
    {
      "anonymous": false,
      "inputs": [
        {
          "indexed": true,
          "internalType": "address",
          "name": "account",
          "type": "address"
        },
        {
          "indexed": false,
          "internalType": "uint256",
          "name": "newLimit",
          "type": "uint256"
        }
      ],
      "name": "TransferLimitChanged",
      "type": "event"
    },
    {
      "anonymous": false,
      "inputs": [
        {
          "indexed": true,
          "internalType": "address",
          "name": "beneficiary",
          "type": "address"
        },
        {
          "indexed": false,
          "internalType": "uint256",
          "name": "amount",
          "type": "uint256"
        }
      ],
      "name": "VestingStarted",
      "type": "event"
    },
    {
      "inputs": [],
      "name": "MAX_SUPPLY",
      "outputs": [
        {
          "internalType": "uint256",
          "name": "",
          "type": "uint256"
        }
      ],
      "stateMutability": "view",
      "type": "function"
    },
    {
      "inputs": [],
      "name": "VESTING_DURATION",
      "outputs": [
        {
          "internalType": "uint256",
          "name": "",
          "type": "uint256"
        }
      ],
      "stateMutability": "view",
      "type": "function"
    },
    {
      "inputs": [
        {
          "internalType": "address",
          "name": "owner",
          "type": "address"
        },
        {
          "internalType": "address",
          "name": "spender",
          "type": "address"
        }
      ],
      "name": "allowance",
      "outputs": [
        {
          "internalType": "uint256",
          "name": "",
          "type": "uint256"
        }
      ],
      "stateMutability": "view",
      "type": "function"
    },
    {
      "inputs": [
        {
          "internalType": "address",
          "name": "spender",
          "type": "address"
        },
        {
          "internalType": "uint256",
          "name": "amount",
          "type": "uint256"
        }
      ],
      "name": "approve",
      "outputs": [
        {
          "internalType": "bool",
          "name": "",
          "type": "bool"
        }
      ],
      "stateMutability": "nonpayable",
      "type": "function"
    },
    {
      "inputs": [
        {
          "internalType": "address",
          "name": "account",
          "type": "address"
        }
      ],
      "name": "balanceOf",
      "outputs": [
        {
          "internalType": "uint256",
          "name": "",
          "type": "uint256"
        }
      ],
      "stateMutability": "view",
      "type": "function"
    },
    {
      "inputs": [
        {
          "internalType": "uint256",
          "name": "amount",
          "type": "uint256"
        }
      ],
      "name": "burn",
      "outputs": [],
      "stateMutability": "nonpayable",
      "type": "function"
    },
    {
      "inputs": [
        {
          "internalType": "address",
          "name": "from",
          "type": "address"
        },
        {
          "internalType": "uint256",
          "name": "amount",
          "type": "uint256"
        }
      ],
      "name": "burnFrom",
      "outputs": [],
      "stateMutability": "nonpayable",
      "type": "function"
    },
    {
      "inputs": [],
      "name": "claimVested",
      "outputs": [],
      "stateMutability": "nonpayable",
      "type": "function"
    },
    {
      "inputs": [],
      "name": "decimals",
      "outputs": [
        {
          "internalType": "uint8",
          "name": "",
          "type": "uint8"
        }
      ],
      "stateMutability": "view",
      "type": "function"
    },
    {
      "inputs": [
        {
          "internalType": "address",
          "name": "spender",
          "type": "address"
        },
        {
          "internalType": "uint256",
          "name": "subtractedValue",
          "type": "uint256"
        }
      ],
      "name": "decreaseAllowance",
      "outputs": [
        {
          "internalType": "bool",
          "name": "",
          "type": "bool"
        }
      ],
      "stateMutability": "nonpayable",
      "type": "function"
    },
    {
      "inputs": [],
      "name": "defaultTransferLimit",
      "outputs": [
        {
          "internalType": "uint256",
          "name": "",
          "type": "uint256"
        }
      ],
      "stateMutability": "view",
      "type": "function"
    },
    {
      "inputs": [
        {
          "internalType": "address",
          "name": "beneficiary",
          "type": "address"
        }
      ],
      "name": "getVestingInfo",
      "outputs": [
        {
          "internalType": "uint256",
          "name": "totalAmount",
          "type": "uint256"
        },
        {
          "internalType": "uint256",
          "name": "startTime",
          "type": "uint256"
        },
        {
          "internalType": "uint256",
          "name": "cliffTime",
          "type": "uint256"
        },
        {
          "internalType": "uint256",
          "name": "vestedAmount",
          "type": "uint256"
        }
      ],
      "stateMutability": "view",
      "type": "function"
    },
    {
      "inputs": [
        {
          "internalType": "address",
          "name": "spender",
          "type": "address"
        },
        {
          "internalType": "uint256",
          "name": "addedValue",
          "type": "uint256"
        }
      ],
      "name": "increaseAllowance",
      "outputs": [
        {
          "internalType": "bool",
          "name": "",
          "type": "bool"
        }
      ],
      "stateMutability": "nonpayable",
      "type": "function"
    },
    {
      "inputs": [
        {
          "internalType": "address",
          "name": "to",
          "type": "address"
        },
        {
          "internalType": "uint256",
          "name": "amount",
          "type": "uint256"
        }
      ],
      "name": "mint",
      "outputs": [],
      "stateMutability": "nonpayable",
      "type": "function"
    },
    {
      "inputs": [],
      "name": "name",
      "outputs": [
        {
          "internalType": "string",
          "name": "",
          "type": "string"
        }
      ],
      "stateMutability": "view",
      "type": "function"
    },
    {
      "inputs": [],
      "name": "owner",
      "outputs": [
        {
          "internalType": "address",
          "name": "",
          "type": "address"
        }
      ],
      "stateMutability": "view",
      "type": "function"
    },
    {
      "inputs": [],
      "name": "renounceOwnership",
      "outputs": [],
      "stateMutability": "nonpayable",
      "type": "function"
    },
    {
      "inputs": [
        {
          "internalType": "uint256",
          "name": "limit",
          "type": "uint256"
        }
      ],
      "name": "setDefaultTransferLimit",
      "outputs": [],
      "stateMutability": "nonpayable",
      "type": "function"
    },
    {
      "inputs": [
        {
          "internalType": "address",
          "name": "account",
          "type": "address"
        },
        {
          "internalType": "uint256",
          "name": "limit",
          "type": "uint256"
        }
      ],
      "name": "setTransferLimit",
      "outputs": [],
      "stateMutability": "nonpayable",
      "type": "function"
    },
    {
      "inputs": [
        {
          "internalType": "address",
          "name": "beneficiary",
          "type": "address"
        },
        {
          "internalType": "uint256",
          "name": "amount",
          "type": "uint256"
        }
      ],
      "name": "startVesting",
      "outputs": [],
      "stateMutability": "nonpayable",
      "type": "function"
    },
    {
      "inputs": [],
      "name": "symbol",
      "outputs": [
        {
          "internalType": "string",
          "name": "",
          "type": "string"
        }
      ],
      "stateMutability": "view",
      "type": "function"
    },
    {
      "inputs": [],
      "name": "totalSupply",
      "outputs": [
        {
          "internalType": "uint256",
          "name": "",
          "type": "uint256"
        }
      ],
      "stateMutability": "view",
      "type": "function"
    },
    {
      "inputs": [
        {
          "internalType": "address",
          "name": "to",
          "type": "address"
        },
        {
          "internalType": "uint256",
          "name": "amount",
          "type": "uint256"
        }
      ],
      "name": "transfer",
      "outputs": [
        {
          "internalType": "bool",
          "name": "",
          "type": "bool"
        }
      ],
      "stateMutability": "nonpayable",
      "type": "function"
    },
    {
      "inputs": [
        {
          "internalType": "address",
          "name": "from",
          "type": "address"
        },
        {
          "internalType": "address",
          "name": "to",
          "type": "address"
        },
        {
          "internalType": "uint256",
          "name": "amount",
          "type": "uint256"
        }
      ],
      "name": "transferFrom",
      "outputs": [
        {
          "internalType": "bool",
          "name": "",
          "type": "bool"
        }
      ],
      "stateMutability": "nonpayable",
      "type": "function"
    },
    {
      "inputs": [
        {
          "internalType": "address",
          "name": "",
          "type": "address"
        }
      ],
      "name": "transferLimits",
      "outputs": [
        {
          "internalType": "uint256",
          "name": "",
          "type": "uint256"
        }
      ],
      "stateMutability": "view",
      "type": "function"
    },
    {
      "inputs": [
        {
          "internalType": "address",
          "name": "newOwner",
          "type": "address"
        }
      ],
      "name": "transferOwnership",
      "outputs": [],
      "stateMutability": "nonpayable",
      "type": "function"
    },
    {
      "inputs": [
        {
          "internalType": "address",
          "name": "",
          "type": "address"
        }
      ],
      "name": "vestingAmounts",
      "outputs": [
        {
          "internalType": "uint256",
          "name": "",
          "type": "uint256"
        }
      ],
      "stateMutability": "view",
      "type": "function"
    },
    {
      "inputs": [
        {
          "internalType": "address",
          "name": "",
          "type": "address"
        }
      ],
      "name": "vestingCliff",
      "outputs": [
        {
          "internalType": "uint256",
          "name": "",
          "type": "uint256"
        }
      ],
      "stateMutability": "view",
      "type": "function"
    },
    {
      "inputs": [
        {
          "internalType": "address",
          "name": "",
          "type": "address"
        }
      ],
      "name": "vestingStart",
      "outputs": [
        {
          "internalType": "uint256",
          "name": "",
          "type": "uint256"
        }
      ],
      "stateMutability": "view",
      "type": "function"
    }
  ],
  "bytecode": "0x60806040908082523462000595578060006006546200001e816200059a565b8084526001918083169081156200057657506001146200052b575b50601f93601f199203840182168301926001600160401b0391818510838611176200040457848752838686600060075462000074816200059a565b808452908681169081156200050e5750600114620004bd575b50030116850185811084821117620004045787528151838111620004045780600393620000bb85546200059a565b89811162000489575b5060209089831160011462000426576000926200041a575b505060001982851b1c191690821b1782555b845192831162000404576004946200010786546200059a565b878111620003c5575b506020908785116001146200035c578495509084929160009562000350575b50501b92600019911b1c19161781555b60058054336001600160a01b0319821681179092556001600160a01b03167f8be0079c531659141344cd1fd0a4f28419497f9722a3daafe3b4186f6b6457e0600080a36200018f6006546200059a565b82811162000320575b507f50534c2046616e436861696e20546f6b656e0000000000000000000000000024600655600754620001cb906200059a565b828111620002f0575b506008632829a62360e11b0160075569d3c21bcecceda1000000600881905569152d02c7e14af6800000600a55913315620002ae57506002549082820180921162000299575060025533600052600060205281600020818154019055815190815260007fddf252ad1be2c89b69c2b068fc378daa952ba7f163c4a11628f55a4df523b3ef60203393a360085481519081527f3f2c9d57c068687834f0de942a9babb9e5acab57d516d3480a3c16ee165a427360203392a25161136a9081620005f18239f35b601190634e487b7160e01b6000525260246000fd5b60649250602084519262461bcd60e51b845283015260248201527f45524332303a206d696e7420746f20746865207a65726f2061646472657373006044820152fd5b60076000526200031990830160051c6000805160206200195b83398151915290810190620005d7565b38620001d4565b60066000526200034990830160051c6000805160206200197b83398151915290810190620005d7565b3862000198565b0151935038806200012f565b9291948416928660005284826000209460005b88828210620003ab5750501062000390575b50505050811b0181556200013f565b01519060f884600019921b161c191690553880808062000381565b84860151885590960195602094850194889350016200036f565b620003f3908760005260206000208980880160051c82019260208910620003fa575b0160051c0190620005d7565b3862000110565b92508192620003e7565b634e487b7160e01b600052604160045260246000fd5b015190503880620000dc565b90878594169186600052816000209260005b818110620004705750841162000457575b505050811b018255620000ee565b015160001983871b60f8161c1916905538808062000449565b8284015185558796909401936020938401930162000438565b620004b6908660005260206000208b80860160051c82019260208710620003fa570160051c0190620005d7565b38620000c4565b600760009081526020925090866000805160206200195b8339815191525b828410620004f057505050820101386200008d565b80548d85018601528b97508d96508c955092840192889101620004db565b90506020925060ff191682840152151560051b820101386200008d565b60066000908152919250602091906000805160206200197b8339815191525b8183106200055f575050830101903862000039565b80548784018501528695509183019184016200054a565b9050602092935060ff191682850152151560051b830101903862000039565b600080fd5b90600182811c92168015620005cc575b6020831014620005b657565b634e487b7160e01b600052602260045260246000fd5b91607f1691620005aa565b818110620005e3575050565b60008155600101620005d756fe608060408181526004918236101561001657600080fd5b600092833560e01c918263032bbf4f14610cbd5750816306fdde0314610be3578163095ea7b314610bb95781630f75327f14610b8157816318160ddd14610b6257816323b872dd14610b25578163313ce56714610b0957816332cb6b0c14610ae35781633950935114610a9357816340c10f191461094d57816342966c681461092f5781634cfc4d30146109105781635ddbe56d146108f157816369efe471146108b957816370a0823114610876578163715018a61461081957816379cc6790146107e65781638da5cb5b146107bd57816395d89b411461069e578163a457c2d7146105f6578163a6435fff1461049e578163a9059cbb1461046d578163d01c44cd1461037f578163d5a2e2f614610347578163dd62ed3e146102fe578163eb9beadc146102dc578163f0b6e33f14610274578163f2fde38b146101a4575063fb897ce41461016457600080fd5b346101a05760203660031901126101a057608090610188610183610cf1565b6111ae565b92939091815194855260208501528301526060820152f35b5080fd5b905034610270576020366003190112610270576101bf610cf1565b906101c8610d6b565b6001600160a01b0391821692831561021e575050600554826bffffffffffffffffffffffff60a01b821617600555167f8be0079c531659141344cd1fd0a4f28419497f9722a3daafe3b4186f6b6457e08380a380f35b906020608492519162461bcd60e51b8352820152602660248201527f4f776e61626c653a206e6577206f776e657220697320746865207a65726f206160448201526564647265737360d01b6064820152fd5b8280fd5b5050346101a057806003193601126101a0577f196a06af490acfe9f9bcbbf8be5a5abad4e1bc733fb238fa9c50a6f00689e1b560206102b1610cf1565b602435906102bd610d6b565b6001600160a01b0316808652600983528486208290559351908152a280f35b8390346101a05760203660031901126101a0576102f7610d6b565b35600a5580f35b5050346101a057806003193601126101a0578060209261031c610cf1565b610324610d0c565b6001600160a01b0391821683526001865283832091168252845220549051908152f35b5050346101a05760203660031901126101a05760209181906001600160a01b0361036f610cf1565b168152600d845220549051908152f35b839150346101a057816003193601126101a057338252602090600b82528383205490811561043d57338452600c83528484205490600d84528585205442106104065750916103ec600b926103d58697954261118e565b6303c26700908181106103f65750505b3330610de6565b3384525281205580f35b610400919261119b565b046103e5565b855162461bcd60e51b8152908101849052601160248201527010db1a5999881b9bdd081c995858da1959607a1b6044820152606490fd5b845162461bcd60e51b8152908101839052600a6024820152694e6f2076657374696e6760b01b6044820152606490fd5b5050346101a057806003193601126101a05760209061049761048d610cf1565b6024359033610de6565b5160018152f35b8383346101a057806003193601126101a0576104b8610cf1565b6024356104c3610d6b565b60018060a01b0380921692838552602092600b8452818620546105ba5760055416826105028260018060a01b0316600052600060205260406000205490565b106105805782610513913090610de6565b838552600b83528181862055600c8352428186205562ed4e00420180421161056d57859650847f7b97dcefcb9fdae22321c09ae87ed7865e06d2477325d246f8f1ff039a701a3d959652600d84528187205551908152a280f35b634e487b7160e01b865260118752602486fd5b815162461bcd60e51b81528088018590526014602482015273496e73756666696369656e742062616c616e636560601b6044820152606490fd5b815162461bcd60e51b8152808801859052601660248201527556657374696e6720616c72656164792061637469766560501b6044820152606490fd5b9050823461069b578260031936011261069b57610611610cf1565b918360243592338152600160205281812060018060a01b038616825260205220549082821061064a576020856104978585038733610f62565b608490602086519162461bcd60e51b8352820152602560248201527f45524332303a2064656372656173656420616c6c6f77616e63652062656c6f77604482015264207a65726f60d81b6064820152fd5b80fd5b8383346101a057816003193601126101a057805190828454600181811c908083169283156107b3575b60209384841081146107a057838852908115610784575060011461072f575b505050829003601f01601f191682019267ffffffffffffffff84118385101761071c5750829182610718925282610d22565b0390f35b634e487b7160e01b815260418552602490fd5b8787529192508591837f8a35acfbc15ff81a39ae7d344fd709f28e8600b4aa8c65c6b64bfe7fe36bd19b5b83851061077057505050508301018580806106e6565b80548886018301529301928490820161075a565b60ff1916878501525050151560051b84010190508580806106e6565b634e487b7160e01b895260228a52602489fd5b91607f16916106c7565b5050346101a057816003193601126101a05760055490516001600160a01b039091168152602090f35b5050346101a05736600319011261069b57610816610802610cf1565b60243590610811823383611064565b61122d565b80f35b833461069b578060031936011261069b57610832610d6b565b600580546001600160a01b0319811690915581906001600160a01b03167f8be0079c531659141344cd1fd0a4f28419497f9722a3daafe3b4186f6b6457e08280a380f35b5050346101a05760203660031901126101a0576020906108b2610897610cf1565b6001600160a01b031660009081526020819052604090205490565b9051908152f35b5050346101a05760203660031901126101a05760209181906001600160a01b036108e1610cf1565b1681526009845220549051908152f35b5050346101a057816003193601126101a057602090600a549051908152f35b5050346101a057816003193601126101a057602090516303c267008152f35b8390346101a05760203660031901126101a05761081690353361122d565b91905034610270578060031936011261027057610968610cf1565b9060243591610975610d6b565b600254906a084595161401484a00000061098f8584610dc3565b11610a5b576001600160a01b0316938415610a185750916020916109d4827f3f2c9d57c068687834f0de942a9babb9e5acab57d516d3480a3c16ee165a427395610dc3565b60025584865285835280862082815401905584867fddf252ad1be2c89b69c2b068fc378daa952ba7f163c4a11628f55a4df523b3ef858451868152a351908152a280f35b606490602084519162461bcd60e51b8352820152601f60248201527f45524332303a206d696e7420746f20746865207a65726f2061646472657373006044820152fd5b825162461bcd60e51b8152602081870152601260248201527145786365656473206d617820737570706c7960701b6044820152606490fd5b5050346101a057806003193601126101a057610497602092610adc610ab6610cf1565b338352600186528483206001600160a01b03821684528652918490205460243590610dc3565b9033610f62565b5050346101a057816003193601126101a057602090516a084595161401484a0000008152f35b5050346101a057816003193601126101a0576020905160128152f35b5050346101a05760603660031901126101a057602090610497610b46610cf1565b610b4e610d0c565b60443591610b5d833383611064565b610de6565b5050346101a057816003193601126101a0576020906002549051908152f35b5050346101a05760203660031901126101a05760209181906001600160a01b03610ba9610cf1565b168152600b845220549051908152f35b5050346101a057806003193601126101a057602090610497610bd9610cf1565b6024359033610f62565b8383346101a057816003193601126101a05780519082600354600181811c90808316928315610cb3575b60209384841081146107a0578388529081156107845750600114610c5d57505050829003601f01601f191682019267ffffffffffffffff84118385101761071c5750829182610718925282610d22565b600387529192508591837fc2575a0e9e593c00f959f8c92f12db2869c3395a3b0502d05e2516446f71f85b5b838510610c9f57505050508301018580806106e6565b805488860183015293019284908201610c89565b91607f1691610c0d565b84908434610270576020366003190112610270576020926001600160a01b03610ce4610cf1565b168152600c845220548152f35b600435906001600160a01b0382168203610d0757565b600080fd5b602435906001600160a01b0382168203610d0757565b6020808252825181830181905290939260005b828110610d5757505060409293506000838284010152601f8019910116010190565b818101860151848201604001528501610d35565b6005546001600160a01b03163303610d7f57565b606460405162461bcd60e51b815260206004820152602060248201527f4f776e61626c653a2063616c6c6572206973206e6f7420746865206f776e65726044820152fd5b91908201809211610dd057565b634e487b7160e01b600052601160045260246000fd5b916001600160a01b0380841692908315610f0f578116938415610ebe57610e0e9183916110fc565b600082815280602052604081205491808310610e6a57604082827fddf252ad1be2c89b69c2b068fc378daa952ba7f163c4a11628f55a4df523b3ef958760209652828652038282205586815220818154019055604051908152a3565b60405162461bcd60e51b815260206004820152602660248201527f45524332303a207472616e7366657220616d6f756e7420657863656564732062604482015265616c616e636560d01b6064820152608490fd5b60405162461bcd60e51b815260206004820152602360248201527f45524332303a207472616e7366657220746f20746865207a65726f206164647260448201526265737360e81b6064820152608490fd5b60405162461bcd60e51b815260206004820152602560248201527f45524332303a207472616e736665722066726f6d20746865207a65726f206164604482015264647265737360d81b6064820152608490fd5b6001600160a01b039081169182156110135716918215610fc35760207f8c5be1e5ebec7d5bd14f71427d1e84f3dd0314c0f7b2291e5b200ac8c7c3b925918360005260018252604060002085600052825280604060002055604051908152a3565b60405162461bcd60e51b815260206004820152602260248201527f45524332303a20617070726f766520746f20746865207a65726f206164647265604482015261737360f01b6064820152608490fd5b60405162461bcd60e51b8152602060048201526024808201527f45524332303a20617070726f76652066726f6d20746865207a65726f206164646044820152637265737360e01b6064820152608490fd5b9060018060a01b038083166000526001602052604060002090821660005260205260406000205492600019840361109c575b50505050565b8084106110b7576110ae930391610f62565b38808080611096565b60405162461bcd60e51b815260206004820152601d60248201527f45524332303a20696e73756666696369656e7420616c6c6f77616e63650000006044820152606490fd5b6001600160a01b03919082161561118957811690811561118957600554163303611124575050565b600052600960205260406000205490811561117f575b1161114157565b60405162461bcd60e51b8152602060048201526016602482015275115e18d959591cc81d1c985b9cd9995c881b1a5b5a5d60521b6044820152606490fd5b600a54915061113a565b505050565b91908203918211610dd057565b81810292918115918404141715610dd057565b6001600160a01b03166000908152600b6020526040812054801561122457600c602052604082205492600d60205260408320549291834210156111f2575b93929190565b91506111fe844261118e565b6303c2670090818110611213575050816111ec565b61121d908461119b565b04916111ec565b50908180918190565b6001600160a01b031680156112e55760009181835282602052604083205481811061129557817fddf252ad1be2c89b69c2b068fc378daa952ba7f163c4a11628f55a4df523b3ef926020928587528684520360408620558060025403600255604051908152a3565b60405162461bcd60e51b815260206004820152602260248201527f45524332303a206275726e20616d6f756e7420657863656564732062616c616e604482015261636560f01b6064820152608490fd5b60405162461bcd60e51b815260206004820152602160248201527f45524332303a206275726e2066726f6d20746865207a65726f206164647265736044820152607360f81b6064820152608490fdfea2646970667358221220e4b5d753e8af4e160fd920984691d6687b8069af4e76944bdb2bc6109ddc1c4164736f6c63430008130033a66cc928b5edb82af9bd49922954155ab7b0942694bea4ce44661d9a8736c688f652222313e28459528d920b65115c16c04f3efc82aaedc97be59f3f377c0d3f",
  "linkReferences": {},
  "deployedLinkReferences": {}
}