{
  "contractName": "FanChain",
  "abi": [
    {
      "inputs": [
        {
          "internalType": "address",
          "name": "_platformWallet",
          "type": "address"
        }
      ],
      "stateMutability": "nonpayable",
      "type": "constructor"
    },
    {
      "anonymous": false,
      "inputs": [
        {
          "indexed": true,
          "internalType": "address",
          "name": "owner",
          "type": "address"
        },
        {
          "indexed": true,
          "internalType": "address",
          "name": "approved",
          "type": "address"
        },
        {
          "indexed": true,
          "internalType": "uint256",
          "name": "tokenId",
          "type": "uint256"
        }
      ],
      "name": "Approval",
      "type": "event"
    },
    {
      "anonymous": false,
      "inputs": [
        {
          "indexed": true,
          "internalType": "address",
          "name": "owner",
          "type": "address"
        },
        {
          "indexed": true,
          "internalType": "address",
          "name": "operator",
          "type": "address"
        },
        {
          "indexed": false,
          "internalType": "bool",
          "name": "approved",
          "type": "bool"
        }
      ],
      "name": "ApprovalForAll",
      "type": "event"
    },
    {
      "anonymous": false,
      "inputs": [
        {
          "indexed": true,
          "internalType": "uint256",
          "name": "id",
          "type": "uint256"
        },
        {
          "indexed": true,
          "internalType": "address",
          "name": "creator",
          "type": "address"
        },
        {
          "indexed": false,
          "internalType": "string",
          "name": "name",
          "type": "string"
        }
      ],
      "name": "CampaignCreated",
      "type": "event"
    },
    {
      "anonymous": false,
      "inputs": [
        {
          "indexed": true,
          "internalType": "address",
          "name": "influencer",
          "type": "address"
        },
        {
          "indexed": false,
          "internalType": "uint256",
          "name": "amount",
          "type": "uint256"
        }
      ],
      "name": "EarningsClaimed",
      "type": "event"
    },
    {
      "anonymous": false,
      "inputs": [
        {
          "indexed": true,
          "internalType": "uint256",
          "name": "tokenId",
          "type": "uint256"
        },
        {
          "indexed": true,
          "internalType": "address",
          "name": "owner",
          "type": "address"
        },
        {
          "indexed": false,
          "internalType": "uint256",
          "name": "campaignId",
          "type": "uint256"
        }
      ],
      "name": "NFTMinted",
      "type": "event"
    },
    {
      "anonymous": false,
      "inputs": [
        {
          "indexed": true,
          "internalType": "address",
          "name": "previousOwner",
          "type": "address"
        },
        {
          "indexed": true,
          "internalType": "address",
          "name": "newOwner",
          "type": "address"
        }
      ],
      "name": "OwnershipTransferred",
      "type": "event"
    },
    {
      "anonymous": false,
      "inputs": [
        {
          "indexed": true,
          "internalType": "address",
          "name": "from",
          "type": "address"
        },
        {
          "indexed": true,
          "internalType": "address",
          "name": "to",
          "type": "address"
        },
        {
          "indexed": true,
          "internalType": "uint256",
          "name": "tokenId",
          "type": "uint256"
        }
      ],
      "name": "Transfer",
      "type": "event"
    },
    {
      "inputs": [
        {
          "internalType": "address",
          "name": "to",
          "type": "address"
        },
        {
          "internalType": "uint256",
          "name": "tokenId",
          "type": "uint256"
        }
      ],
      "name": "approve",
      "outputs": [],
      "stateMutability": "nonpayable",
      "type": "function"
    },
    {
      "inputs": [
        {
          "internalType": "address",
          "name": "owner",
          "type": "address"
        }
      ],
      "name": "balanceOf",
      "outputs": [
        {
          "internalType": "uint256",
          "name": "",
          "type": "uint256"
        }
      ],
      "stateMutability": "view",
      "type": "function"
    },
    {
      "inputs": [
        {
          "internalType": "uint256",
          "name": "",
          "type": "uint256"
        }
      ],
      "name": "campaigns",
      "outputs": [
        {
          "internalType": "uint256",
          "name": "id",
          "type": "uint256"
        },
        {
          "internalType": "address",
          "name": "creator",
          "type": "address"
        },
        {
          "internalType": "string",
          "name": "name",
          "type": "string"
        },
        {
          "internalType": "string",
          "name": "description",
          "type": "string"
        },
        {
          "internalType": "uint256",
          "name": "stadiumLat",
          "type": "uint256"
        },
        {
          "internalType": "uint256",
          "name": "stadiumLng",
          "type": "uint256"
        },
        {
          "internalType": "uint256",
          "name": "geoRadius",
          "type": "uint256"
        },
        {
          "internalType": "uint256",
          "name": "startTime",
          "type": "uint256"
        },
        {
          "internalType": "uint256",
          "name": "endTime",
          "type": "uint256"
        },
        {
          "internalType": "string",
          "name": "rewardTier",
          "type": "string"
        },
        {
          "internalType": "uint256",
          "name": "rewardPoints",
          "type": "uint256"
        },
        {
          "internalType": "address",
          "name": "sponsor",
          "type": "address"
        },
        {
          "internalType": "uint256",
          "name": "sponsorFee",
          "type": "uint256"
        },
        {
          "internalType": "bool",
          "name": "active",
          "type": "bool"
        }
      ],
      "stateMutability": "view",
      "type": "function"
    },
    {
      "inputs": [
        {
          "internalType": "uint256",
          "name": "tokenId",
          "type": "uint256"
        }
      ],
      "name": "getApproved",
      "outputs": [
        {
          "internalType": "address",
          "name": "",
          "type": "address"
        }
      ],
      "stateMutability": "view",
      "type": "function"
    },
    {
      "inputs": [
        {
          "internalType": "address",
          "name": "",
          "type": "address"
        }
      ],
      "name": "influencerEarnings",
      "outputs": [
        {
          "internalType": "uint256",
          "name": "",
          "type": "uint256"
        }
      ],
      "stateMutability": "view",
      "type": "function"
    },
    {
      "inputs": [
        {
          "internalType": "address",
          "name": "owner",
          "type": "address"
        },
        {
          "internalType": "address",
          "name": "operator",
          "type": "address"
        }
      ],
      "name": "isApprovedForAll",
      "outputs": [
        {
          "internalType": "bool",
          "name": "",
          "type": "bool"
        }
      ],
      "stateMutability": "view",
      "type": "function"
    },
    {
      "inputs": [],
      "name": "name",
      "outputs": [
        {
          "internalType": "string",
          "name": "",
          "type": "string"
        }
      ],
      "stateMutability": "view",
      "type": "function"
    },
    {
      "inputs": [
        {
          "internalType": "uint256",
          "name": "",
          "type": "uint256"
        }
      ],
      "name": "nfts",
      "outputs": [
        {
          "internalType": "uint256",
          "name": "tokenId",
          "type": "uint256"
        },
        {
          "internalType": "address",
          "name": "owner",
          "type": "address"
        },
        {
          "internalType": "uint256",
          "name": "campaignId",
          "type": "uint256"
        },
        {
          "internalType": "uint256",
          "name": "timestamp",
          "type": "uint256"
        },
        {
          "internalType": "uint256",
          "name": "lat",
          "type": "uint256"
        },
        {
          "internalType": "uint256",
          "name": "lng",
          "type": "uint256"
        },
        {
          "internalType": "string",
          "name": "influencerId",
          "type": "string"
        }
      ],
      "stateMutability": "view",
      "type": "function"
    },
    {
      "inputs": [],
      "name": "owner",
      "outputs": [
        {
          "internalType": "address",
          "name": "",
          "type": "address"
        }
      ],
      "stateMutability": "view",
      "type": "function"
    },
    {
      "inputs": [
        {
          "internalType": "uint256",
          "name": "tokenId",
          "type": "uint256"
        }
      ],
      "name": "ownerOf",
      "outputs": [
        {
          "internalType": "address",
          "name": "",
          "type": "address"
        }
      ],
      "stateMutability": "view",
      "type": "function"
    },
    {
      "inputs": [],
      "name": "platformFee",
      "outputs": [
        {
          "internalType": "uint256",
          "name": "",
          "type": "uint256"
        }
      ],
      "stateMutability": "view",
      "type": "function"
    },
    {
      "inputs": [],
      "name": "platformWallet",
      "outputs": [
        {
          "internalType": "address",
          "name": "",
          "type": "address"
        }
      ],
      "stateMutability": "view",
      "type": "function"
    },
    {
      "inputs": [],
      "name": "renounceOwnership",
      "outputs": [],
      "stateMutability": "nonpayable",
      "type": "function"
    },
    {
      "inputs": [
        {
          "internalType": "address",
          "name": "from",
          "type": "address"
        },
        {
          "internalType": "address",
          "name": "to",
          "type": "address"
        },
        {
          "internalType": "uint256",
          "name": "tokenId",
          "type": "uint256"
        }
      ],
      "name": "safeTransferFrom",
      "outputs": [],
      "stateMutability": "nonpayable",
      "type": "function"
    },
    {
      "inputs": [
        {
          "internalType": "address",
          "name": "from",
          "type": "address"
        },
        {
          "internalType": "address",
          "name": "to",
          "type": "address"
        },
        {
          "internalType": "uint256",
          "name": "tokenId",
          "type": "uint256"
        },
        {
          "internalType": "bytes",
          "name": "data",
          "type": "bytes"
        }
      ],
      "name": "safeTransferFrom",
      "outputs": [],
      "stateMutability": "nonpayable",
      "type": "function"
    },
    {
      "inputs": [
        {
          "internalType": "address",
          "name": "operator",
          "type": "address"
        },
        {
          "internalType": "bool",
          "name": "approved",
          "type": "bool"
        }
      ],
      "name": "setApprovalForAll",
      "outputs": [],
      "stateMutability": "nonpayable",
      "type": "function"
    },
    {
      "inputs": [
        {
          "internalType": "bytes4",
          "name": "interfaceId",
          "type": "bytes4"
        }
      ],
      "name": "supportsInterface",
      "outputs": [
        {
          "internalType": "bool",
          "name": "",
          "type": "bool"
        }
      ],
      "stateMutability": "view",
      "type": "function"
    },
    {
      "inputs": [],
      "name": "symbol",
      "outputs": [
        {
          "internalType": "string",
          "name": "",
          "type": "string"
        }
      ],
      "stateMutability": "view",
      "type": "function"
    },
    {
      "inputs": [
        {
          "internalType": "address",
          "name": "",
          "type": "address"
        }
      ],
      "name": "totalCheckIns",
      "outputs": [
        {
          "internalType": "uint256",
          "name": "",
          "type": "uint256"
        }
      ],
      "stateMutability": "view",
      "type": "function"
    },
    {
      "inputs": [
        {
          "internalType": "address",
          "name": "from",
          "type": "address"
        },
        {
          "internalType": "address",
          "name": "to",
          "type": "address"
        },
        {
          "internalType": "uint256",
          "name": "tokenId",
          "type": "uint256"
        }
      ],
      "name": "transferFrom",
      "outputs": [],
      "stateMutability": "nonpayable",
      "type": "function"
    },
    {
      "inputs": [
        {
          "internalType": "address",
          "name": "newOwner",
          "type": "address"
        }
      ],
      "name": "transferOwnership",
      "outputs": [],
      "stateMutability": "nonpayable",
      "type": "function"
    },
    {
      "inputs": [
        {
          "internalType": "address",
          "name": "",
          "type": "address"
        },
        {
          "internalType": "uint256",
          "name": "",
          "type": "uint256"
        }
      ],
      "name": "userNFTs",
      "outputs": [
        {
          "internalType": "uint256",
          "name": "",
          "type": "uint256"
        }
      ],
      "stateMutability": "view",
      "type": "function"
    },
    {
      "stateMutability": "payable",
      "type": "receive"
    },
    {
      "inputs": [
        {
          "internalType": "string",
          "name": "_name",
          "type": "string"
        },
        {
          "internalType": "string",
          "name": "_description",
          "type": "string"
        },
        {
          "internalType": "uint256",
          "name": "_stadiumLat",
          "type": "uint256"
        },
        {
          "internalType": "uint256",
          "name": "_stadiumLng",
          "type": "uint256"
        },
        {
          "internalType": "uint256",
          "name": "_geoRadius",
          "type": "uint256"
        },
        {
          "internalType": "uint256",
          "name": "_startTime",
          "type": "uint256"
        },
        {
          "internalType": "uint256",
          "name": "_endTime",
          "type": "uint256"
        },
        {
          "internalType": "string",
          "name": "_rewardTier",
          "type": "string"
        },
        {
          "internalType": "uint256",
          "name": "_rewardPoints",
          "type": "uint256"
        },
        {
          "internalType": "address",
          "name": "_sponsor",
          "type": "address"
        }
      ],
      "name": "createCampaign",
      "outputs": [
        {
          "internalType": "uint256",
          "name": "",
          "type": "uint256"
        }
      ],
      "stateMutability": "nonpayable",
      "type": "function"
    },
    {
      "inputs": [
        {
          "internalType": "address",
          "name": "_to",
          "type": "address"
        },
        {
          "internalType": "uint256",
          "name": "_campaignId",
          "type": "uint256"
        },
        {
          "internalType": "string",
          "name": "_tokenURI",
          "type": "string"
        },
        {
          "internalType": "uint256",
          "name": "_lat",
          "type": "uint256"
        },
        {
          "internalType": "uint256",
          "name": "_lng",
          "type": "uint256"
        },
        {
          "internalType": "string",
          "name": "_influencerId",
          "type": "string"
        }
      ],
      "name": "mintAttendanceNFT",
      "outputs": [],
      "stateMutability": "nonpayable",
      "type": "function"
    },
    {
      "inputs": [
        {
          "internalType": "uint256",
          "name": "_tokenId",
          "type": "uint256"
        },
        {
          "internalType": "string",
          "name": "_uri",
          "type": "string"
        }
      ],
      "name": "setTokenURI",
      "outputs": [],
      "stateMutability": "nonpayable",
      "type": "function"
    },
    {
      "inputs": [
        {
          "internalType": "uint256",
          "name": "_tokenId",
          "type": "uint256"
        }
      ],
      "name": "tokenURI",
      "outputs": [
        {
          "internalType": "string",
          "name": "",
          "type": "string"
        }
      ],
      "stateMutability": "view",
      "type": "function"
    },
    {
      "inputs": [],
      "name": "claimEarnings",
      "outputs": [],
      "stateMutability": "nonpayable",
      "type": "function"
    },
    {
      "inputs": [
        {
          "internalType": "uint256",
          "name": "_campaignId",
          "type": "uint256"
        }
      ],
      "name": "toggleCampaign",
      "outputs": [],
      "stateMutability": "nonpayable",
      "type": "function"
    },
    {
      "inputs": [
        {
          "internalType": "address",
          "name": "_user",
          "type": "address"
        }
      ],
      "name": "getUserNFTs",
      "outputs": [
        {
          "internalType": "uint256[]",
          "name": "",
          "type": "uint256[]"
        }
      ],
      "stateMutability": "view",
      "type": "function"
    },
    {
      "inputs": [],
      "name": "getContractStats",
      "outputs": [
        {
          "internalType": "uint256",
          "name": "totalCampaigns",
          "type": "uint256"
        },
        {
          "internalType": "uint256",
          "name": "totalNFTs",
          "type": "uint256"
        },
        {
          "internalType": "uint256",
          "name": "totalEarnings",
          "type": "uint256"
        }
      ],
      "stateMutability": "view",
      "type": "function"
    }
  ],
  "bytecode": "0x60806040526101f4600e553480156200001757600080fd5b50604051620028a4380380620028a48339810160408190526200003a9162000135565b6040518060400160405280600c81526020016b2829a6102330b721b430b4b760a11b815250604051806040016040528060048152602001632829a62360e11b81525081600090816200008d91906200020c565b5060016200009c82826200020c565b505050620000b9620000b3620000df60201b60201c565b620000e3565b600f80546001600160a01b0319166001600160a01b0392909216919091179055620002d8565b3390565b600680546001600160a01b038381166001600160a01b0319831681179093556040519116919082907f8be0079c531659141344cd1fd0a4f28419497f9722a3daafe3b4186f6b6457e090600090a35050565b6000602082840312156200014857600080fd5b81516001600160a01b03811681146200016057600080fd5b9392505050565b634e487b7160e01b600052604160045260246000fd5b600181811c908216806200019257607f821691505b602082108103620001b357634e487b7160e01b600052602260045260246000fd5b50919050565b601f8211156200020757600081815260208120601f850160051c81016020861015620001e25750805b601f850160051c820191505b818110156200020357828155600101620001ee565b5050505b505050565b81516001600160401b0381111562000228576200022862000167565b62000240816200023984546200017d565b84620001b9565b602080601f8311600181146200027857600084156200025f5750858301515b600019600386901b1c1916600185901b17855562000203565b600085815260208120601f198616915b82811015620002a95788860151825594840194600190910190840162000288565b5085821015620002c85787850151600019600388901b60f8161c191681555b5050505050600190811b01905550565b6125bc80620002e86000396000f3fe6080604052600436106101d15760003560e01c8063715018a6116100f7578063c87b56dd11610095578063e985e9c511610064578063e985e9c514610593578063f2fde38b146105b3578063fa2af9da146105d3578063fa752a91146105f357600080fd5b8063c87b56dd1461050e578063d9ceab131461052e578063dfe6b5d614610543578063e0c628e91461057357600080fd5b806395d89b41116100d157806395d89b411461048c578063a22cb465146104a1578063ab642acd146104c1578063b88d4fde146104ee57600080fd5b8063715018a61461042c578063828e1ffd146104415780638da5cb5b1461046e57600080fd5b806326232a2e1161016f57806352de4ee51161013e57806352de4ee51461039f5780635ad47519146103cc5780636352211e146103ec57806370a082311461040c57600080fd5b806326232a2e14610308578063265aa6211461032c578063291c73c31461035f57806342842e0e1461037f57600080fd5b8063095ea7b3116101ab578063095ea7b31461026c578063141961bc1461028e578063162094c4146102c857806323b872dd146102e857600080fd5b806301ffc9a7146101dd57806306fdde0314610212578063081812fc1461023457600080fd5b366101d857005b600080fd5b3480156101e957600080fd5b506101fd6101f8366004611cb3565b610613565b60405190151581526020015b60405180910390f35b34801561021e57600080fd5b50610227610665565b6040516102099190611d1d565b34801561024057600080fd5b5061025461024f366004611d30565b6106f7565b6040516001600160a01b039091168152602001610209565b34801561027857600080fd5b5061028c610287366004611d65565b61071e565b005b34801561029a57600080fd5b506102ae6102a9366004611d30565b610838565b6040516102099e9d9c9b9a99989796959493929190611d8f565b3480156102d457600080fd5b5061028c6102e3366004611ef4565b610a4d565b3480156102f457600080fd5b5061028c610303366004611f3b565b610a63565b34801561031457600080fd5b5061031e600e5481565b604051908152602001610209565b34801561033857600080fd5b5061034c610347366004611d30565b610a94565b6040516102099796959493929190611f77565b34801561036b57600080fd5b5061031e61037a366004611d65565b610b65565b34801561038b57600080fd5b5061028c61039a366004611f3b565b610b96565b3480156103ab57600080fd5b506103bf6103ba366004611fc3565b610bb1565b6040516102099190611fde565b3480156103d857600080fd5b5061028c6103e7366004611d30565b610c1d565b3480156103f857600080fd5b50610254610407366004611d30565b610c97565b34801561041857600080fd5b5061031e610427366004611fc3565b610cf7565b34801561043857600080fd5b5061028c610d7d565b34801561044d57600080fd5b5061031e61045c366004611fc3565b600c6020526000908152604090205481565b34801561047a57600080fd5b506006546001600160a01b0316610254565b34801561049857600080fd5b50610227610d91565b3480156104ad57600080fd5b5061028c6104bc366004612022565b610da0565b3480156104cd57600080fd5b5061031e6104dc366004611fc3565b600b6020526000908152604090205481565b3480156104fa57600080fd5b5061028c61050936600461205e565b610dab565b34801561051a57600080fd5b50610227610529366004611d30565b610de3565b34801561053a57600080fd5b5061028c610ed0565b34801561054f57600080fd5b50610558611012565b60408051938452602084019290925290820152606001610209565b34801561057f57600080fd5b5061031e61058e3660046120da565b61102f565b34801561059f57600080fd5b506101fd6105ae3660046121af565b611236565b3480156105bf57600080fd5b5061028c6105ce366004611fc3565b611264565b3480156105df57600080fd5b50600f54610254906001600160a01b031681565b3480156105ff57600080fd5b5061028c61060e3660046121e2565b6112dd565b60006001600160e01b031982166380ac58cd60e01b148061064457506001600160e01b03198216635b5e139f60e01b145b8061065f57506301ffc9a760e01b6001600160e01b03198316145b92915050565b60606000805461067490612272565b80601f01602080910402602001604051908101604052809291908181526020018280546106a090612272565b80156106ed5780601f106106c2576101008083540402835291602001916106ed565b820191906000526020600020905b8154815290600101906020018083116106d057829003601f168201915b5050505050905090565b6000610702826115bc565b506000908152600460205260409020546001600160a01b031690565b600061072982610c97565b9050806001600160a01b0316836001600160a01b03160361079b5760405162461bcd60e51b815260206004820152602160248201527f4552433732313a20617070726f76616c20746f2063757272656e74206f776e656044820152603960f91b60648201526084015b60405180910390fd5b336001600160a01b03821614806107b757506107b78133611236565b6108295760405162461bcd60e51b815260206004820152603d60248201527f4552433732313a20617070726f76652063616c6c6572206973206e6f7420746f60448201527f6b656e206f776e6572206f7220617070726f76656420666f7220616c6c0000006064820152608401610792565b610833838361161b565b505050565b60086020526000908152604090208054600182015460028301805492936001600160a01b039092169261086a90612272565b80601f016020809104026020016040519081016040528092919081815260200182805461089690612272565b80156108e35780601f106108b8576101008083540402835291602001916108e3565b820191906000526020600020905b8154815290600101906020018083116108c657829003601f168201915b5050505050908060030180546108f890612272565b80601f016020809104026020016040519081016040528092919081815260200182805461092490612272565b80156109715780601f1061094657610100808354040283529160200191610971565b820191906000526020600020905b81548152906001019060200180831161095457829003601f168201915b5050505050908060040154908060050154908060060154908060070154908060080154908060090180546109a490612272565b80601f01602080910402602001604051908101604052809291908181526020018280546109d090612272565b8015610a1d5780601f106109f257610100808354040283529160200191610a1d565b820191906000526020600020905b815481529060010190602001808311610a0057829003601f168201915b50505050600a830154600b840154600c850154600d90950154939491936001600160a01b03909116925060ff168e565b610a55611689565b610a5f82826116e3565b5050565b610a6d33826116fb565b610a895760405162461bcd60e51b8152600401610792906122ac565b61083383838361175a565b600960205260009081526040902080546001820154600283015460038401546004850154600586015460068701805496976001600160a01b03909616969495939492939192610ae290612272565b80601f0160208091040260200160405190810160405280929190818152602001828054610b0e90612272565b8015610b5b5780601f10610b3057610100808354040283529160200191610b5b565b820191906000526020600020905b815481529060010190602001808311610b3e57829003601f168201915b5050505050905087565b600a6020528160005260406000208181548110610b8157600080fd5b90600052602060002001600091509150505481565b61083383838360405180602001604052806000815250610dab565b6001600160a01b0381166000908152600a6020908152604091829020805483518184028101840190945280845260609392830182828015610c1157602002820191906000526020600020905b815481526020019060010190808311610bfd575b50505050509050919050565b6000818152600860205260409020600101546001600160a01b03163314610c745760405162461bcd60e51b815260206004820152600b60248201526a2737ba1031b932b0ba37b960a91b6044820152606401610792565b6000908152600860205260409020600d01805460ff19811660ff90911615179055565b6000818152600260205260408120546001600160a01b03168061065f5760405162461bcd60e51b8152602060048201526018602482015277115490cdcc8c4e881a5b9d985b1a59081d1bdad95b88125160421b6044820152606401610792565b60006001600160a01b038216610d615760405162461bcd60e51b815260206004820152602960248201527f4552433732313a2061646472657373207a65726f206973206e6f7420612076616044820152683634b21037bbb732b960b91b6064820152608401610792565b506001600160a01b031660009081526003602052604090205490565b610d85611689565b610d8f60006118be565b565b60606001805461067490612272565b610a5f338383611910565b610db533836116fb565b610dd15760405162461bcd60e51b8152600401610792906122ac565b610ddd848484846119de565b50505050565b6000818152600260205260409020546060906001600160a01b0316610e3c5760405162461bcd60e51b815260206004820152600f60248201526e151bdad95b881b9bdd08199bdd5b99608a1b6044820152606401610792565b6000828152600d602052604090208054610e5590612272565b80601f0160208091040260200160405190810160405280929190818152602001828054610e8190612272565b8015610c115780601f10610ea357610100808354040283529160200191610c11565b820191906000526020600020905b815481529060010190602001808311610eb15750939695505050505050565b336000908152600b602052604090205480610f245760405162461bcd60e51b81526020600482015260146024820152734e6f206561726e696e677320746f20636c61696d60601b6044820152606401610792565b6000612710600e54612710610f39919061230f565b610f439084612322565b610f4d9190612339565b336000818152600b602052604080822082905551929350909183156108fc0291849190818181858888f19350505050158015610f8d573d6000803e3d6000fd5b50600e5415610fd957600f546001600160a01b03166108fc610faf838561230f565b6040518115909202916000818181858888f19350505050158015610fd7573d6000803e3d6000fd5b505b60405181815233907f6a8d334a32dfb49dae325dba76deb51b0b8f5ea50b1cdfa70710f4dc1b9c24c59060200160405180910390a25050565b600080600061102060075490565b60075447925092509250909192565b60008061103b60075490565b9050604051806101c00160405280828152602001336001600160a01b031681526020018d81526020018c81526020018b81526020018a8152602001898152602001888152602001878152602001868152602001858152602001846001600160a01b031681526020016000815260200160011515815250600860008381526020019081526020016000206000820151816000015560208201518160010160006101000a8154816001600160a01b0302191690836001600160a01b03160217905550604082015181600201908161111091906123a9565b506060820151600382019061112590826123a9565b506080820151600482015560a0820151600582015560c0820151600682015560e082015160078201556101008201516008820155610120820151600982019061116e90826123a9565b5061014082015181600a015561016082015181600b0160006101000a8154816001600160a01b0302191690836001600160a01b0316021790555061018082015181600c01556101a082015181600d0160006101000a81548160ff021916908315150217905550905050336001600160a01b0316817fc04c663886cae794dc52158f70fe6c8ee3b0140d4f48647282f9b693ff688a658e6040516112119190611d1d565b60405180910390a3611227600780546001019055565b9b9a5050505050505050505050565b6001600160a01b03918216600090815260056020908152604080832093909416825291909152205460ff1690565b61126c611689565b6001600160a01b0381166112d15760405162461bcd60e51b815260206004820152602660248201527f4f776e61626c653a206e6577206f776e657220697320746865207a65726f206160448201526564647265737360d01b6064820152608401610792565b6112da816118be565b50565b600085815260086020526040902060018101546001600160a01b0316331461133e5760405162461bcd60e51b81526020600482015260146024820152732737ba1031b0b6b830b4b3b71031b932b0ba37b960611b6044820152606401610792565b600d81015460ff166113885760405162461bcd60e51b815260206004820152601360248201527243616d706169676e206e6f742061637469766560681b6044820152606401610792565b80600701544210156113d35760405162461bcd60e51b815260206004820152601460248201527310d85b5c185a59db881b9bdd081cdd185c9d195960621b6044820152606401610792565b80600801544211156114185760405162461bcd60e51b815260206004820152600e60248201526d10d85b5c185a59db88195b99195960921b6044820152606401610792565b600061142360075490565b905061142f8882611a11565b61143981876116e3565b6040805160e0810182528281526001600160a01b038a811660208084019182528385018c81524260608601908152608086018c815260a087018c815260c088018c815260008b81526009909652989094208751815594516001860180546001600160a01b0319169190971617909555905160028401555160038301559151600482015590516005820155915190919060068201906114d790826123a9565b5050506001600160a01b038089166000908152600a602081815260408084208054600181810183559186528386200187905592870154928701549094168352600b9052918120805483929061152d908490612469565b909155505060018301546001600160a01b03166000908152600c6020526040812080549161155a8361247c565b9190505550886001600160a01b0316827f055e34067993de700e7f718f190fdccc92a27695bb9068504a1a44258577f8eb8a60405161159b91815260200190565b60405180910390a36115b1600780546001019055565b505050505050505050565b6000818152600260205260409020546001600160a01b03166112da5760405162461bcd60e51b8152602060048201526018602482015277115490cdcc8c4e881a5b9d985b1a59081d1bdad95b88125160421b6044820152606401610792565b600081815260046020526040902080546001600160a01b0319166001600160a01b038416908117909155819061165082610c97565b6001600160a01b03167f8c5be1e5ebec7d5bd14f71427d1e84f3dd0314c0f7b2291e5b200ac8c7c3b92560405160405180910390a45050565b6006546001600160a01b03163314610d8f5760405162461bcd60e51b815260206004820181905260248201527f4f776e61626c653a2063616c6c6572206973206e6f7420746865206f776e65726044820152606401610792565b6000828152600d6020526040902061083382826123a9565b60008061170783610c97565b9050806001600160a01b0316846001600160a01b0316148061172e575061172e8185611236565b806117525750836001600160a01b0316611747846106f7565b6001600160a01b0316145b949350505050565b826001600160a01b031661176d82610c97565b6001600160a01b0316146117935760405162461bcd60e51b815260040161079290612495565b6001600160a01b0382166117f55760405162461bcd60e51b8152602060048201526024808201527f4552433732313a207472616e7366657220746f20746865207a65726f206164646044820152637265737360e01b6064820152608401610792565b826001600160a01b031661180882610c97565b6001600160a01b03161461182e5760405162461bcd60e51b815260040161079290612495565b600081815260046020908152604080832080546001600160a01b03199081169091556001600160a01b0387811680865260038552838620805460001901905590871680865283862080546001019055868652600290945282852080549092168417909155905184937fddf252ad1be2c89b69c2b068fc378daa952ba7f163c4a11628f55a4df523b3ef91a4505050565b600680546001600160a01b038381166001600160a01b0319831681179093556040519116919082907f8be0079c531659141344cd1fd0a4f28419497f9722a3daafe3b4186f6b6457e090600090a35050565b816001600160a01b0316836001600160a01b0316036119715760405162461bcd60e51b815260206004820152601960248201527f4552433732313a20617070726f766520746f2063616c6c6572000000000000006044820152606401610792565b6001600160a01b03838116600081815260056020908152604080832094871680845294825291829020805460ff191686151590811790915591519182527f17307eab39ab6107e8899845ad3d59bd9653f200f220920489ca2b5937696c31910160405180910390a3505050565b6119e984848461175a565b6119f584848484611b9c565b610ddd5760405162461bcd60e51b8152600401610792906124da565b6001600160a01b038216611a675760405162461bcd60e51b815260206004820181905260248201527f4552433732313a206d696e7420746f20746865207a65726f20616464726573736044820152606401610792565b6000818152600260205260409020546001600160a01b031615611acc5760405162461bcd60e51b815260206004820152601c60248201527f4552433732313a20746f6b656e20616c7265616479206d696e746564000000006044820152606401610792565b6000818152600260205260409020546001600160a01b031615611b315760405162461bcd60e51b815260206004820152601c60248201527f4552433732313a20746f6b656e20616c7265616479206d696e746564000000006044820152606401610792565b6001600160a01b038216600081815260036020908152604080832080546001019055848352600290915280822080546001600160a01b0319168417905551839291907fddf252ad1be2c89b69c2b068fc378daa952ba7f163c4a11628f55a4df523b3ef908290a45050565b60006001600160a01b0384163b15611c9257604051630a85bd0160e11b81526001600160a01b0385169063150b7a0290611be090339089908890889060040161252c565b6020604051808303816000875af1925050508015611c1b575060408051601f3d908101601f19168201909252611c1891810190612569565b60015b611c78573d808015611c49576040519150601f19603f3d011682016040523d82523d6000602084013e611c4e565b606091505b508051600003611c705760405162461bcd60e51b8152600401610792906124da565b805181602001fd5b6001600160e01b031916630a85bd0160e11b149050611752565b506001949350505050565b6001600160e01b0319811681146112da57600080fd5b600060208284031215611cc557600080fd5b8135611cd081611c9d565b9392505050565b6000815180845260005b81811015611cfd57602081850181015186830182015201611ce1565b506000602082860101526020601f19601f83011685010191505092915050565b602081526000611cd06020830184611cd7565b600060208284031215611d4257600080fd5b5035919050565b80356001600160a01b0381168114611d6057600080fd5b919050565b60008060408385031215611d7857600080fd5b611d8183611d49565b946020939093013593505050565b8e81526001600160a01b038e1660208201526101c060408201526000611db96101c083018f611cd7565b8281036060840152611dcb818f611cd7565b90508c60808401528b60a08401528a60c08401528960e084015288610100840152828103610120840152611dff8189611cd7565b91505085610140830152611e1f6101608301866001600160a01b03169052565b83610180830152611e356101a083018415159052565b9f9e505050505050505050505050505050565b634e487b7160e01b600052604160045260246000fd5b600067ffffffffffffffff80841115611e7957611e79611e48565b604051601f8501601f19908116603f01168101908282118183101715611ea157611ea1611e48565b81604052809350858152868686011115611eba57600080fd5b858560208301376000602087830101525050509392505050565b600082601f830112611ee557600080fd5b611cd083833560208501611e5e565b60008060408385031215611f0757600080fd5b82359150602083013567ffffffffffffffff811115611f2557600080fd5b611f3185828601611ed4565b9150509250929050565b600080600060608486031215611f5057600080fd5b611f5984611d49565b9250611f6760208501611d49565b9150604084013590509250925092565b87815260018060a01b03871660208201528560408201528460608201528360808201528260a082015260e060c08201526000611fb660e0830184611cd7565b9998505050505050505050565b600060208284031215611fd557600080fd5b611cd082611d49565b6020808252825182820181905260009190848201906040850190845b8181101561201657835183529284019291840191600101611ffa565b50909695505050505050565b6000806040838503121561203557600080fd5b61203e83611d49565b91506020830135801515811461205357600080fd5b809150509250929050565b6000806000806080858703121561207457600080fd5b61207d85611d49565b935061208b60208601611d49565b925060408501359150606085013567ffffffffffffffff8111156120ae57600080fd5b8501601f810187136120bf57600080fd5b6120ce87823560208401611e5e565b91505092959194509250565b6000806000806000806000806000806101408b8d0312156120fa57600080fd5b8a3567ffffffffffffffff8082111561211257600080fd5b61211e8e838f01611ed4565b9b5060208d013591508082111561213457600080fd5b6121408e838f01611ed4565b9a5060408d0135995060608d0135985060808d0135975060a08d0135965060c08d0135955060e08d013591508082111561217957600080fd5b506121868d828e01611ed4565b9350506101008b0135915061219e6101208c01611d49565b90509295989b9194979a5092959850565b600080604083850312156121c257600080fd5b6121cb83611d49565b91506121d960208401611d49565b90509250929050565b60008060008060008060c087890312156121fb57600080fd5b61220487611d49565b955060208701359450604087013567ffffffffffffffff8082111561222857600080fd5b6122348a838b01611ed4565b9550606089013594506080890135935060a089013591508082111561225857600080fd5b5061226589828a01611ed4565b9150509295509295509295565b600181811c9082168061228657607f821691505b6020821081036122a657634e487b7160e01b600052602260045260246000fd5b50919050565b6020808252602d908201527f4552433732313a2063616c6c6572206973206e6f7420746f6b656e206f776e6560408201526c1c881bdc88185c1c1c9bdd9959609a1b606082015260800190565b634e487b7160e01b600052601160045260246000fd5b8181038181111561065f5761065f6122f9565b808202811582820484141761065f5761065f6122f9565b60008261235657634e487b7160e01b600052601260045260246000fd5b500490565b601f82111561083357600081815260208120601f850160051c810160208610156123825750805b601f850160051c820191505b818110156123a15782815560010161238e565b505050505050565b815167ffffffffffffffff8111156123c3576123c3611e48565b6123d7816123d18454612272565b8461235b565b602080601f83116001811461240c57600084156123f45750858301515b600019600386901b1c1916600185901b1785556123a1565b600085815260208120601f198616915b8281101561243b5788860151825594840194600190910190840161241c565b50858210156124595787850151600019600388901b60f8161c191681555b5050505050600190811b01905550565b8082018082111561065f5761065f6122f9565b60006001820161248e5761248e6122f9565b5060010190565b60208082526025908201527f4552433732313a207472616e736665722066726f6d20696e636f72726563742060408201526437bbb732b960d91b606082015260800190565b60208082526032908201527f4552433732313a207472616e7366657220746f206e6f6e20455243373231526560408201527131b2b4bb32b91034b6b83632b6b2b73a32b960711b606082015260800190565b6001600160a01b038581168252841660208201526040810183905260806060820181905260009061255f90830184611cd7565b9695505050505050565b60006020828403121561257b57600080fd5b8151611cd081611c9d56fea26469706673582212207024448d488c5c1e6a954aac8e8372358646fc9f3765617627de14fd5aebbf2664736f6c63430008130033",
  "immutableReferences": {},
  "source": "// PSL FanChain Campaign & NFT Contract\n// SPDX-License-Identifier: MIT\npragma solidity ^0.8.19;\n\nimport \"@openzeppelin/contracts/token/ERC721/ERC721.sol\";\nimport \"@openzeppelin/contracts/access/Ownable.sol\";\nimport \"@openzeppelin/contracts/utils/Counters.sol\";\n\n/**\n * FanChain Campaign Contract\n * Handles influencer campaigns, NFT minting, and proof-of-attendance\n */\ncontract FanChain is ERC721, Ownable {\n    using Counters for Counters.Counter;\n    Counters.Counter private _tokenIds;\n\n    // Structure for Campaign\n    struct Campaign {\n        uint256 id;\n        address creator;\n        string name;\n        string description;\n        uint256 stadiumLat;\n        uint256 stadiumLng;\n        uint256 geoRadius;\n        uint256 startTime;\n        uint256 endTime;\n        string rewardTier;\n        uint256 rewardPoints;\n        address sponsor;\n        uint256 sponsorFee;\n        bool active;\n    }\n\n    // Structure for NFT (Proof of Attendance)\n    struct AttendanceNFT {\n        uint256 tokenId;\n        address owner;\n        uint256 campaignId;\n        uint256 timestamp;\n        uint256 lat;\n        uint256 lng;\n        string influencerId;\n    }\n\n    // Mappings\n    mapping(uint256 => Campaign) public campaigns;\n    mapping(uint256 => AttendanceNFT) public nfts;\n    mapping(address => uint256[]) public userNFTs;\n    mapping(address => uint256) public influencerEarnings;\n    mapping(address => uint256) public totalCheckIns;\n    mapping(uint256 => string) private _tokenURIs;\n\n    // Platform fee (5%)\n    uint256 public platformFee = 500;\n    address public platformWallet;\n\n    // Events\n    event CampaignCreated(uint256 indexed id, address indexed creator, string name);\n    event NFTMinted(uint256 indexed tokenId, address indexed owner, uint256 campaignId);\n    event EarningsClaimed(address indexed influencer, uint256 amount);\n\n    constructor(address _platformWallet) ERC721(\"PSL FanChain\", \"PSLF\") {\n        platformWallet = _platformWallet;\n    }\n\n    // Create new campaign\n    function createCampaign(\n        string memory _name,\n        string memory _description,\n        uint256 _stadiumLat,\n        uint256 _stadiumLng,\n        uint256 _geoRadius,\n        uint256 _startTime,\n        uint256 _endTime,\n        string memory _rewardTier,\n        uint256 _rewardPoints,\n        address _sponsor\n    ) external returns (uint256) {\n        uint256 campaignId = _tokenIds.current();\n        \n        campaigns[campaignId] = Campaign({\n            id: campaignId,\n            creator: msg.sender,\n            name: _name,\n            description: _description,\n            stadiumLat: _stadiumLat,\n            stadiumLng: _stadiumLng,\n            geoRadius: _geoRadius,\n            startTime: _startTime,\n            endTime: _endTime,\n            rewardTier: _rewardTier,\n            rewardPoints: _rewardPoints,\n            sponsor: _sponsor,\n            sponsorFee: 0,\n            active: true\n        });\n\n        emit CampaignCreated(campaignId, msg.sender, _name);\n        _tokenIds.increment();\n        \n        return campaignId;\n    }\n\n    // Mint NFT for attendance\n    function mintAttendanceNFT(\n        address _to,\n        uint256 _campaignId,\n        string memory _tokenURI,\n        uint256 _lat,\n        uint256 _lng,\n        string memory _influencerId\n    ) external {\n        Campaign storage campaign = campaigns[_campaignId];\n        require(campaign.creator == msg.sender, \"Not campaign creator\");\n        require(campaign.active, \"Campaign not active\");\n        require(block.timestamp >= campaign.startTime, \"Campaign not started\");\n        require(block.timestamp <= campaign.endTime, \"Campaign ended\");\n\n        uint256 newTokenId = _tokenIds.current();\n        _mint(_to, newTokenId);\n        _setTokenURI(newTokenId, _tokenURI);\n\n        // Store attendance proof\n        nfts[newTokenId] = AttendanceNFT({\n            tokenId: newTokenId,\n            owner: _to,\n            campaignId: _campaignId,\n            timestamp: block.timestamp,\n            lat: _lat,\n            lng: _lng,\n            influencerId: _influencerId\n        });\n\n        userNFTs[_to].push(newTokenId);\n\n        // Update influencer earnings\n        uint256 reward = campaign.rewardPoints;\n        influencerEarnings[campaign.creator] += reward;\n        totalCheckIns[campaign.creator]++;\n\n        emit NFTMinted(newTokenId, _to, _campaignId);\n        _tokenIds.increment();\n    }\n\n    // Set token URI\n    function setTokenURI(uint256 _tokenId, string memory _uri) external onlyOwner {\n        _setTokenURI(_tokenId, _uri);\n    }\n\n    function _setTokenURI(uint256 _tokenId, string memory _uri) internal {\n        _tokenURIs[_tokenId] = _uri;\n    }\n\n    function tokenURI(uint256 _tokenId) public view override returns (string memory) {\n        require(_ownerOf(_tokenId) != address(0), \"Token not found\");\n        return _tokenURIs[_tokenId];\n    }\n\n    // Claim earnings\n    function claimEarnings() external {\n        uint256 earnings = influencerEarnings[msg.sender];\n        require(earnings > 0, \"No earnings to claim\");\n\n        uint256 net = earnings * (10000 - platformFee) / 10000;\n        influencerEarnings[msg.sender] = 0;\n\n        payable(msg.sender).transfer(net);\n        if (platformFee > 0) {\n            payable(platformWallet).transfer(earnings - net);\n        }\n\n        emit EarningsClaimed(msg.sender, net);\n    }\n\n    // Toggle campaign status\n    function toggleCampaign(uint256 _campaignId) external {\n        require(campaigns[_campaignId].creator == msg.sender, \"Not creator\");\n        campaigns[_campaignId].active = !campaigns[_campaignId].active;\n    }\n\n    // Get user NFTs\n    function getUserNFTs(address _user) external view returns (uint256[] memory) {\n        return userNFTs[_user];\n    }\n\n    // Get contract stats\n    function getContractStats() external view returns (\n        uint256 totalCampaigns,\n        uint256 totalNFTs,\n        uint256 totalEarnings\n    ) {\n        return (\n            _tokenIds.current(),\n            _tokenIds.current(),\n            address(this).balance\n        );\n    }\n\n    // Receive Ether\n    receive() external payable {}\n}\n",
  "sourcePath": "C:\\Users\\ibrahim.q.scs\\.openclaw\\workspace\\psl-fanchain\\contracts\\FanChain.sol",
  "compiler": {
    "name": "solc",
    "version": "0.8.19+commit.7dd6d404.Emscripten.clang"
  },
  "schemaVersion": "3.4.16",
  "updatedAt": "2026-04-13T09:49:03.532Z",
  "devdoc": {
    "events": {
      "Approval(address,address,uint256)": {
        "details": "Emitted when `owner` enables `approved` to manage the `tokenId` token."
      },
      "ApprovalForAll(address,address,bool)": {
        "details": "Emitted when `owner` enables or disables (`approved`) `operator` to manage all of its assets."
      },
      "Transfer(address,address,uint256)": {
        "details": "Emitted when `tokenId` token is transferred from `from` to `to`."
      }
    },
    "kind": "dev",
    "methods": {
      "approve(address,uint256)": {
        "details": "See {IERC721-approve}."
      },
      "balanceOf(address)": {
        "details": "See {IERC721-balanceOf}."
      },
      "getApproved(uint256)": {
        "details": "See {IERC721-getApproved}."
      },
      "isApprovedForAll(address,address)": {
        "details": "See {IERC721-isApprovedForAll}."
      },
      "name()": {
        "details": "See {IERC721Metadata-name}."
      },
      "owner()": {
        "details": "Returns the address of the current owner."
      },
      "ownerOf(uint256)": {
        "details": "See {IERC721-ownerOf}."
      },
      "renounceOwnership()": {
        "details": "Leaves the contract without owner. It will not be possible to call `onlyOwner` functions. Can only be called by the current owner. NOTE: Renouncing ownership will leave the contract without an owner, thereby disabling any functionality that is only available to the owner."
      },
      "safeTransferFrom(address,address,uint256)": {
        "details": "See {IERC721-safeTransferFrom}."
      },
      "safeTransferFrom(address,address,uint256,bytes)": {
        "details": "See {IERC721-safeTransferFrom}."
      },
      "setApprovalForAll(address,bool)": {
        "details": "See {IERC721-setApprovalForAll}."
      },
      "supportsInterface(bytes4)": {
        "details": "See {IERC165-supportsInterface}."
      },
      "symbol()": {
        "details": "See {IERC721Metadata-symbol}."
      },
      "transferFrom(address,address,uint256)": {
        "details": "See {IERC721-transferFrom}."
      },
      "transferOwnership(address)": {
        "details": "Transfers ownership of the contract to a new account (`newOwner`). Can only be called by the current owner."
      }
    },
    "version": 1
  },
  "userdoc": {
    "kind": "user",
    "methods": {},
    "notice": "FanChain Campaign Contract Handles influencer campaigns, NFT minting, and proof-of-attendance",
    "version": 1
  }
}