{
  "_format": "hh-sol-artifact-1",
  "contractName": "FanChain",
  "sourceName": "contracts/FanChain.sol",
  "abi": [
    {
      "inputs": [
        {
          "internalType": "address",
          "name": "_platformWallet",
          "type": "address"
        }
      ],
      "stateMutability": "nonpayable",
      "type": "constructor"
    },
    {
      "anonymous": false,
      "inputs": [
        {
          "indexed": true,
          "internalType": "address",
          "name": "owner",
          "type": "address"
        },
        {
          "indexed": true,
          "internalType": "address",
          "name": "approved",
          "type": "address"
        },
        {
          "indexed": true,
          "internalType": "uint256",
          "name": "tokenId",
          "type": "uint256"
        }
      ],
      "name": "Approval",
      "type": "event"
    },
    {
      "anonymous": false,
      "inputs": [
        {
          "indexed": true,
          "internalType": "address",
          "name": "owner",
          "type": "address"
        },
        {
          "indexed": true,
          "internalType": "address",
          "name": "operator",
          "type": "address"
        },
        {
          "indexed": false,
          "internalType": "bool",
          "name": "approved",
          "type": "bool"
        }
      ],
      "name": "ApprovalForAll",
      "type": "event"
    },
    {
      "anonymous": false,
      "inputs": [
        {
          "indexed": true,
          "internalType": "uint256",
          "name": "id",
          "type": "uint256"
        },
        {
          "indexed": true,
          "internalType": "address",
          "name": "creator",
          "type": "address"
        },
        {
          "indexed": false,
          "internalType": "string",
          "name": "name",
          "type": "string"
        }
      ],
      "name": "CampaignCreated",
      "type": "event"
    },
    {
      "anonymous": false,
      "inputs": [
        {
          "indexed": true,
          "internalType": "address",
          "name": "influencer",
          "type": "address"
        },
        {
          "indexed": false,
          "internalType": "uint256",
          "name": "amount",
          "type": "uint256"
        }
      ],
      "name": "EarningsClaimed",
      "type": "event"
    },
    {
      "anonymous": false,
      "inputs": [
        {
          "indexed": true,
          "internalType": "uint256",
          "name": "tokenId",
          "type": "uint256"
        },
        {
          "indexed": true,
          "internalType": "address",
          "name": "owner",
          "type": "address"
        },
        {
          "indexed": false,
          "internalType": "uint256",
          "name": "campaignId",
          "type": "uint256"
        }
      ],
      "name": "NFTMinted",
      "type": "event"
    },
    {
      "anonymous": false,
      "inputs": [
        {
          "indexed": true,
          "internalType": "address",
          "name": "previousOwner",
          "type": "address"
        },
        {
          "indexed": true,
          "internalType": "address",
          "name": "newOwner",
          "type": "address"
        }
      ],
      "name": "OwnershipTransferred",
      "type": "event"
    },
    {
      "anonymous": false,
      "inputs": [
        {
          "indexed": true,
          "internalType": "address",
          "name": "from",
          "type": "address"
        },
        {
          "indexed": true,
          "internalType": "address",
          "name": "to",
          "type": "address"
        },
        {
          "indexed": true,
          "internalType": "uint256",
          "name": "tokenId",
          "type": "uint256"
        }
      ],
      "name": "Transfer",
      "type": "event"
    },
    {
      "inputs": [],
      "name": "CHECKIN_TYPEHASH",
      "outputs": [
        {
          "internalType": "bytes32",
          "name": "",
          "type": "bytes32"
        }
      ],
      "stateMutability": "view",
      "type": "function"
    },
    {
      "inputs": [],
      "name": "DOMAIN_SEPARATOR",
      "outputs": [
        {
          "internalType": "bytes32",
          "name": "",
          "type": "bytes32"
        }
      ],
      "stateMutability": "view",
      "type": "function"
    },
    {
      "inputs": [
        {
          "internalType": "address",
          "name": "to",
          "type": "address"
        },
        {
          "internalType": "uint256",
          "name": "tokenId",
          "type": "uint256"
        }
      ],
      "name": "approve",
      "outputs": [],
      "stateMutability": "nonpayable",
      "type": "function"
    },
    {
      "inputs": [
        {
          "internalType": "address",
          "name": "owner",
          "type": "address"
        }
      ],
      "name": "balanceOf",
      "outputs": [
        {
          "internalType": "uint256",
          "name": "",
          "type": "uint256"
        }
      ],
      "stateMutability": "view",
      "type": "function"
    },
    {
      "inputs": [
        {
          "internalType": "uint256",
          "name": "",
          "type": "uint256"
        }
      ],
      "name": "campaigns",
      "outputs": [
        {
          "internalType": "uint256",
          "name": "id",
          "type": "uint256"
        },
        {
          "internalType": "address",
          "name": "creator",
          "type": "address"
        },
        {
          "internalType": "string",
          "name": "name",
          "type": "string"
        },
        {
          "internalType": "string",
          "name": "description",
          "type": "string"
        },
        {
          "internalType": "uint256",
          "name": "stadiumLat",
          "type": "uint256"
        },
        {
          "internalType": "uint256",
          "name": "stadiumLng",
          "type": "uint256"
        },
        {
          "internalType": "uint256",
          "name": "geoRadius",
          "type": "uint256"
        },
        {
          "internalType": "uint256",
          "name": "startTime",
          "type": "uint256"
        },
        {
          "internalType": "uint256",
          "name": "endTime",
          "type": "uint256"
        },
        {
          "internalType": "string",
          "name": "rewardTier",
          "type": "string"
        },
        {
          "internalType": "uint256",
          "name": "rewardPoints",
          "type": "uint256"
        },
        {
          "internalType": "address",
          "name": "sponsor",
          "type": "address"
        },
        {
          "internalType": "uint256",
          "name": "sponsorFee",
          "type": "uint256"
        },
        {
          "internalType": "bool",
          "name": "active",
          "type": "bool"
        }
      ],
      "stateMutability": "view",
      "type": "function"
    },
    {
      "inputs": [],
      "name": "claimEarnings",
      "outputs": [],
      "stateMutability": "nonpayable",
      "type": "function"
    },
    {
      "inputs": [
        {
          "internalType": "string",
          "name": "_name",
          "type": "string"
        },
        {
          "internalType": "string",
          "name": "_description",
          "type": "string"
        },
        {
          "internalType": "uint256",
          "name": "_stadiumLat",
          "type": "uint256"
        },
        {
          "internalType": "uint256",
          "name": "_stadiumLng",
          "type": "uint256"
        },
        {
          "internalType": "uint256",
          "name": "_geoRadius",
          "type": "uint256"
        },
        {
          "internalType": "uint256",
          "name": "_startTime",
          "type": "uint256"
        },
        {
          "internalType": "uint256",
          "name": "_endTime",
          "type": "uint256"
        },
        {
          "internalType": "string",
          "name": "_rewardTier",
          "type": "string"
        },
        {
          "internalType": "uint256",
          "name": "_rewardPoints",
          "type": "uint256"
        },
        {
          "internalType": "address",
          "name": "_sponsor",
          "type": "address"
        }
      ],
      "name": "createCampaign",
      "outputs": [
        {
          "internalType": "uint256",
          "name": "",
          "type": "uint256"
        }
      ],
      "stateMutability": "nonpayable",
      "type": "function"
    },
    {
      "inputs": [
        {
          "internalType": "uint256",
          "name": "tokenId",
          "type": "uint256"
        }
      ],
      "name": "getApproved",
      "outputs": [
        {
          "internalType": "address",
          "name": "",
          "type": "address"
        }
      ],
      "stateMutability": "view",
      "type": "function"
    },
    {
      "inputs": [],
      "name": "getContractStats",
      "outputs": [
        {
          "internalType": "uint256",
          "name": "totalCampaigns",
          "type": "uint256"
        },
        {
          "internalType": "uint256",
          "name": "totalNFTs",
          "type": "uint256"
        },
        {
          "internalType": "uint256",
          "name": "totalEarnings",
          "type": "uint256"
        }
      ],
      "stateMutability": "view",
      "type": "function"
    },
    {
      "inputs": [
        {
          "internalType": "address",
          "name": "_user",
          "type": "address"
        }
      ],
      "name": "getUserNFTs",
      "outputs": [
        {
          "internalType": "uint256[]",
          "name": "",
          "type": "uint256[]"
        }
      ],
      "stateMutability": "view",
      "type": "function"
    },
    {
      "inputs": [
        {
          "internalType": "address",
          "name": "",
          "type": "address"
        },
        {
          "internalType": "uint256",
          "name": "",
          "type": "uint256"
        }
      ],
      "name": "hasMintedCampaign",
      "outputs": [
        {
          "internalType": "bool",
          "name": "",
          "type": "bool"
        }
      ],
      "stateMutability": "view",
      "type": "function"
    },
    {
      "inputs": [
        {
          "internalType": "address",
          "name": "",
          "type": "address"
        }
      ],
      "name": "influencerEarnings",
      "outputs": [
        {
          "internalType": "uint256",
          "name": "",
          "type": "uint256"
        }
      ],
      "stateMutability": "view",
      "type": "function"
    },
    {
      "inputs": [
        {
          "internalType": "address",
          "name": "owner",
          "type": "address"
        },
        {
          "internalType": "address",
          "name": "operator",
          "type": "address"
        }
      ],
      "name": "isApprovedForAll",
      "outputs": [
        {
          "internalType": "bool",
          "name": "",
          "type": "bool"
        }
      ],
      "stateMutability": "view",
      "type": "function"
    },
    {
      "inputs": [
        {
          "internalType": "address",
          "name": "_to",
          "type": "address"
        },
        {
          "internalType": "uint256",
          "name": "_campaignId",
          "type": "uint256"
        },
        {
          "internalType": "string",
          "name": "_tokenURI",
          "type": "string"
        },
        {
          "internalType": "uint256",
          "name": "_lat",
          "type": "uint256"
        },
        {
          "internalType": "uint256",
          "name": "_lng",
          "type": "uint256"
        },
        {
          "internalType": "string",
          "name": "_influencerId",
          "type": "string"
        }
      ],
      "name": "mintAttendanceNFT",
      "outputs": [],
      "stateMutability": "nonpayable",
      "type": "function"
    },
    {
      "inputs": [
        {
          "internalType": "address",
          "name": "user",
          "type": "address"
        },
        {
          "internalType": "uint256",
          "name": "campaignId",
          "type": "uint256"
        },
        {
          "internalType": "uint256",
          "name": "lat",
          "type": "uint256"
        },
        {
          "internalType": "uint256",
          "name": "lng",
          "type": "uint256"
        },
        {
          "internalType": "uint256",
          "name": "timestamp",
          "type": "uint256"
        },
        {
          "internalType": "uint256",
          "name": "nonce",
          "type": "uint256"
        },
        {
          "internalType": "uint256",
          "name": "expiry",
          "type": "uint256"
        },
        {
          "internalType": "bytes",
          "name": "signature",
          "type": "bytes"
        },
        {
          "internalType": "string",
          "name": "_tokenURI",
          "type": "string"
        }
      ],
      "name": "mintWithSignature",
      "outputs": [],
      "stateMutability": "nonpayable",
      "type": "function"
    },
    {
      "inputs": [],
      "name": "name",
      "outputs": [
        {
          "internalType": "string",
          "name": "",
          "type": "string"
        }
      ],
      "stateMutability": "view",
      "type": "function"
    },
    {
      "inputs": [
        {
          "internalType": "uint256",
          "name": "",
          "type": "uint256"
        }
      ],
      "name": "nfts",
      "outputs": [
        {
          "internalType": "uint256",
          "name": "tokenId",
          "type": "uint256"
        },
        {
          "internalType": "address",
          "name": "owner",
          "type": "address"
        },
        {
          "internalType": "uint256",
          "name": "campaignId",
          "type": "uint256"
        },
        {
          "internalType": "uint256",
          "name": "timestamp",
          "type": "uint256"
        },
        {
          "internalType": "uint256",
          "name": "lat",
          "type": "uint256"
        },
        {
          "internalType": "uint256",
          "name": "lng",
          "type": "uint256"
        },
        {
          "internalType": "string",
          "name": "influencerId",
          "type": "string"
        }
      ],
      "stateMutability": "view",
      "type": "function"
    },
    {
      "inputs": [],
      "name": "owner",
      "outputs": [
        {
          "internalType": "address",
          "name": "",
          "type": "address"
        }
      ],
      "stateMutability": "view",
      "type": "function"
    },
    {
      "inputs": [
        {
          "internalType": "uint256",
          "name": "tokenId",
          "type": "uint256"
        }
      ],
      "name": "ownerOf",
      "outputs": [
        {
          "internalType": "address",
          "name": "",
          "type": "address"
        }
      ],
      "stateMutability": "view",
      "type": "function"
    },
    {
      "inputs": [],
      "name": "platformFee",
      "outputs": [
        {
          "internalType": "uint256",
          "name": "",
          "type": "uint256"
        }
      ],
      "stateMutability": "view",
      "type": "function"
    },
    {
      "inputs": [],
      "name": "platformWallet",
      "outputs": [
        {
          "internalType": "address",
          "name": "",
          "type": "address"
        }
      ],
      "stateMutability": "view",
      "type": "function"
    },
    {
      "inputs": [],
      "name": "renounceOwnership",
      "outputs": [],
      "stateMutability": "nonpayable",
      "type": "function"
    },
    {
      "inputs": [
        {
          "internalType": "address",
          "name": "from",
          "type": "address"
        },
        {
          "internalType": "address",
          "name": "to",
          "type": "address"
        },
        {
          "internalType": "uint256",
          "name": "tokenId",
          "type": "uint256"
        }
      ],
      "name": "safeTransferFrom",
      "outputs": [],
      "stateMutability": "nonpayable",
      "type": "function"
    },
    {
      "inputs": [
        {
          "internalType": "address",
          "name": "from",
          "type": "address"
        },
        {
          "internalType": "address",
          "name": "to",
          "type": "address"
        },
        {
          "internalType": "uint256",
          "name": "tokenId",
          "type": "uint256"
        },
        {
          "internalType": "bytes",
          "name": "data",
          "type": "bytes"
        }
      ],
      "name": "safeTransferFrom",
      "outputs": [],
      "stateMutability": "nonpayable",
      "type": "function"
    },
    {
      "inputs": [
        {
          "internalType": "address",
          "name": "operator",
          "type": "address"
        },
        {
          "internalType": "bool",
          "name": "approved",
          "type": "bool"
        }
      ],
      "name": "setApprovalForAll",
      "outputs": [],
      "stateMutability": "nonpayable",
      "type": "function"
    },
    {
      "inputs": [
        {
          "internalType": "uint256",
          "name": "_tokenId",
          "type": "uint256"
        },
        {
          "internalType": "string",
          "name": "_uri",
          "type": "string"
        }
      ],
      "name": "setTokenURI",
      "outputs": [],
      "stateMutability": "nonpayable",
      "type": "function"
    },
    {
      "inputs": [
        {
          "internalType": "bytes4",
          "name": "interfaceId",
          "type": "bytes4"
        }
      ],
      "name": "supportsInterface",
      "outputs": [
        {
          "internalType": "bool",
          "name": "",
          "type": "bool"
        }
      ],
      "stateMutability": "view",
      "type": "function"
    },
    {
      "inputs": [],
      "name": "symbol",
      "outputs": [
        {
          "internalType": "string",
          "name": "",
          "type": "string"
        }
      ],
      "stateMutability": "view",
      "type": "function"
    },
    {
      "inputs": [
        {
          "internalType": "uint256",
          "name": "_campaignId",
          "type": "uint256"
        }
      ],
      "name": "toggleCampaign",
      "outputs": [],
      "stateMutability": "nonpayable",
      "type": "function"
    },
    {
      "inputs": [
        {
          "internalType": "uint256",
          "name": "_tokenId",
          "type": "uint256"
        }
      ],
      "name": "tokenURI",
      "outputs": [
        {
          "internalType": "string",
          "name": "",
          "type": "string"
        }
      ],
      "stateMutability": "view",
      "type": "function"
    },
    {
      "inputs": [
        {
          "internalType": "address",
          "name": "",
          "type": "address"
        }
      ],
      "name": "totalCheckIns",
      "outputs": [
        {
          "internalType": "uint256",
          "name": "",
          "type": "uint256"
        }
      ],
      "stateMutability": "view",
      "type": "function"
    },
    {
      "inputs": [
        {
          "internalType": "address",
          "name": "from",
          "type": "address"
        },
        {
          "internalType": "address",
          "name": "to",
          "type": "address"
        },
        {
          "internalType": "uint256",
          "name": "tokenId",
          "type": "uint256"
        }
      ],
      "name": "transferFrom",
      "outputs": [],
      "stateMutability": "nonpayable",
      "type": "function"
    },
    {
      "inputs": [
        {
          "internalType": "address",
          "name": "newOwner",
          "type": "address"
        }
      ],
      "name": "transferOwnership",
      "outputs": [],
      "stateMutability": "nonpayable",
      "type": "function"
    },
    {
      "inputs": [
        {
          "internalType": "bytes32",
          "name": "",
          "type": "bytes32"
        }
      ],
      "name": "usedProofs",
      "outputs": [
        {
          "internalType": "bool",
          "name": "",
          "type": "bool"
        }
      ],
      "stateMutability": "view",
      "type": "function"
    },
    {
      "inputs": [
        {
          "internalType": "address",
          "name": "",
          "type": "address"
        },
        {
          "internalType": "uint256",
          "name": "",
          "type": "uint256"
        }
      ],
      "name": "userNFTs",
      "outputs": [
        {
          "internalType": "uint256",
          "name": "",
          "type": "uint256"
        }
      ],
      "stateMutability": "view",
      "type": "function"
    },
    {
      "stateMutability": "payable",
      "type": "receive"
    }
  ],
  "bytecode": "0x60803462000475576001600160401b0390601f62002fd438819003918201601f19168301918483118484101762000277578084926020946040528339810103126200047557516001600160a01b038116810362000475576040519162000065836200047a565b600c83526b2829a6102330b721b430b4b760a11b6020840152604051916200008d836200047a565b60048352632829a62360e11b602084015283518281116200027757600054600181811c911680156200046a575b60208210146200036b57601f811162000412575b506020601f8211600114620003985781929394956000926200038c575b50508160011b916000199060031b1c1916176000555b82518281116200027757600154600181811c9116801562000381575b60208210146200036b57601f811162000312575b506020601f82116001146200029957819293946000926200028d575b50508160011b916000199060031b1c1916176001555b600680546001600160a01b0319808216339081179093559291906001600160a01b03167f8be0079c531659141344cd1fd0a4f28419497f9722a3daafe3b4186f6b6457e0600080a36101f4600e5560018060a01b031690600f541617600f55600c6020604051620001d4816200047a565b828152016b2829a6102330b721b430b4b760a11b81522060016020604051620001fd816200047a565b82815201603160f81b8152206040519060208201927f8b73c3c69bb8fe3d512ecc4cf759cc79239f7b179b0ffacaa9a75d522b39400f8452604083015260608201524660808201523060a082015260a0815260c081019281841090841117620002775782604052519020601055612afd9081620004978239f35b634e487b7160e01b600052604160045260246000fd5b0151905038806200014d565b6001600090815260008051602062002fb48339815191529190601f198416905b818110620002f957509583600195969710620002df575b505050811b0160015562000163565b015160001960f88460031b161c19169055388080620002d0565b9192602060018192868b015181550194019201620002b9565b600160005260008051602062002fb4833981519152601f830160051c8101916020841062000360575b601f0160051c01905b81811062000353575062000131565b6000815560010162000344565b90915081906200033b565b634e487b7160e01b600052602260045260246000fd5b90607f16906200011d565b015190503880620000eb565b600080805260008051602062002f9483398151915291905b601f1984168110620003f9575060019394959683601f19811610620003df575b505050811b0160005562000101565b015160001960f88460031b161c19169055388080620003d0565b9091602060018192858b015181550193019101620003b0565b6000805260008051602062002f94833981519152601f830160051c810191602084106200045f575b601f0160051c01905b818110620004525750620000ce565b6000815560010162000443565b90915081906200043a565b90607f1690620000ba565b600080fd5b604081019081106001600160401b03821117620002775760405256fe608080604052600436101561001d575b50361561001b57600080fd5b005b60003560e01c90816301ffc9a714611f955750806306fdde0314611ef2578063081812fc14611ed4578063095ea7b314611d5a578063141961bc14611c49578063162094c414611c0657806323b872dd14611bdd57806326232a2e14611bbf578063265aa62114611b36578063291c73c314611ade5780633644e51514611ac057806342842e0e14611a8757806352de4ee5146119d35780635ad47519146119465780636352211e1461191657806370a082311461187f578063715018a614611822578063828e1ffd146117e85780638da5cb5b146117bf57806395d89b41146116e0578063a22cb46514611605578063ab642acd146115cb578063b260105f1461157e578063b48c7f4914611543578063b701894314610eb1578063b88d4fde14610e52578063c30a0f2514610e21578063c87b56dd14610d8c578063d9ceab1314610c43578063dfe6b5d614610c19578063e0c628e914610673578063e985e9c51461061d578063f2fde38b14610559578063fa2af9da146105305763fa752a91146101ab573861000f565b3461052b5760c036600319011261052b576101c4612040565b6044356001600160401b03811161052b576101e39036906004016121da565b60a4356001600160401b03811161052b576102029036906004016121da565b602435600052600860205260406000209060018060a01b0360018301541633036104ef5761023660ff600d84015416612745565b6102466007830154421015612787565b61025660088301544211156127ca565b61026d6007549361026785876128a9565b8461299d565b6040519061027a826120a6565b8382526001600160a01b038581166020808501918252602435604080870191825242606088019081526064356080890190815260843560a08a0190815260c08a0198895260008c81526009909652929094209751885593516001880180546001600160a01b03191691909616179094555160028601559051600385015551600484015551600583015551805160069290920191906001600160401b0382116104d9578190610328845461206c565b601f8111610486575b50602090601f831160011461042057600092610415575b50508160011b916000199060031b1c19161790555b60018060a01b038316600052600a60205261037c826040600020612807565b600a81015460018060a01b03600183015416600052600b6020526103a66040600020918254612841565b9055600101546001600160a01b03166000908152600c6020526040902080546103ce9061284e565b905560405160243581526001600160a01b03909216917f055e34067993de700e7f718f190fdccc92a27695bb9068504a1a44258577f8eb90602090a3600780546001019055005b015190503880610348565b6000858152602081209350601f198516905b81811061046e5750908460019594939210610455575b505050811b01905561035d565b015160001960f88460031b161c19169055388080610448565b92936020600181928786015181550195019301610432565b909150836000526020600020601f840160051c810191602085106104cf575b90601f859493920160051c01905b8181106104c05750610331565b600081558493506001016104b3565b90915081906104a5565b634e487b7160e01b600052604160045260246000fd5b60405162461bcd60e51b81526020600482015260146024820152732737ba1031b0b6b830b4b3b71031b932b0ba37b960611b6044820152606490fd5b600080fd5b3461052b57600036600319011261052b57600f546040516001600160a01b039091168152602090f35b3461052b57602036600319011261052b57610572612040565b61057a612245565b6001600160a01b039081169081156105c957600654826001600160601b0360a01b821617600655167f8be0079c531659141344cd1fd0a4f28419497f9722a3daafe3b4186f6b6457e0600080a3005b60405162461bcd60e51b815260206004820152602660248201527f4f776e61626c653a206e6577206f776e657220697320746865207a65726f206160448201526564647265737360d01b6064820152608490fd5b3461052b57604036600319011261052b57610636612040565b61063e612056565b9060018060a01b03809116600052600560205260406000209116600052602052602060ff604060002054166040519015158152f35b3461052b5761014036600319011261052b576004356001600160401b03811161052b576106a49036906004016121da565b6024356001600160401b03811161052b576106c39036906004016121da565b9060e4356001600160401b03811161052b576106e39036906004016121da565b90610124356001600160a01b038116810361052b5760075492604051946101c086018681106001600160401b038211176104d9576040528486523360208701528360408701526060860152604435608086015260643560a086015260843560c086015260a43560e086015260c4356101008601526101208501526101043561014085015260018060a01b0316610160840152600061018084015260016101a084015281600052600860205260406000208351815560018060a01b0360208501511660018201906001600160601b0360a01b82541617905560408401518051906001600160401b0382116104d95781906107df600285015461206c565b601f8111610bc6575b50602090601f8311600114610b5457600092610b49575b50508160011b916000199060031b1c19161760028201555b60608401518051906001600160401b0382116104d957819061083c600385015461206c565b601f8111610af6575b50602090601f8311600114610a8457600092610a79575b50508160011b916000199060031b1c19161760038201555b6080840151600482015560a0840151600582015560c0840151600682015560e0840151600782015561010084015160088201556101208401519384516001600160401b0381116104d9576108cb600984015461206c565b95601f8711610a32575b602096508690601f83116001146109ba579282600d936101a09361096497966000926109af575b50508160011b916000199060031b1c19161760098501555b610140810151600a850155600b840160018060a01b03610160830151166001600160601b0360a01b825416179055610180810151600c8501550151151591019060ff801983541691151516179055565b817fc04c663886cae794dc52158f70fe6c8ee3b0140d4f48647282f9b693ff688a656040518581528061099b339588830190612000565b0390a3600160075401600755604051908152f35b015190508a806108fc565b9060098501600052876000209160005b601f1985168110610a1b5750836101a093610964979693600193600d97601f19811610610a02575b505050811b016009850155610914565b015160001960f88460031b161c191690558a80806109f2565b9192896001819286850151815501940192016109ca565b600984016000526020600020601f830160051c810160208410610a72575b601f890160051c82018110610a665750506108d5565b60008155600101610a50565b5080610a50565b01519050868061085c565b9250600384016000526020600020906000935b601f1984168510610adb576001945083601f19811610610ac2575b505050811b016003820155610874565b015160001960f88460031b161c19169055868080610ab2565b81810151835560209485019460019093019290910190610a97565b909150600384016000526020600020601f840160051c810160208510610b42575b90849392915b601f830160051c82018110610b33575050610845565b60008155859450600101610b1d565b5080610b17565b0151905086806107ff565b9250600284016000526020600020906000935b601f1984168510610bab576001945083601f19811610610b92575b505050811b016002820155610817565b015160001960f88460031b161c19169055868080610b82565b81810151835560209485019460019093019290910190610b67565b909150600284016000526020600020601f840160051c810160208510610c12575b90849392915b601f830160051c82018110610c035750506107e8565b60008155859450600101610bed565b5080610be7565b3461052b57600036600319011261052b576060600754476040519180835260208301526040820152f35b3461052b57600036600319011261052b5733600052600b6020526040600020548015610d5057600e54612710908103818111610d31578083029083820403610d3157049033600052600b602052600060408120558160008115610d47575b600080809381933390f115610d1c57600e54610ce7575b506040519081527f6a8d334a32dfb49dae325dba76deb51b0b8f5ea50b1cdfa70710f4dc1b9c24c560203392a2005b600f54828203906001600160a01b0316828211610d315760009283928392839283908814610d28575bf115610d1c5781610cb8565b6040513d6000823e3d90fd5b506108fc610d10565b634e487b7160e01b600052601160045260246000fd5b506108fc610ca1565b60405162461bcd60e51b81526020600482015260146024820152734e6f206561726e696e677320746f20636c61696d60601b6044820152606490fd5b3461052b5760208060031936011261052b5760043560008181526002835260409020546001600160a01b031615610dea57600052600d8152610dd160406000206120e2565b90610de6604051928284938452830190612000565b0390f35b60405162461bcd60e51b815260048101839052600f60248201526e151bdad95b881b9bdd08199bdd5b99608a1b6044820152606490fd5b3461052b57602036600319011261052b576004356000526011602052602060ff604060002054166040519015158152f35b3461052b57608036600319011261052b57610e6b612040565b610e73612056565b606435916001600160401b03831161052b573660238401121561052b57610ea761001b9336906024816004013591016121a3565b91604435916123ac565b3461052b5761012036600319011261052b57610ecb612040565b6001600160401b0360e4351161052b5736602360e43501121561052b576001600160401b0360e435600401351161052b5736602460e4356004013560e43501011161052b57610104356001600160401b03811161052b57610f309036906004016121da565b6024356000526008602052604060002060243581540361150957610f5a60ff600d83015416612745565b610f6a6007820154421015612787565b610f7a60088201544211156127ca565b60c43542116114d45760018060a01b0383166000526012602052604060002060243560005260205260ff6040600020541661149e576010546040519060208201907fd4055a82ce40fc774f15e1c6ba9a8ab97c80ea431dab52a500ce192c379f8411825260018060a01b03861660408401526024356060840152604435608084015260643560a084015260843560c084015260a43560e084015261010060c4358185015283526101208301918383106001600160401b038411176104d957826040528351902061014084019161190160f01b8352610142850152610162840152604282526101a08301918083106001600160401b038411176104d9578260405251902091604160e4356004013503611458575050602060006080604051848152606460e4350135831a84820152602460e43501356040820152604460e4350135606082015282805260015afa15610d1c57600051600f546001600160a01b0390811691160361141f576000526011602052604060002060ff199060018282541617905560018060a01b0384166000526012602052604060002060243560005260205260016040600020918254161790556111416007549261113b84866128a9565b8361299d565b6001810154604051906001600160a01b03166001600160401b0360608301908111908311176104d95760608201604052602a825260403660208401378151156114095760306020830153815160011015611409576078602183015360295b600181116113c0575061137c57604051906111b9826120a6565b8382526001600160a01b038581166020808501918252602435604080870191825242606088019081526044356080890190815260643560a08a0190815260c08a0198895260008c81526009909652929094209751885593516001880180546001600160a01b03191691909616179094555160028601559051600385015551600484015551600583015551805160069290920191906001600160401b0382116104d9578190611267845461206c565b601f8111611329575b50602090601f83116001146112c4576000926112b95750508160011b916000199060031b1c191617905560018060a01b038316600052600a60205261037c826040600020612807565b015190508680610348565b6000858152602081209350601f198516905b81811061131157509084600195949392106112f857505050811b01905561035d565b015160001960f88460031b161c19169055868080610448565b929360206001819287860151815501950193016112d6565b909150836000526020600020601f840160051c81019160208510611372575b90601f859493920160051c01905b8181106113635750611270565b60008155849350600101611356565b9091508190611348565b606460405162461bcd60e51b815260206004820152602060248201527f537472696e67733a20686578206c656e67746820696e73756666696369656e746044820152fd5b906010600f82161015611409578251821015611409576f181899199a1a9b1b9c1cb0b131b232b360811b600f82161a8383016020015360041c908015610d31576000190161119f565b634e487b7160e01b600052603260045260246000fd5b60405162461bcd60e51b8152602060048201526011602482015270496e76616c6964207369676e617475726560781b6044820152606490fd5b62461bcd60e51b825260206101a482015260186101c48201527f496e76616c6964207369676e6174757265206c656e67746800000000000000006101e490910152606490fd5b60405162461bcd60e51b815260206004820152600e60248201526d105b1c9958591e481b5a5b9d195960921b6044820152606490fd5b60405162461bcd60e51b815260206004820152600d60248201526c141c9bdbd988195e1c1a5c9959609a1b6044820152606490fd5b60405162461bcd60e51b815260206004820152601260248201527110d85b5c185a59db881b9bdd08199bdd5b9960721b6044820152606490fd5b3461052b57600036600319011261052b5760206040517fd4055a82ce40fc774f15e1c6ba9a8ab97c80ea431dab52a500ce192c379f84118152f35b3461052b57604036600319011261052b576001600160a01b0361159f612040565b1660005260126020526040600020602435600052602052602060ff604060002054166040519015158152f35b3461052b57602036600319011261052b576001600160a01b036115ec612040565b16600052600b6020526020604060002054604051908152f35b3461052b57604036600319011261052b5761161e612040565b602435908115159081830361052b576001600160a01b03169133831461169b5761166d9033600052600560205260406000208460005260205260406000209060ff801983541691151516179055565b6040519081527f17307eab39ab6107e8899845ad3d59bd9653f200f220920489ca2b5937696c3160203392a3005b60405162461bcd60e51b815260206004820152601960248201527f4552433732313a20617070726f766520746f2063616c6c6572000000000000006044820152606490fd5b3461052b57600036600319011261052b57604051600060018054906117048261206c565b80855291818116908115611798575060011461173f575b610de68461172b818603826120c1565b604051918291602083526020830190612000565b600081815292507fb10e2d527612073b26eecdfd717e6a320cf44b4afac2b0732d9fcbe2b7fa0cf65b82841061178057505050810160200161172b8261171b565b80546020858701810191909152909301928101611768565b60ff191660208087019190915292151560051b8501909201925061172b915083905061171b565b3461052b57600036600319011261052b576006546040516001600160a01b039091168152602090f35b3461052b57602036600319011261052b576001600160a01b03611809612040565b16600052600c6020526020604060002054604051908152f35b3461052b57600036600319011261052b5761183b612245565b600680546001600160a01b031981169091556000906001600160a01b03167f8be0079c531659141344cd1fd0a4f28419497f9722a3daafe3b4186f6b6457e08280a3005b3461052b57602036600319011261052b576001600160a01b036118a0612040565b1680156118bf5760005260036020526020604060002054604051908152f35b60405162461bcd60e51b815260206004820152602960248201527f4552433732313a2061646472657373207a65726f206973206e6f7420612076616044820152683634b21037bbb732b960b91b6064820152608490fd5b3461052b57602036600319011261052b5760206119346004356122e9565b6040516001600160a01b039091168152f35b3461052b57602036600319011261052b576004356000818152600860205260409020600101546001600160a01b031633036119a0576000908152600860205260409020600d01805460ff818116151660ff19909116179055005b60405162461bcd60e51b815260206004820152600b60248201526a2737ba1031b932b0ba37b960a91b6044820152606490fd5b3461052b5760208060031936011261052b576001600160a01b036119f5612040565b16600052600a8152604060002060405190818382549182815201908192600052846000209060005b86828210611a73578686611a33828803836120c1565b604051928392818401908285525180915260408401929160005b828110611a5c57505050500390f35b835185528695509381019392810192600101611a4d565b835485529093019260019283019201611a1d565b3461052b57611a95366121f8565b6040519160208301938385106001600160401b038611176104d95761001b94604052600084526123ac565b3461052b57600036600319011261052b576020601054604051908152f35b3461052b57604036600319011261052b57611af7612040565b6001600160a01b03166000908152600a602052604090208054602435919082101561052b57602091611b289161222d565b90546040519160031b1c8152f35b3461052b57602036600319011261052b57600435600052600960205260406000208054610de660018060a01b03600184015416926002810154906003810154600482015490611b8c6006600585015494016120e2565b936040519788978852602088015260408701526060860152608085015260a084015260e060c084015260e0830190612000565b3461052b57600036600319011261052b576020600e54604051908152f35b3461052b5761001b611bee366121f8565b91611c01611bfc8433612447565b61234a565b61250f565b3461052b57604036600319011261052b576024356001600160401b03811161052b57611c3961001b9136906004016121da565b611c41612245565b60043561299d565b3461052b57602036600319011261052b576004356000908152600860205260409020805460018201546001600160a01b0390811692611c8a600282016120e2565b90611c97600382016120e2565b60048201546005830154906006840154600785015460088601549160098701611cbf906120e2565b94600a88015499600b8901541696600c89015498600d015460ff16996040519d8e809e8152602001528c6101c06040819201528d01611cfd91612000565b8c810360608e0152611d0e91612000565b9460808c015260a08b015260c08a015260e0890152610100880152868103610120880152611d3b91612000565b9361014086015261016085015261018084015215156101a08301520390f35b3461052b57604036600319011261052b57611d73612040565b602435906001600160a01b038080611d8a856122e9565b16921691808314611e8557803314908115611e60575b5015611df557600083815260046020526040902080546001600160a01b03191683179055611dcd836122e9565b167f8c5be1e5ebec7d5bd14f71427d1e84f3dd0314c0f7b2291e5b200ac8c7c3b925600080a4005b60405162461bcd60e51b815260206004820152603d60248201527f4552433732313a20617070726f76652063616c6c6572206973206e6f7420746f60448201527f6b656e206f776e6572206f7220617070726f76656420666f7220616c6c0000006064820152608490fd5b9050600052600560205260406000203360005260205260ff6040600020541684611da0565b60405162461bcd60e51b815260206004820152602160248201527f4552433732313a20617070726f76616c20746f2063757272656e74206f776e656044820152603960f91b6064820152608490fd5b3461052b57602036600319011261052b57602061193460043561230c565b3461052b57600036600319011261052b5760405160008054611f138161206c565b808452906001908181169081156117985750600114611f3c57610de68461172b818603826120c1565b600080805292507f290decd9548b62a8d60345a988386fc84ba6bc95484008f6362f93160ef3e5635b828410611f7d57505050810160200161172b8261171b565b80546020858701810191909152909301928101611f65565b3461052b57602036600319011261052b576004359063ffffffff60e01b821680920361052b576020916380ac58cd60e01b8114908115611fef575b8115611fde575b5015158152f35b6301ffc9a760e01b14905083611fd7565b635b5e139f60e01b81149150611fd0565b919082519283825260005b84811061202c575050826000602080949584010152601f8019910116010190565b60208183018101518483018201520161200b565b600435906001600160a01b038216820361052b57565b602435906001600160a01b038216820361052b57565b90600182811c9216801561209c575b602083101461208657565b634e487b7160e01b600052602260045260246000fd5b91607f169161207b565b60e081019081106001600160401b038211176104d957604052565b90601f801991011681019081106001600160401b038211176104d957604052565b90604051918260008254926120f68461206c565b9081845260019485811690816000146121655750600114612122575b5050612120925003836120c1565b565b9093915060005260209081600020936000915b81831061214d57505061212093508201013880612112565b85548884018501529485019487945091830191612135565b91505061212094506020925060ff191682840152151560051b8201013880612112565b6001600160401b0381116104d957601f01601f191660200190565b9291926121af82612188565b916121bd60405193846120c1565b82948184528183011161052b578281602093846000960137010152565b9080601f8301121561052b578160206121f5933591016121a3565b90565b606090600319011261052b576001600160a01b0390600435828116810361052b5791602435908116810361052b579060443590565b80548210156114095760005260206000200190600090565b6006546001600160a01b0316330361225957565b606460405162461bcd60e51b815260206004820152602060248201527f4f776e61626c653a2063616c6c6572206973206e6f7420746865206f776e65726044820152fd5b156122a457565b60405162461bcd60e51b815260206004820152601860248201527f4552433732313a20696e76616c696420746f6b656e20494400000000000000006044820152606490fd5b6000908152600260205260409020546001600160a01b03166121f581151561229d565b60008181526002602052604090205461232f906001600160a01b0316151561229d565b6000908152600460205260409020546001600160a01b031690565b1561235157565b60405162461bcd60e51b815260206004820152602d60248201527f4552433732313a2063616c6c6572206973206e6f7420746f6b656e206f776e6560448201526c1c881bdc88185c1c1c9bdd9959609a1b6064820152608490fd5b906123d09392916123c0611bfc8433612447565b6123cb83838361250f565b612620565b156123d757565b60405162461bcd60e51b8152806123f0600482016123f4565b0390fd5b60809060208152603260208201527f4552433732313a207472616e7366657220746f206e6f6e20455243373231526560408201527131b2b4bb32b91034b6b83632b6b2b73a32b960711b60608201520190565b906001600160a01b03808061245b846122e9565b1693169183831493841561248e575b508315612478575b50505090565b6124849192935061230c565b1614388080612472565b909350600052600560205260406000208260005260205260ff60406000205416923861246a565b156124bc57565b60405162461bcd60e51b815260206004820152602560248201527f4552433732313a207472616e736665722066726f6d20696e636f72726563742060448201526437bbb732b960d91b6064820152608490fd5b906125379161251d846122e9565b6001600160a01b03939184169284929091831684146124b5565b169182156125cf57816125549161254d866122e9565b16146124b5565b7fddf252ad1be2c89b69c2b068fc378daa952ba7f163c4a11628f55a4df523b3ef60008481526004602052604081206001600160601b0360a01b9081815416905583825260036020526040822060001981540190558482526040822060018154019055858252600260205284604083209182541617905580a4565b60405162461bcd60e51b8152602060048201526024808201527f4552433732313a207472616e7366657220746f20746865207a65726f206164646044820152637265737360e01b6064820152608490fd5b9293600093909291803b1561273a5794849161267a9660405180948193630a85bd0160e11b9788845233600485015260018060a01b0380921660248501526044840152608060648401528260209b8c976084830190612000565b0393165af18491816126f6575b506126e5575050503d6000146126dd573d6126a181612188565b906126af60405192836120c1565b81528091833d92013e5b805191826126da5760405162461bcd60e51b8152806123f0600482016123f4565b01fd5b5060606126b9565b6001600160e01b0319161492509050565b9091508581813d8311612733575b61270e81836120c1565b8101031261272f57516001600160e01b03198116810361272f579038612687565b8480fd5b503d612704565b505050915050600190565b1561274c57565b60405162461bcd60e51b815260206004820152601360248201527243616d706169676e206e6f742061637469766560681b6044820152606490fd5b1561278e57565b60405162461bcd60e51b815260206004820152601460248201527310d85b5c185a59db881b9bdd081cdd185c9d195960621b6044820152606490fd5b156127d157565b60405162461bcd60e51b815260206004820152600e60248201526d10d85b5c185a59db88195b99195960921b6044820152606490fd5b8054680100000000000000008110156104d9576128299160018201815561222d565b819291549060031b91821b91600019901b1916179055565b91908201809211610d3157565b6000198114610d315760010190565b1561286457565b60405162461bcd60e51b815260206004820152601c60248201527f4552433732313a20746f6b656e20616c7265616479206d696e746564000000006044820152606490fd5b6001600160a01b03168015612959576000828152600260205260409020546128dd906001600160a01b031615155b1561285d565b600082815260026020526040902054612900906001600160a01b031615156128d7565b600081815260036020526040812060018154019055828152600260205260408120826001600160601b0360a01b8254161790557fddf252ad1be2c89b69c2b068fc378daa952ba7f163c4a11628f55a4df523b3ef8180a4565b606460405162461bcd60e51b815260206004820152602060248201527f4552433732313a206d696e7420746f20746865207a65726f20616464726573736044820152fd5b9190916000908152602092600d845260408220918151916001600160401b038311612ab3576129cc845461206c565b601f8111612a70575b508591601f8411600114612a0f57839495965092612a04575b50508160011b916000199060031b1c1916179055565b0151905038806129ee565b9190601f1984169685845280842093905b888210612a5857505083600195969710612a3f575b505050811b019055565b015160001960f88460031b161c19169055388080612a35565b80600185968294968601518155019501930190612a20565b848352868320601f850160051c810191888610612aa9575b601f0160051c01905b818110612a9e57506129d5565b838155600101612a91565b9091508190612a88565b634e487b7160e01b82526041600452602482fdfea26469706673582212204e3341272e4c44eb9ed942dcb5b8be082764bc3ac1307baa01b9d91cd03c35c464736f6c63430008130033290decd9548b62a8d60345a988386fc84ba6bc95484008f6362f93160ef3e563b10e2d527612073b26eecdfd717e6a320cf44b4afac2b0732d9fcbe2b7fa0cf6",
  "linkReferences": {},
  "deployedLinkReferences": {}
}