{
  "_format": "hh-sol-artifact-1",
  "contractName": "FanChain",
  "sourceName": "contracts/FanChain.sol",
  "abi": [
    {
      "inputs": [
        {
          "internalType": "address",
          "name": "_platformWallet",
          "type": "address"
        }
      ],
      "stateMutability": "nonpayable",
      "type": "constructor"
    },
    {
      "anonymous": false,
      "inputs": [
        {
          "indexed": true,
          "internalType": "address",
          "name": "owner",
          "type": "address"
        },
        {
          "indexed": true,
          "internalType": "address",
          "name": "approved",
          "type": "address"
        },
        {
          "indexed": true,
          "internalType": "uint256",
          "name": "tokenId",
          "type": "uint256"
        }
      ],
      "name": "Approval",
      "type": "event"
    },
    {
      "anonymous": false,
      "inputs": [
        {
          "indexed": true,
          "internalType": "address",
          "name": "owner",
          "type": "address"
        },
        {
          "indexed": true,
          "internalType": "address",
          "name": "operator",
          "type": "address"
        },
        {
          "indexed": false,
          "internalType": "bool",
          "name": "approved",
          "type": "bool"
        }
      ],
      "name": "ApprovalForAll",
      "type": "event"
    },
    {
      "anonymous": false,
      "inputs": [
        {
          "indexed": true,
          "internalType": "uint256",
          "name": "id",
          "type": "uint256"
        },
        {
          "indexed": true,
          "internalType": "address",
          "name": "creator",
          "type": "address"
        },
        {
          "indexed": false,
          "internalType": "string",
          "name": "name",
          "type": "string"
        }
      ],
      "name": "CampaignCreated",
      "type": "event"
    },
    {
      "anonymous": false,
      "inputs": [
        {
          "indexed": true,
          "internalType": "address",
          "name": "influencer",
          "type": "address"
        },
        {
          "indexed": false,
          "internalType": "uint256",
          "name": "amount",
          "type": "uint256"
        }
      ],
      "name": "EarningsClaimed",
      "type": "event"
    },
    {
      "anonymous": false,
      "inputs": [
        {
          "indexed": true,
          "internalType": "uint256",
          "name": "tokenId",
          "type": "uint256"
        },
        {
          "indexed": true,
          "internalType": "address",
          "name": "owner",
          "type": "address"
        },
        {
          "indexed": false,
          "internalType": "uint256",
          "name": "campaignId",
          "type": "uint256"
        }
      ],
      "name": "NFTMinted",
      "type": "event"
    },
    {
      "anonymous": false,
      "inputs": [
        {
          "indexed": true,
          "internalType": "address",
          "name": "previousOwner",
          "type": "address"
        },
        {
          "indexed": true,
          "internalType": "address",
          "name": "newOwner",
          "type": "address"
        }
      ],
      "name": "OwnershipTransferred",
      "type": "event"
    },
    {
      "anonymous": false,
      "inputs": [
        {
          "indexed": true,
          "internalType": "address",
          "name": "from",
          "type": "address"
        },
        {
          "indexed": true,
          "internalType": "address",
          "name": "to",
          "type": "address"
        },
        {
          "indexed": true,
          "internalType": "uint256",
          "name": "tokenId",
          "type": "uint256"
        }
      ],
      "name": "Transfer",
      "type": "event"
    },
    {
      "inputs": [],
      "name": "CHECKIN_TYPEHASH",
      "outputs": [
        {
          "internalType": "bytes32",
          "name": "",
          "type": "bytes32"
        }
      ],
      "stateMutability": "view",
      "type": "function"
    },
    {
      "inputs": [],
      "name": "DOMAIN_SEPARATOR",
      "outputs": [
        {
          "internalType": "bytes32",
          "name": "",
          "type": "bytes32"
        }
      ],
      "stateMutability": "view",
      "type": "function"
    },
    {
      "inputs": [
        {
          "internalType": "address",
          "name": "to",
          "type": "address"
        },
        {
          "internalType": "uint256",
          "name": "tokenId",
          "type": "uint256"
        }
      ],
      "name": "approve",
      "outputs": [],
      "stateMutability": "nonpayable",
      "type": "function"
    },
    {
      "inputs": [
        {
          "internalType": "address",
          "name": "owner",
          "type": "address"
        }
      ],
      "name": "balanceOf",
      "outputs": [
        {
          "internalType": "uint256",
          "name": "",
          "type": "uint256"
        }
      ],
      "stateMutability": "view",
      "type": "function"
    },
    {
      "inputs": [
        {
          "internalType": "uint256",
          "name": "",
          "type": "uint256"
        }
      ],
      "name": "campaigns",
      "outputs": [
        {
          "internalType": "uint256",
          "name": "id",
          "type": "uint256"
        },
        {
          "internalType": "address",
          "name": "creator",
          "type": "address"
        },
        {
          "internalType": "string",
          "name": "name",
          "type": "string"
        },
        {
          "internalType": "string",
          "name": "description",
          "type": "string"
        },
        {
          "internalType": "uint256",
          "name": "stadiumLat",
          "type": "uint256"
        },
        {
          "internalType": "uint256",
          "name": "stadiumLng",
          "type": "uint256"
        },
        {
          "internalType": "uint256",
          "name": "geoRadius",
          "type": "uint256"
        },
        {
          "internalType": "uint256",
          "name": "startTime",
          "type": "uint256"
        },
        {
          "internalType": "uint256",
          "name": "endTime",
          "type": "uint256"
        },
        {
          "internalType": "string",
          "name": "rewardTier",
          "type": "string"
        },
        {
          "internalType": "uint256",
          "name": "rewardPoints",
          "type": "uint256"
        },
        {
          "internalType": "address",
          "name": "sponsor",
          "type": "address"
        },
        {
          "internalType": "uint256",
          "name": "sponsorFee",
          "type": "uint256"
        },
        {
          "internalType": "bool",
          "name": "active",
          "type": "bool"
        }
      ],
      "stateMutability": "view",
      "type": "function"
    },
    {
      "inputs": [],
      "name": "claimEarnings",
      "outputs": [],
      "stateMutability": "nonpayable",
      "type": "function"
    },
    {
      "inputs": [
        {
          "internalType": "string",
          "name": "_name",
          "type": "string"
        },
        {
          "internalType": "string",
          "name": "_description",
          "type": "string"
        },
        {
          "internalType": "uint256",
          "name": "_stadiumLat",
          "type": "uint256"
        },
        {
          "internalType": "uint256",
          "name": "_stadiumLng",
          "type": "uint256"
        },
        {
          "internalType": "uint256",
          "name": "_geoRadius",
          "type": "uint256"
        },
        {
          "internalType": "uint256",
          "name": "_startTime",
          "type": "uint256"
        },
        {
          "internalType": "uint256",
          "name": "_endTime",
          "type": "uint256"
        },
        {
          "internalType": "string",
          "name": "_rewardTier",
          "type": "string"
        },
        {
          "internalType": "uint256",
          "name": "_rewardPoints",
          "type": "uint256"
        },
        {
          "internalType": "address",
          "name": "_sponsor",
          "type": "address"
        }
      ],
      "name": "createCampaign",
      "outputs": [
        {
          "internalType": "uint256",
          "name": "",
          "type": "uint256"
        }
      ],
      "stateMutability": "nonpayable",
      "type": "function"
    },
    {
      "inputs": [
        {
          "internalType": "uint256",
          "name": "tokenId",
          "type": "uint256"
        }
      ],
      "name": "getApproved",
      "outputs": [
        {
          "internalType": "address",
          "name": "",
          "type": "address"
        }
      ],
      "stateMutability": "view",
      "type": "function"
    },
    {
      "inputs": [],
      "name": "getContractStats",
      "outputs": [
        {
          "internalType": "uint256",
          "name": "totalCampaigns",
          "type": "uint256"
        },
        {
          "internalType": "uint256",
          "name": "totalNFTs",
          "type": "uint256"
        },
        {
          "internalType": "uint256",
          "name": "totalEarnings",
          "type": "uint256"
        }
      ],
      "stateMutability": "view",
      "type": "function"
    },
    {
      "inputs": [
        {
          "internalType": "address",
          "name": "_user",
          "type": "address"
        }
      ],
      "name": "getUserNFTs",
      "outputs": [
        {
          "internalType": "uint256[]",
          "name": "",
          "type": "uint256[]"
        }
      ],
      "stateMutability": "view",
      "type": "function"
    },
    {
      "inputs": [
        {
          "internalType": "address",
          "name": "",
          "type": "address"
        },
        {
          "internalType": "uint256",
          "name": "",
          "type": "uint256"
        }
      ],
      "name": "hasMintedCampaign",
      "outputs": [
        {
          "internalType": "bool",
          "name": "",
          "type": "bool"
        }
      ],
      "stateMutability": "view",
      "type": "function"
    },
    {
      "inputs": [
        {
          "internalType": "address",
          "name": "",
          "type": "address"
        }
      ],
      "name": "influencerEarnings",
      "outputs": [
        {
          "internalType": "uint256",
          "name": "",
          "type": "uint256"
        }
      ],
      "stateMutability": "view",
      "type": "function"
    },
    {
      "inputs": [
        {
          "internalType": "address",
          "name": "owner",
          "type": "address"
        },
        {
          "internalType": "address",
          "name": "operator",
          "type": "address"
        }
      ],
      "name": "isApprovedForAll",
      "outputs": [
        {
          "internalType": "bool",
          "name": "",
          "type": "bool"
        }
      ],
      "stateMutability": "view",
      "type": "function"
    },
    {
      "inputs": [
        {
          "internalType": "address",
          "name": "_to",
          "type": "address"
        },
        {
          "internalType": "uint256",
          "name": "_campaignId",
          "type": "uint256"
        },
        {
          "internalType": "string",
          "name": "_tokenURI",
          "type": "string"
        },
        {
          "internalType": "uint256",
          "name": "_lat",
          "type": "uint256"
        },
        {
          "internalType": "uint256",
          "name": "_lng",
          "type": "uint256"
        },
        {
          "internalType": "string",
          "name": "_influencerId",
          "type": "string"
        }
      ],
      "name": "mintAttendanceNFT",
      "outputs": [],
      "stateMutability": "nonpayable",
      "type": "function"
    },
    {
      "inputs": [
        {
          "internalType": "address",
          "name": "_to",
          "type": "address"
        },
        {
          "internalType": "string",
          "name": "_tokenURI",
          "type": "string"
        }
      ],
      "name": "mintTest",
      "outputs": [
        {
          "internalType": "uint256",
          "name": "",
          "type": "uint256"
        }
      ],
      "stateMutability": "nonpayable",
      "type": "function"
    },
    {
      "inputs": [],
      "name": "name",
      "outputs": [
        {
          "internalType": "string",
          "name": "",
          "type": "string"
        }
      ],
      "stateMutability": "view",
      "type": "function"
    },
    {
      "inputs": [
        {
          "internalType": "uint256",
          "name": "",
          "type": "uint256"
        }
      ],
      "name": "nfts",
      "outputs": [
        {
          "internalType": "uint256",
          "name": "tokenId",
          "type": "uint256"
        },
        {
          "internalType": "address",
          "name": "owner",
          "type": "address"
        },
        {
          "internalType": "uint256",
          "name": "campaignId",
          "type": "uint256"
        },
        {
          "internalType": "uint256",
          "name": "timestamp",
          "type": "uint256"
        },
        {
          "internalType": "uint256",
          "name": "lat",
          "type": "uint256"
        },
        {
          "internalType": "uint256",
          "name": "lng",
          "type": "uint256"
        },
        {
          "internalType": "string",
          "name": "influencerId",
          "type": "string"
        }
      ],
      "stateMutability": "view",
      "type": "function"
    },
    {
      "inputs": [],
      "name": "owner",
      "outputs": [
        {
          "internalType": "address",
          "name": "",
          "type": "address"
        }
      ],
      "stateMutability": "view",
      "type": "function"
    },
    {
      "inputs": [
        {
          "internalType": "uint256",
          "name": "tokenId",
          "type": "uint256"
        }
      ],
      "name": "ownerOf",
      "outputs": [
        {
          "internalType": "address",
          "name": "",
          "type": "address"
        }
      ],
      "stateMutability": "view",
      "type": "function"
    },
    {
      "inputs": [],
      "name": "platformFee",
      "outputs": [
        {
          "internalType": "uint256",
          "name": "",
          "type": "uint256"
        }
      ],
      "stateMutability": "view",
      "type": "function"
    },
    {
      "inputs": [],
      "name": "platformWallet",
      "outputs": [
        {
          "internalType": "address",
          "name": "",
          "type": "address"
        }
      ],
      "stateMutability": "view",
      "type": "function"
    },
    {
      "inputs": [],
      "name": "renounceOwnership",
      "outputs": [],
      "stateMutability": "nonpayable",
      "type": "function"
    },
    {
      "inputs": [
        {
          "internalType": "address",
          "name": "from",
          "type": "address"
        },
        {
          "internalType": "address",
          "name": "to",
          "type": "address"
        },
        {
          "internalType": "uint256",
          "name": "tokenId",
          "type": "uint256"
        }
      ],
      "name": "safeTransferFrom",
      "outputs": [],
      "stateMutability": "nonpayable",
      "type": "function"
    },
    {
      "inputs": [
        {
          "internalType": "address",
          "name": "from",
          "type": "address"
        },
        {
          "internalType": "address",
          "name": "to",
          "type": "address"
        },
        {
          "internalType": "uint256",
          "name": "tokenId",
          "type": "uint256"
        },
        {
          "internalType": "bytes",
          "name": "data",
          "type": "bytes"
        }
      ],
      "name": "safeTransferFrom",
      "outputs": [],
      "stateMutability": "nonpayable",
      "type": "function"
    },
    {
      "inputs": [
        {
          "internalType": "address",
          "name": "operator",
          "type": "address"
        },
        {
          "internalType": "bool",
          "name": "approved",
          "type": "bool"
        }
      ],
      "name": "setApprovalForAll",
      "outputs": [],
      "stateMutability": "nonpayable",
      "type": "function"
    },
    {
      "inputs": [
        {
          "internalType": "uint256",
          "name": "_tokenId",
          "type": "uint256"
        },
        {
          "internalType": "string",
          "name": "_uri",
          "type": "string"
        }
      ],
      "name": "setTokenURI",
      "outputs": [],
      "stateMutability": "nonpayable",
      "type": "function"
    },
    {
      "inputs": [
        {
          "internalType": "bytes4",
          "name": "interfaceId",
          "type": "bytes4"
        }
      ],
      "name": "supportsInterface",
      "outputs": [
        {
          "internalType": "bool",
          "name": "",
          "type": "bool"
        }
      ],
      "stateMutability": "view",
      "type": "function"
    },
    {
      "inputs": [],
      "name": "symbol",
      "outputs": [
        {
          "internalType": "string",
          "name": "",
          "type": "string"
        }
      ],
      "stateMutability": "view",
      "type": "function"
    },
    {
      "inputs": [
        {
          "internalType": "uint256",
          "name": "_campaignId",
          "type": "uint256"
        }
      ],
      "name": "toggleCampaign",
      "outputs": [],
      "stateMutability": "nonpayable",
      "type": "function"
    },
    {
      "inputs": [
        {
          "internalType": "uint256",
          "name": "_tokenId",
          "type": "uint256"
        }
      ],
      "name": "tokenURI",
      "outputs": [
        {
          "internalType": "string",
          "name": "",
          "type": "string"
        }
      ],
      "stateMutability": "view",
      "type": "function"
    },
    {
      "inputs": [
        {
          "internalType": "address",
          "name": "",
          "type": "address"
        }
      ],
      "name": "totalCheckIns",
      "outputs": [
        {
          "internalType": "uint256",
          "name": "",
          "type": "uint256"
        }
      ],
      "stateMutability": "view",
      "type": "function"
    },
    {
      "inputs": [
        {
          "internalType": "address",
          "name": "from",
          "type": "address"
        },
        {
          "internalType": "address",
          "name": "to",
          "type": "address"
        },
        {
          "internalType": "uint256",
          "name": "tokenId",
          "type": "uint256"
        }
      ],
      "name": "transferFrom",
      "outputs": [],
      "stateMutability": "nonpayable",
      "type": "function"
    },
    {
      "inputs": [
        {
          "internalType": "address",
          "name": "newOwner",
          "type": "address"
        }
      ],
      "name": "transferOwnership",
      "outputs": [],
      "stateMutability": "nonpayable",
      "type": "function"
    },
    {
      "inputs": [
        {
          "internalType": "bytes32",
          "name": "",
          "type": "bytes32"
        }
      ],
      "name": "usedProofs",
      "outputs": [
        {
          "internalType": "bool",
          "name": "",
          "type": "bool"
        }
      ],
      "stateMutability": "view",
      "type": "function"
    },
    {
      "inputs": [
        {
          "internalType": "address",
          "name": "",
          "type": "address"
        },
        {
          "internalType": "uint256",
          "name": "",
          "type": "uint256"
        }
      ],
      "name": "userNFTs",
      "outputs": [
        {
          "internalType": "uint256",
          "name": "",
          "type": "uint256"
        }
      ],
      "stateMutability": "view",
      "type": "function"
    },
    {
      "stateMutability": "payable",
      "type": "receive"
    }
  ],
  "bytecode": "0x60803462000475576001600160401b0390601f620029a238819003918201601f19168301918483118484101762000277578084926020946040528339810103126200047557516001600160a01b038116810362000475576040519162000065836200047a565b600c83526b2829a6102330b721b430b4b760a11b6020840152604051916200008d836200047a565b60048352632829a62360e11b602084015283518281116200027757600054600181811c911680156200046a575b60208210146200036b57601f811162000412575b506020601f8211600114620003985781929394956000926200038c575b50508160011b916000199060031b1c1916176000555b82518281116200027757600154600181811c9116801562000381575b60208210146200036b57601f811162000312575b506020601f82116001146200029957819293946000926200028d575b50508160011b916000199060031b1c1916176001555b600680546001600160a01b0319808216339081179093559291906001600160a01b03167f8be0079c531659141344cd1fd0a4f28419497f9722a3daafe3b4186f6b6457e0600080a36101f4600e5560018060a01b031690600f541617600f55600c6020604051620001d4816200047a565b828152016b2829a6102330b721b430b4b760a11b81522060016020604051620001fd816200047a565b82815201603160f81b8152206040519060208201927f8b73c3c69bb8fe3d512ecc4cf759cc79239f7b179b0ffacaa9a75d522b39400f8452604083015260608201524660808201523060a082015260a0815260c0810192818410908411176200027757826040525190206010556124cb9081620004978239f35b634e487b7160e01b600052604160045260246000fd5b0151905038806200014d565b60016000908152600080516020620029828339815191529190601f198416905b818110620002f957509583600195969710620002df575b505050811b0160015562000163565b015160001960f88460031b161c19169055388080620002d0565b9192602060018192868b015181550194019201620002b9565b600160005260008051602062002982833981519152601f830160051c8101916020841062000360575b601f0160051c01905b81811062000353575062000131565b6000815560010162000344565b90915081906200033b565b634e487b7160e01b600052602260045260246000fd5b90607f16906200011d565b015190503880620000eb565b60008080526000805160206200296283398151915291905b601f1984168110620003f9575060019394959683601f19811610620003df575b505050811b0160005562000101565b015160001960f88460031b161c19169055388080620003d0565b9091602060018192858b015181550193019101620003b0565b6000805260008051602062002962833981519152601f830160051c810191602084106200045f575b601f0160051c01905b818110620004525750620000ce565b6000815560010162000443565b90915081906200043a565b90607f1690620000ba565b600080fd5b604081019081106001600160401b03821117620002775760405256fe608080604052600436101561001d575b50361561001b57600080fd5b005b60003560e01c90816301ffc9a714611a805750806306fdde03146119dd578063081812fc146119bf578063095ea7b314611845578063141961bc14611734578063162094c4146116f157806322c9c31c1461165857806323b872dd1461162f57806326232a2e14611611578063265aa62114611588578063291c73c3146115305780633644e5151461151257806342842e0e146114d957806352de4ee5146114255780635ad47519146113985780636352211e1461136857806370a08231146112d1578063715018a614611274578063828e1ffd1461123a5780638da5cb5b1461121157806395d89b4114611132578063a22cb46514611057578063ab642acd1461101d578063b260105f14610fd0578063b48c7f4914610f95578063b88d4fde14610f36578063c30a0f2514610f05578063c87b56dd14610e70578063d9ceab1314610d3d578063dfe6b5d614610d13578063e0c628e91461076d578063e985e9c514610717578063f2fde38b14610653578063fa2af9da1461062a5763fa752a91146101ab573861000f565b346106255760c0366003190112610625576101c4611b2b565b6044356001600160401b038111610625576101e3903690600401611caa565b60a4356001600160401b03811161062557610202903690600401611caa565b602435600052600860205260406000209060018060a01b0360018301541633036105e95760ff600d83015416156105ae5760078201544210610572576008820154421161053c576102606007549361025a8587612277565b8461236b565b6040519060e082018281106001600160401b03821117610460576040528382526020820160018060a01b0386168152604083016024358152606084014281526080850191606435835260a0860193608435855260c08701958652886000526009602052604060002096518755600187019060018060a01b039051166001600160601b0360a01b825416179055516002860155516003850155516004840155516005830155518051906001600160401b038211610460576103236006840154611b57565b601f81116104f1575b50602090601f8311600114610481576006929160009183610476575b50508160011b916000199060031b1c1916179101555b6001600160a01b0383166000908152600a602052604090208054680100000000000000008110156104605761039891600182018155611cfd565b919080549260031b600019938486831b921b1916179055600a81015460018060a01b03600183015416600052600b6020526040600020805491820180921161044a5755600101546001600160a01b03166000908152600c6020526040902080549091811461044a57600101905560405160243581526001600160a01b03909216917f055e34067993de700e7f718f190fdccc92a27695bb9068504a1a44258577f8eb90602090a3600780546001019055005b634e487b7160e01b600052601160045260246000fd5b634e487b7160e01b600052604160045260246000fd5b015190503880610348565b906006840160005260206000209160005b601f19851681106104d95750918391600193600695601f198116106104c0575b505050811b0191015561035e565b015160001960f88460031b161c191690553880806104b2565b91926020600181928685015181550194019201610492565b600684016000526020600020601f840160051c81019160208510610532575b601f0160051c01905b818110610526575061032c565b60008155600101610519565b9091508190610510565b60405162461bcd60e51b815260206004820152600e60248201526d10d85b5c185a59db88195b99195960921b6044820152606490fd5b60405162461bcd60e51b815260206004820152601460248201527310d85b5c185a59db881b9bdd081cdd185c9d195960621b6044820152606490fd5b60405162461bcd60e51b815260206004820152601360248201527243616d706169676e206e6f742061637469766560681b6044820152606490fd5b60405162461bcd60e51b81526020600482015260146024820152732737ba1031b0b6b830b4b3b71031b932b0ba37b960611b6044820152606490fd5b600080fd5b3461062557600036600319011261062557600f546040516001600160a01b039091168152602090f35b346106255760203660031901126106255761066c611b2b565b610674611d2b565b6001600160a01b039081169081156106c357600654826001600160601b0360a01b821617600655167f8be0079c531659141344cd1fd0a4f28419497f9722a3daafe3b4186f6b6457e0600080a3005b60405162461bcd60e51b815260206004820152602660248201527f4f776e61626c653a206e6577206f776e657220697320746865207a65726f206160448201526564647265737360d01b6064820152608490fd5b3461062557604036600319011261062557610730611b2b565b610738611b41565b9060018060a01b03809116600052600560205260406000209116600052602052602060ff604060002054166040519015158152f35b3461062557610140366003190112610625576004356001600160401b0381116106255761079e903690600401611caa565b6024356001600160401b038111610625576107bd903690600401611caa565b9060e4356001600160401b038111610625576107dd903690600401611caa565b90610124356001600160a01b03811681036106255760075492604051946101c086018681106001600160401b03821117610460576040528486523360208701528360408701526060860152604435608086015260643560a086015260843560c086015260a43560e086015260c4356101008601526101208501526101043561014085015260018060a01b0316610160840152600061018084015260016101a084015281600052600860205260406000208351815560018060a01b0360208501511660018201906001600160601b0360a01b82541617905560408401518051906001600160401b0382116104605781906108d96002850154611b57565b601f8111610cc0575b50602090601f8311600114610c4e57600092610c43575b50508160011b916000199060031b1c19161760028201555b60608401518051906001600160401b0382116104605781906109366003850154611b57565b601f8111610bf0575b50602090601f8311600114610b7e57600092610b73575b50508160011b916000199060031b1c19161760038201555b6080840151600482015560a0840151600582015560c0840151600682015560e0840151600782015561010084015160088201556101208401519384516001600160401b038111610460576109c56009840154611b57565b95601f8711610b2c575b602096508690601f8311600114610ab4579282600d936101a093610a5e9796600092610aa9575b50508160011b916000199060031b1c19161760098501555b610140810151600a850155600b840160018060a01b03610160830151166001600160601b0360a01b825416179055610180810151600c8501550151151591019060ff801983541691151516179055565b817fc04c663886cae794dc52158f70fe6c8ee3b0140d4f48647282f9b693ff688a6560405185815280610a95339588830190611aeb565b0390a3600160075401600755604051908152f35b015190508a806109f6565b9060098501600052876000209160005b601f1985168110610b155750836101a093610a5e979693600193600d97601f19811610610afc575b505050811b016009850155610a0e565b015160001960f88460031b161c191690558a8080610aec565b919289600181928685015181550194019201610ac4565b600984016000526020600020601f830160051c810160208410610b6c575b601f890160051c82018110610b605750506109cf565b60008155600101610b4a565b5080610b4a565b015190508680610956565b9250600384016000526020600020906000935b601f1984168510610bd5576001945083601f19811610610bbc575b505050811b01600382015561096e565b015160001960f88460031b161c19169055868080610bac565b81810151835560209485019460019093019290910190610b91565b909150600384016000526020600020601f840160051c810160208510610c3c575b90849392915b601f830160051c82018110610c2d57505061093f565b60008155859450600101610c17565b5080610c11565b0151905086806108f9565b9250600284016000526020600020906000935b601f1984168510610ca5576001945083601f19811610610c8c575b505050811b016002820155610911565b015160001960f88460031b161c19169055868080610c7c565b81810151835560209485019460019093019290910190610c61565b909150600284016000526020600020601f840160051c810160208510610d0c575b90849392915b601f830160051c82018110610cfd5750506108e2565b60008155859450600101610ce7565b5080610ce1565b34610625576000366003190112610625576060600754476040519180835260208301526040820152f35b346106255760003660031901126106255733600052600b6020526040600020548015610e3457600e5461271090810381811161044a57808302908382040361044a57049033600052600b602052600060408120558160008115610e2b575b600080809381933390f115610e1657600e54610de1575b506040519081527f6a8d334a32dfb49dae325dba76deb51b0b8f5ea50b1cdfa70710f4dc1b9c24c560203392a2005b600f54828203906001600160a01b031682821161044a5760009283928392839283908814610e22575bf115610e165781610db2565b6040513d6000823e3d90fd5b506108fc610e0a565b506108fc610d9b565b60405162461bcd60e51b81526020600482015260146024820152734e6f206561726e696e677320746f20636c61696d60601b6044820152606490fd5b34610625576020806003193601126106255760043560008181526002835260409020546001600160a01b031615610ece57600052600d8152610eb56040600020611bb2565b90610eca604051928284938452830190611aeb565b0390f35b60405162461bcd60e51b815260048101839052600f60248201526e151bdad95b881b9bdd08199bdd5b99608a1b6044820152606490fd5b34610625576020366003190112610625576004356000526011602052602060ff604060002054166040519015158152f35b3461062557608036600319011261062557610f4f611b2b565b610f57611b41565b606435916001600160401b038311610625573660238401121561062557610f8b61001b933690602481600401359101611c73565b9160443591611e92565b346106255760003660031901126106255760206040517fd4055a82ce40fc774f15e1c6ba9a8ab97c80ea431dab52a500ce192c379f84118152f35b34610625576040366003190112610625576001600160a01b03610ff1611b2b565b1660005260126020526040600020602435600052602052602060ff604060002054166040519015158152f35b34610625576020366003190112610625576001600160a01b0361103e611b2b565b16600052600b6020526020604060002054604051908152f35b3461062557604036600319011261062557611070611b2b565b6024359081151590818303610625576001600160a01b0316913383146110ed576110bf9033600052600560205260406000208460005260205260406000209060ff801983541691151516179055565b6040519081527f17307eab39ab6107e8899845ad3d59bd9653f200f220920489ca2b5937696c3160203392a3005b60405162461bcd60e51b815260206004820152601960248201527f4552433732313a20617070726f766520746f2063616c6c6572000000000000006044820152606490fd5b34610625576000366003190112610625576040516000600180549061115682611b57565b808552918181169081156111ea5750600114611191575b610eca8461117d81860382611b91565b604051918291602083526020830190611aeb565b600081815292507fb10e2d527612073b26eecdfd717e6a320cf44b4afac2b0732d9fcbe2b7fa0cf65b8284106111d257505050810160200161117d8261116d565b805460208587018101919091529093019281016111ba565b60ff191660208087019190915292151560051b8501909201925061117d915083905061116d565b34610625576000366003190112610625576006546040516001600160a01b039091168152602090f35b34610625576020366003190112610625576001600160a01b0361125b611b2b565b16600052600c6020526020604060002054604051908152f35b346106255760003660031901126106255761128d611d2b565b600680546001600160a01b031981169091556000906001600160a01b03167f8be0079c531659141344cd1fd0a4f28419497f9722a3daafe3b4186f6b6457e08280a3005b34610625576020366003190112610625576001600160a01b036112f2611b2b565b1680156113115760005260036020526020604060002054604051908152f35b60405162461bcd60e51b815260206004820152602960248201527f4552433732313a2061646472657373207a65726f206973206e6f7420612076616044820152683634b21037bbb732b960b91b6064820152608490fd5b34610625576020366003190112610625576020611386600435611dcf565b6040516001600160a01b039091168152f35b34610625576020366003190112610625576004356000818152600860205260409020600101546001600160a01b031633036113f2576000908152600860205260409020600d01805460ff818116151660ff19909116179055005b60405162461bcd60e51b815260206004820152600b60248201526a2737ba1031b932b0ba37b960a91b6044820152606490fd5b3461062557602080600319360112610625576001600160a01b03611447611b2b565b16600052600a8152604060002060405190818382549182815201908192600052846000209060005b868282106114c557868661148582880383611b91565b604051928392818401908285525180915260408401929160005b8281106114ae57505050500390f35b83518552869550938101939281019260010161149f565b83548552909301926001928301920161146f565b34610625576114e736611cc8565b6040519160208301938385106001600160401b038611176104605761001b9460405260008452611e92565b34610625576000366003190112610625576020601054604051908152f35b3461062557604036600319011261062557611549611b2b565b6001600160a01b03166000908152600a60205260409020805460243591908210156106255760209161157a91611cfd565b90546040519160031b1c8152f35b3461062557602036600319011261062557600435600052600960205260406000208054610eca60018060a01b036001840154169260028101549060038101546004820154906115de600660058501549401611bb2565b936040519788978852602088015260408701526060860152608085015260a084015260e060c084015260e0830190611aeb565b34610625576000366003190112610625576020600e54604051908152f35b346106255761001b61164036611cc8565b9161165361164e8433611f2d565b611e30565b611ff5565b3461062557604036600319011261062557611671611b2b565b602435906001600160401b038211610625576116936020923690600401611caa565b906116ab600754926116a58484612277565b8361236b565b817f055e34067993de700e7f718f190fdccc92a27695bb9068504a1a44258577f8eb84604051936000855260018060a01b031693a3600160075401600755604051908152f35b34610625576040366003190112610625576024356001600160401b0381116106255761172461001b913690600401611caa565b61172c611d2b565b60043561236b565b34610625576020366003190112610625576004356000908152600860205260409020805460018201546001600160a01b039081169261177560028201611bb2565b9061178260038201611bb2565b600482015460058301549060068401546007850154600886015491600987016117aa90611bb2565b94600a88015499600b8901541696600c89015498600d015460ff16996040519d8e809e8152602001528c6101c06040819201528d016117e891611aeb565b8c810360608e01526117f991611aeb565b9460808c015260a08b015260c08a015260e089015261010088015286810361012088015261182691611aeb565b9361014086015261016085015261018084015215156101a08301520390f35b346106255760403660031901126106255761185e611b2b565b602435906001600160a01b03808061187585611dcf565b169216918083146119705780331490811561194b575b50156118e057600083815260046020526040902080546001600160a01b031916831790556118b883611dcf565b167f8c5be1e5ebec7d5bd14f71427d1e84f3dd0314c0f7b2291e5b200ac8c7c3b925600080a4005b60405162461bcd60e51b815260206004820152603d60248201527f4552433732313a20617070726f76652063616c6c6572206973206e6f7420746f60448201527f6b656e206f776e6572206f7220617070726f76656420666f7220616c6c0000006064820152608490fd5b9050600052600560205260406000203360005260205260ff604060002054168461188b565b60405162461bcd60e51b815260206004820152602160248201527f4552433732313a20617070726f76616c20746f2063757272656e74206f776e656044820152603960f91b6064820152608490fd5b34610625576020366003190112610625576020611386600435611df2565b3461062557600036600319011261062557604051600080546119fe81611b57565b808452906001908181169081156111ea5750600114611a2757610eca8461117d81860382611b91565b600080805292507f290decd9548b62a8d60345a988386fc84ba6bc95484008f6362f93160ef3e5635b828410611a6857505050810160200161117d8261116d565b80546020858701810191909152909301928101611a50565b34610625576020366003190112610625576004359063ffffffff60e01b8216809203610625576020916380ac58cd60e01b8114908115611ada575b8115611ac9575b5015158152f35b6301ffc9a760e01b14905083611ac2565b635b5e139f60e01b81149150611abb565b919082519283825260005b848110611b17575050826000602080949584010152601f8019910116010190565b602081830181015184830182015201611af6565b600435906001600160a01b038216820361062557565b602435906001600160a01b038216820361062557565b90600182811c92168015611b87575b6020831014611b7157565b634e487b7160e01b600052602260045260246000fd5b91607f1691611b66565b90601f801991011681019081106001600160401b0382111761046057604052565b9060405191826000825492611bc684611b57565b908184526001948581169081600014611c355750600114611bf2575b5050611bf092500383611b91565b565b9093915060005260209081600020936000915b818310611c1d575050611bf093508201013880611be2565b85548884018501529485019487945091830191611c05565b915050611bf094506020925060ff191682840152151560051b8201013880611be2565b6001600160401b03811161046057601f01601f191660200190565b929192611c7f82611c58565b91611c8d6040519384611b91565b829481845281830111610625578281602093846000960137010152565b9080601f8301121561062557816020611cc593359101611c73565b90565b6060906003190112610625576001600160a01b0390600435828116810361062557916024359081168103610625579060443590565b8054821015611d155760005260206000200190600090565b634e487b7160e01b600052603260045260246000fd5b6006546001600160a01b03163303611d3f57565b606460405162461bcd60e51b815260206004820152602060248201527f4f776e61626c653a2063616c6c6572206973206e6f7420746865206f776e65726044820152fd5b15611d8a57565b60405162461bcd60e51b815260206004820152601860248201527f4552433732313a20696e76616c696420746f6b656e20494400000000000000006044820152606490fd5b6000908152600260205260409020546001600160a01b0316611cc5811515611d83565b600081815260026020526040902054611e15906001600160a01b03161515611d83565b6000908152600460205260409020546001600160a01b031690565b15611e3757565b60405162461bcd60e51b815260206004820152602d60248201527f4552433732313a2063616c6c6572206973206e6f7420746f6b656e206f776e6560448201526c1c881bdc88185c1c1c9bdd9959609a1b6064820152608490fd5b90611eb6939291611ea661164e8433611f2d565b611eb1838383611ff5565b612106565b15611ebd57565b60405162461bcd60e51b815280611ed660048201611eda565b0390fd5b60809060208152603260208201527f4552433732313a207472616e7366657220746f206e6f6e20455243373231526560408201527131b2b4bb32b91034b6b83632b6b2b73a32b960711b60608201520190565b906001600160a01b038080611f4184611dcf565b16931691838314938415611f74575b508315611f5e575b50505090565b611f6a91929350611df2565b1614388080611f58565b909350600052600560205260406000208260005260205260ff604060002054169238611f50565b15611fa257565b60405162461bcd60e51b815260206004820152602560248201527f4552433732313a207472616e736665722066726f6d20696e636f72726563742060448201526437bbb732b960d91b6064820152608490fd5b9061201d9161200384611dcf565b6001600160a01b0393918416928492909183168414611f9b565b169182156120b5578161203a9161203386611dcf565b1614611f9b565b7fddf252ad1be2c89b69c2b068fc378daa952ba7f163c4a11628f55a4df523b3ef60008481526004602052604081206001600160601b0360a01b9081815416905583825260036020526040822060001981540190558482526040822060018154019055858252600260205284604083209182541617905580a4565b60405162461bcd60e51b8152602060048201526024808201527f4552433732313a207472616e7366657220746f20746865207a65726f206164646044820152637265737360e01b6064820152608490fd5b9293600093909291803b15612220579484916121609660405180948193630a85bd0160e11b9788845233600485015260018060a01b0380921660248501526044840152608060648401528260209b8c976084830190611aeb565b0393165af18491816121dc575b506121cb575050503d6000146121c3573d61218781611c58565b906121956040519283611b91565b81528091833d92013e5b805191826121c05760405162461bcd60e51b815280611ed660048201611eda565b01fd5b50606061219f565b6001600160e01b0319161492509050565b9091508581813d8311612219575b6121f48183611b91565b8101031261221557516001600160e01b03198116810361221557903861216d565b8480fd5b503d6121ea565b505050915050600190565b1561223257565b60405162461bcd60e51b815260206004820152601c60248201527f4552433732313a20746f6b656e20616c7265616479206d696e746564000000006044820152606490fd5b6001600160a01b03168015612327576000828152600260205260409020546122ab906001600160a01b031615155b1561222b565b6000828152600260205260409020546122ce906001600160a01b031615156122a5565b600081815260036020526040812060018154019055828152600260205260408120826001600160601b0360a01b8254161790557fddf252ad1be2c89b69c2b068fc378daa952ba7f163c4a11628f55a4df523b3ef8180a4565b606460405162461bcd60e51b815260206004820152602060248201527f4552433732313a206d696e7420746f20746865207a65726f20616464726573736044820152fd5b9190916000908152602092600d845260408220918151916001600160401b0383116124815761239a8454611b57565b601f811161243e575b508591601f84116001146123dd578394959650926123d2575b50508160011b916000199060031b1c1916179055565b0151905038806123bc565b9190601f1984169685845280842093905b8882106124265750508360019596971061240d575b505050811b019055565b015160001960f88460031b161c19169055388080612403565b806001859682949686015181550195019301906123ee565b848352868320601f850160051c810191888610612477575b601f0160051c01905b81811061246c57506123a3565b83815560010161245f565b9091508190612456565b634e487b7160e01b82526041600452602482fdfea264697066735822122062a504ca206aa07ba9a1e69558fa31c9d38c7c3b82511453dec7c0951663712a64736f6c63430008130033290decd9548b62a8d60345a988386fc84ba6bc95484008f6362f93160ef3e563b10e2d527612073b26eecdfd717e6a320cf44b4afac2b0732d9fcbe2b7fa0cf6",
  "linkReferences": {},
  "deployedLinkReferences": {}
}