{
  "_format": "hh-sol-artifact-1",
  "contractName": "FanChain",
  "sourceName": "contracts/FanChain.sol",
  "abi": [
    {
      "inputs": [
        {
          "internalType": "address",
          "name": "_platformWallet",
          "type": "address"
        }
      ],
      "stateMutability": "nonpayable",
      "type": "constructor"
    },
    {
      "anonymous": false,
      "inputs": [
        {
          "indexed": true,
          "internalType": "address",
          "name": "owner",
          "type": "address"
        },
        {
          "indexed": true,
          "internalType": "address",
          "name": "approved",
          "type": "address"
        },
        {
          "indexed": true,
          "internalType": "uint256",
          "name": "tokenId",
          "type": "uint256"
        }
      ],
      "name": "Approval",
      "type": "event"
    },
    {
      "anonymous": false,
      "inputs": [
        {
          "indexed": true,
          "internalType": "address",
          "name": "owner",
          "type": "address"
        },
        {
          "indexed": true,
          "internalType": "address",
          "name": "operator",
          "type": "address"
        },
        {
          "indexed": false,
          "internalType": "bool",
          "name": "approved",
          "type": "bool"
        }
      ],
      "name": "ApprovalForAll",
      "type": "event"
    },
    {
      "anonymous": false,
      "inputs": [
        {
          "indexed": true,
          "internalType": "uint256",
          "name": "id",
          "type": "uint256"
        },
        {
          "indexed": true,
          "internalType": "address",
          "name": "creator",
          "type": "address"
        },
        {
          "indexed": false,
          "internalType": "string",
          "name": "name",
          "type": "string"
        }
      ],
      "name": "CampaignCreated",
      "type": "event"
    },
    {
      "anonymous": false,
      "inputs": [
        {
          "indexed": true,
          "internalType": "address",
          "name": "influencer",
          "type": "address"
        },
        {
          "indexed": false,
          "internalType": "uint256",
          "name": "amount",
          "type": "uint256"
        }
      ],
      "name": "EarningsClaimed",
      "type": "event"
    },
    {
      "anonymous": false,
      "inputs": [
        {
          "indexed": true,
          "internalType": "uint256",
          "name": "tokenId",
          "type": "uint256"
        },
        {
          "indexed": true,
          "internalType": "address",
          "name": "owner",
          "type": "address"
        },
        {
          "indexed": false,
          "internalType": "uint256",
          "name": "campaignId",
          "type": "uint256"
        }
      ],
      "name": "NFTMinted",
      "type": "event"
    },
    {
      "anonymous": false,
      "inputs": [
        {
          "indexed": true,
          "internalType": "address",
          "name": "previousOwner",
          "type": "address"
        },
        {
          "indexed": true,
          "internalType": "address",
          "name": "newOwner",
          "type": "address"
        }
      ],
      "name": "OwnershipTransferred",
      "type": "event"
    },
    {
      "anonymous": false,
      "inputs": [
        {
          "indexed": true,
          "internalType": "address",
          "name": "from",
          "type": "address"
        },
        {
          "indexed": true,
          "internalType": "address",
          "name": "to",
          "type": "address"
        },
        {
          "indexed": true,
          "internalType": "uint256",
          "name": "tokenId",
          "type": "uint256"
        }
      ],
      "name": "Transfer",
      "type": "event"
    },
    {
      "inputs": [],
      "name": "CHECKIN_TYPEHASH",
      "outputs": [
        {
          "internalType": "bytes32",
          "name": "",
          "type": "bytes32"
        }
      ],
      "stateMutability": "view",
      "type": "function"
    },
    {
      "inputs": [],
      "name": "DOMAIN_SEPARATOR",
      "outputs": [
        {
          "internalType": "bytes32",
          "name": "",
          "type": "bytes32"
        }
      ],
      "stateMutability": "view",
      "type": "function"
    },
    {
      "inputs": [
        {
          "internalType": "address",
          "name": "to",
          "type": "address"
        },
        {
          "internalType": "uint256",
          "name": "tokenId",
          "type": "uint256"
        }
      ],
      "name": "approve",
      "outputs": [],
      "stateMutability": "nonpayable",
      "type": "function"
    },
    {
      "inputs": [
        {
          "internalType": "address",
          "name": "owner",
          "type": "address"
        }
      ],
      "name": "balanceOf",
      "outputs": [
        {
          "internalType": "uint256",
          "name": "",
          "type": "uint256"
        }
      ],
      "stateMutability": "view",
      "type": "function"
    },
    {
      "inputs": [
        {
          "internalType": "uint256",
          "name": "",
          "type": "uint256"
        }
      ],
      "name": "campaigns",
      "outputs": [
        {
          "internalType": "uint256",
          "name": "id",
          "type": "uint256"
        },
        {
          "internalType": "address",
          "name": "creator",
          "type": "address"
        },
        {
          "internalType": "string",
          "name": "name",
          "type": "string"
        },
        {
          "internalType": "string",
          "name": "description",
          "type": "string"
        },
        {
          "internalType": "uint256",
          "name": "stadiumLat",
          "type": "uint256"
        },
        {
          "internalType": "uint256",
          "name": "stadiumLng",
          "type": "uint256"
        },
        {
          "internalType": "uint256",
          "name": "geoRadius",
          "type": "uint256"
        },
        {
          "internalType": "uint256",
          "name": "startTime",
          "type": "uint256"
        },
        {
          "internalType": "uint256",
          "name": "endTime",
          "type": "uint256"
        },
        {
          "internalType": "string",
          "name": "rewardTier",
          "type": "string"
        },
        {
          "internalType": "uint256",
          "name": "rewardPoints",
          "type": "uint256"
        },
        {
          "internalType": "address",
          "name": "sponsor",
          "type": "address"
        },
        {
          "internalType": "uint256",
          "name": "sponsorFee",
          "type": "uint256"
        },
        {
          "internalType": "bool",
          "name": "active",
          "type": "bool"
        }
      ],
      "stateMutability": "view",
      "type": "function"
    },
    {
      "inputs": [],
      "name": "claimEarnings",
      "outputs": [],
      "stateMutability": "nonpayable",
      "type": "function"
    },
    {
      "inputs": [
        {
          "internalType": "string",
          "name": "_name",
          "type": "string"
        },
        {
          "internalType": "string",
          "name": "_description",
          "type": "string"
        },
        {
          "internalType": "uint256",
          "name": "_stadiumLat",
          "type": "uint256"
        },
        {
          "internalType": "uint256",
          "name": "_stadiumLng",
          "type": "uint256"
        },
        {
          "internalType": "uint256",
          "name": "_geoRadius",
          "type": "uint256"
        },
        {
          "internalType": "uint256",
          "name": "_startTime",
          "type": "uint256"
        },
        {
          "internalType": "uint256",
          "name": "_endTime",
          "type": "uint256"
        },
        {
          "internalType": "string",
          "name": "_rewardTier",
          "type": "string"
        },
        {
          "internalType": "uint256",
          "name": "_rewardPoints",
          "type": "uint256"
        },
        {
          "internalType": "address",
          "name": "_sponsor",
          "type": "address"
        }
      ],
      "name": "createCampaign",
      "outputs": [
        {
          "internalType": "uint256",
          "name": "",
          "type": "uint256"
        }
      ],
      "stateMutability": "nonpayable",
      "type": "function"
    },
    {
      "inputs": [
        {
          "internalType": "uint256",
          "name": "tokenId",
          "type": "uint256"
        }
      ],
      "name": "getApproved",
      "outputs": [
        {
          "internalType": "address",
          "name": "",
          "type": "address"
        }
      ],
      "stateMutability": "view",
      "type": "function"
    },
    {
      "inputs": [],
      "name": "getContractStats",
      "outputs": [
        {
          "internalType": "uint256",
          "name": "totalCampaigns",
          "type": "uint256"
        },
        {
          "internalType": "uint256",
          "name": "totalNFTs",
          "type": "uint256"
        },
        {
          "internalType": "uint256",
          "name": "totalEarnings",
          "type": "uint256"
        }
      ],
      "stateMutability": "view",
      "type": "function"
    },
    {
      "inputs": [
        {
          "internalType": "address",
          "name": "_user",
          "type": "address"
        }
      ],
      "name": "getUserNFTs",
      "outputs": [
        {
          "internalType": "uint256[]",
          "name": "",
          "type": "uint256[]"
        }
      ],
      "stateMutability": "view",
      "type": "function"
    },
    {
      "inputs": [
        {
          "internalType": "address",
          "name": "",
          "type": "address"
        },
        {
          "internalType": "uint256",
          "name": "",
          "type": "uint256"
        }
      ],
      "name": "hasMintedCampaign",
      "outputs": [
        {
          "internalType": "bool",
          "name": "",
          "type": "bool"
        }
      ],
      "stateMutability": "view",
      "type": "function"
    },
    {
      "inputs": [
        {
          "internalType": "address",
          "name": "",
          "type": "address"
        }
      ],
      "name": "influencerEarnings",
      "outputs": [
        {
          "internalType": "uint256",
          "name": "",
          "type": "uint256"
        }
      ],
      "stateMutability": "view",
      "type": "function"
    },
    {
      "inputs": [
        {
          "internalType": "address",
          "name": "owner",
          "type": "address"
        },
        {
          "internalType": "address",
          "name": "operator",
          "type": "address"
        }
      ],
      "name": "isApprovedForAll",
      "outputs": [
        {
          "internalType": "bool",
          "name": "",
          "type": "bool"
        }
      ],
      "stateMutability": "view",
      "type": "function"
    },
    {
      "inputs": [
        {
          "internalType": "address",
          "name": "_to",
          "type": "address"
        },
        {
          "internalType": "uint256",
          "name": "_campaignId",
          "type": "uint256"
        },
        {
          "internalType": "string",
          "name": "_tokenURI",
          "type": "string"
        },
        {
          "internalType": "uint256",
          "name": "_lat",
          "type": "uint256"
        },
        {
          "internalType": "uint256",
          "name": "_lng",
          "type": "uint256"
        },
        {
          "internalType": "string",
          "name": "_influencerId",
          "type": "string"
        }
      ],
      "name": "mintAttendanceNFT",
      "outputs": [],
      "stateMutability": "nonpayable",
      "type": "function"
    },
    {
      "inputs": [
        {
          "components": [
            {
              "internalType": "address",
              "name": "user",
              "type": "address"
            },
            {
              "internalType": "uint256",
              "name": "campaignId",
              "type": "uint256"
            },
            {
              "internalType": "uint256",
              "name": "lat",
              "type": "uint256"
            },
            {
              "internalType": "uint256",
              "name": "lng",
              "type": "uint256"
            },
            {
              "internalType": "uint256",
              "name": "timestamp",
              "type": "uint256"
            },
            {
              "internalType": "uint256",
              "name": "nonce",
              "type": "uint256"
            },
            {
              "internalType": "uint256",
              "name": "expiry",
              "type": "uint256"
            }
          ],
          "internalType": "struct FanChain.CheckInProof",
          "name": "proof",
          "type": "tuple"
        },
        {
          "internalType": "bytes",
          "name": "signature",
          "type": "bytes"
        },
        {
          "internalType": "string",
          "name": "_tokenURI",
          "type": "string"
        }
      ],
      "name": "mintWithSignature",
      "outputs": [],
      "stateMutability": "nonpayable",
      "type": "function"
    },
    {
      "inputs": [],
      "name": "name",
      "outputs": [
        {
          "internalType": "string",
          "name": "",
          "type": "string"
        }
      ],
      "stateMutability": "view",
      "type": "function"
    },
    {
      "inputs": [
        {
          "internalType": "uint256",
          "name": "",
          "type": "uint256"
        }
      ],
      "name": "nfts",
      "outputs": [
        {
          "internalType": "uint256",
          "name": "tokenId",
          "type": "uint256"
        },
        {
          "internalType": "address",
          "name": "owner",
          "type": "address"
        },
        {
          "internalType": "uint256",
          "name": "campaignId",
          "type": "uint256"
        },
        {
          "internalType": "uint256",
          "name": "timestamp",
          "type": "uint256"
        },
        {
          "internalType": "uint256",
          "name": "lat",
          "type": "uint256"
        },
        {
          "internalType": "uint256",
          "name": "lng",
          "type": "uint256"
        },
        {
          "internalType": "string",
          "name": "influencerId",
          "type": "string"
        }
      ],
      "stateMutability": "view",
      "type": "function"
    },
    {
      "inputs": [],
      "name": "owner",
      "outputs": [
        {
          "internalType": "address",
          "name": "",
          "type": "address"
        }
      ],
      "stateMutability": "view",
      "type": "function"
    },
    {
      "inputs": [
        {
          "internalType": "uint256",
          "name": "tokenId",
          "type": "uint256"
        }
      ],
      "name": "ownerOf",
      "outputs": [
        {
          "internalType": "address",
          "name": "",
          "type": "address"
        }
      ],
      "stateMutability": "view",
      "type": "function"
    },
    {
      "inputs": [],
      "name": "platformFee",
      "outputs": [
        {
          "internalType": "uint256",
          "name": "",
          "type": "uint256"
        }
      ],
      "stateMutability": "view",
      "type": "function"
    },
    {
      "inputs": [],
      "name": "platformWallet",
      "outputs": [
        {
          "internalType": "address",
          "name": "",
          "type": "address"
        }
      ],
      "stateMutability": "view",
      "type": "function"
    },
    {
      "inputs": [],
      "name": "renounceOwnership",
      "outputs": [],
      "stateMutability": "nonpayable",
      "type": "function"
    },
    {
      "inputs": [
        {
          "internalType": "address",
          "name": "from",
          "type": "address"
        },
        {
          "internalType": "address",
          "name": "to",
          "type": "address"
        },
        {
          "internalType": "uint256",
          "name": "tokenId",
          "type": "uint256"
        }
      ],
      "name": "safeTransferFrom",
      "outputs": [],
      "stateMutability": "nonpayable",
      "type": "function"
    },
    {
      "inputs": [
        {
          "internalType": "address",
          "name": "from",
          "type": "address"
        },
        {
          "internalType": "address",
          "name": "to",
          "type": "address"
        },
        {
          "internalType": "uint256",
          "name": "tokenId",
          "type": "uint256"
        },
        {
          "internalType": "bytes",
          "name": "data",
          "type": "bytes"
        }
      ],
      "name": "safeTransferFrom",
      "outputs": [],
      "stateMutability": "nonpayable",
      "type": "function"
    },
    {
      "inputs": [
        {
          "internalType": "address",
          "name": "operator",
          "type": "address"
        },
        {
          "internalType": "bool",
          "name": "approved",
          "type": "bool"
        }
      ],
      "name": "setApprovalForAll",
      "outputs": [],
      "stateMutability": "nonpayable",
      "type": "function"
    },
    {
      "inputs": [
        {
          "internalType": "uint256",
          "name": "_tokenId",
          "type": "uint256"
        },
        {
          "internalType": "string",
          "name": "_uri",
          "type": "string"
        }
      ],
      "name": "setTokenURI",
      "outputs": [],
      "stateMutability": "nonpayable",
      "type": "function"
    },
    {
      "inputs": [
        {
          "internalType": "bytes4",
          "name": "interfaceId",
          "type": "bytes4"
        }
      ],
      "name": "supportsInterface",
      "outputs": [
        {
          "internalType": "bool",
          "name": "",
          "type": "bool"
        }
      ],
      "stateMutability": "view",
      "type": "function"
    },
    {
      "inputs": [],
      "name": "symbol",
      "outputs": [
        {
          "internalType": "string",
          "name": "",
          "type": "string"
        }
      ],
      "stateMutability": "view",
      "type": "function"
    },
    {
      "inputs": [
        {
          "internalType": "uint256",
          "name": "_campaignId",
          "type": "uint256"
        }
      ],
      "name": "toggleCampaign",
      "outputs": [],
      "stateMutability": "nonpayable",
      "type": "function"
    },
    {
      "inputs": [
        {
          "internalType": "uint256",
          "name": "_tokenId",
          "type": "uint256"
        }
      ],
      "name": "tokenURI",
      "outputs": [
        {
          "internalType": "string",
          "name": "",
          "type": "string"
        }
      ],
      "stateMutability": "view",
      "type": "function"
    },
    {
      "inputs": [
        {
          "internalType": "address",
          "name": "",
          "type": "address"
        }
      ],
      "name": "totalCheckIns",
      "outputs": [
        {
          "internalType": "uint256",
          "name": "",
          "type": "uint256"
        }
      ],
      "stateMutability": "view",
      "type": "function"
    },
    {
      "inputs": [
        {
          "internalType": "address",
          "name": "from",
          "type": "address"
        },
        {
          "internalType": "address",
          "name": "to",
          "type": "address"
        },
        {
          "internalType": "uint256",
          "name": "tokenId",
          "type": "uint256"
        }
      ],
      "name": "transferFrom",
      "outputs": [],
      "stateMutability": "nonpayable",
      "type": "function"
    },
    {
      "inputs": [
        {
          "internalType": "address",
          "name": "newOwner",
          "type": "address"
        }
      ],
      "name": "transferOwnership",
      "outputs": [],
      "stateMutability": "nonpayable",
      "type": "function"
    },
    {
      "inputs": [
        {
          "internalType": "bytes32",
          "name": "",
          "type": "bytes32"
        }
      ],
      "name": "usedProofs",
      "outputs": [
        {
          "internalType": "bool",
          "name": "",
          "type": "bool"
        }
      ],
      "stateMutability": "view",
      "type": "function"
    },
    {
      "inputs": [
        {
          "internalType": "address",
          "name": "",
          "type": "address"
        },
        {
          "internalType": "uint256",
          "name": "",
          "type": "uint256"
        }
      ],
      "name": "userNFTs",
      "outputs": [
        {
          "internalType": "uint256",
          "name": "",
          "type": "uint256"
        }
      ],
      "stateMutability": "view",
      "type": "function"
    },
    {
      "stateMutability": "payable",
      "type": "receive"
    }
  ],
  "bytecode": "0x60806040526101f4600e553480156200001757600080fd5b5060405162003394380380620033948339810160408190526200003a916200020a565b6040518060400160405280600c81526020016b2829a6102330b721b430b4b760a11b815250604051806040016040528060048152602001632829a62360e11b81525081600090816200008d9190620002e1565b5060016200009c8282620002e1565b505050620000b9620000b3620001b460201b60201c565b620001b8565b600f80546001600160a01b0319166001600160a01b038316179055604080518082018252600c81526b2829a6102330b721b430b4b760a11b6020918201528151808301835260018152603160f81b9082015281517f8b73c3c69bb8fe3d512ecc4cf759cc79239f7b179b0ffacaa9a75d522b39400f918101919091527f69882efaa794b0592d7edcebec11bd63531f23506c493a4f9f4f808c0e6db035918101919091527fc89efdaa54c0f20c7adf612882df0950f5a951637e0307cdcb4c672f298b8bc660608201524660808201523060a082015260c00160408051601f19818403018152919052805160209091012060105550620003ad565b3390565b600680546001600160a01b038381166001600160a01b0319831681179093556040519116919082907f8be0079c531659141344cd1fd0a4f28419497f9722a3daafe3b4186f6b6457e090600090a35050565b6000602082840312156200021d57600080fd5b81516001600160a01b03811681146200023557600080fd5b9392505050565b634e487b7160e01b600052604160045260246000fd5b600181811c908216806200026757607f821691505b6020821081036200028857634e487b7160e01b600052602260045260246000fd5b50919050565b601f821115620002dc57600081815260208120601f850160051c81016020861015620002b75750805b601f850160051c820191505b81811015620002d857828155600101620002c3565b5050505b505050565b81516001600160401b03811115620002fd57620002fd6200023c565b62000315816200030e845462000252565b846200028e565b602080601f8311600181146200034d5760008415620003345750858301515b600019600386901b1c1916600185901b178555620002d8565b600085815260208120601f198616915b828110156200037e578886015182559484019460019091019084016200035d565b50858210156200039d5787850151600019600388901b60f8161c191681555b5050505050600190811b01905550565b612fd780620003bd6000396000f3fe6080604052600436106102085760003560e01c8063828e1ffd11610118578063c87b56dd116100a0578063e985e9c51161006f578063e985e9c51461067f578063f02f38331461069f578063f2fde38b146106bf578063fa2af9da146106df578063fa752a91146106ff57600080fd5b8063c87b56dd146105fa578063d9ceab131461061a578063dfe6b5d61461062f578063e0c628e91461065f57600080fd5b8063ab642acd116100e7578063ab642acd1461050e578063b260105f1461053b578063b48c7f4914610576578063b88d4fde146105aa578063c30a0f25146105ca57600080fd5b8063828e1ffd1461048e5780638da5cb5b146104bb57806395d89b41146104d9578063a22cb465146104ee57600080fd5b8063265aa6211161019b57806352de4ee51161016a57806352de4ee5146103ec5780635ad47519146104195780636352211e1461043957806370a0823114610459578063715018a61461047957600080fd5b8063265aa62114610363578063291c73c3146103965780633644e515146103b657806342842e0e146103cc57600080fd5b8063141961bc116101d7578063141961bc146102c5578063162094c4146102ff57806323b872dd1461031f57806326232a2e1461033f57600080fd5b806301ffc9a71461021457806306fdde0314610249578063081812fc1461026b578063095ea7b3146102a357600080fd5b3661020f57005b600080fd5b34801561022057600080fd5b5061023461022f366004612602565b61071f565b60405190151581526020015b60405180910390f35b34801561025557600080fd5b5061025e610771565b6040516102409190612665565b34801561027757600080fd5b5061028b610286366004612678565b610803565b6040516001600160a01b039091168152602001610240565b3480156102af57600080fd5b506102c36102be3660046126ad565b61082a565b005b3480156102d157600080fd5b506102e56102e0366004612678565b610944565b6040516102409e9d9c9b9a999897969594939291906126d7565b34801561030b57600080fd5b506102c361031a36600461283c565b610b59565b34801561032b57600080fd5b506102c361033a366004612883565b610b6f565b34801561034b57600080fd5b50610355600e5481565b604051908152602001610240565b34801561036f57600080fd5b5061038361037e366004612678565b610ba0565b60405161024097969594939291906128bf565b3480156103a257600080fd5b506103556103b13660046126ad565b610c71565b3480156103c257600080fd5b5061035560105481565b3480156103d857600080fd5b506102c36103e7366004612883565b610ca2565b3480156103f857600080fd5b5061040c61040736600461290b565b610cbd565b6040516102409190612926565b34801561042557600080fd5b506102c3610434366004612678565b610d29565b34801561044557600080fd5b5061028b610454366004612678565b610da3565b34801561046557600080fd5b5061035561047436600461290b565b610e03565b34801561048557600080fd5b506102c3610e89565b34801561049a57600080fd5b506103556104a936600461290b565b600c6020526000908152604090205481565b3480156104c757600080fd5b506006546001600160a01b031661028b565b3480156104e557600080fd5b5061025e610e9d565b3480156104fa57600080fd5b506102c361050936600461296a565b610eac565b34801561051a57600080fd5b5061035561052936600461290b565b600b6020526000908152604090205481565b34801561054757600080fd5b506102346105563660046126ad565b601260209081526000928352604080842090915290825290205460ff1681565b34801561058257600080fd5b506103557fd4055a82ce40fc774f15e1c6ba9a8ab97c80ea431dab52a500ce192c379f841181565b3480156105b657600080fd5b506102c36105c53660046129a6565b610eb7565b3480156105d657600080fd5b506102346105e5366004612678565b60116020526000908152604090205460ff1681565b34801561060657600080fd5b5061025e610615366004612678565b610eef565b34801561062657600080fd5b506102c3610fdc565b34801561063b57600080fd5b5061064461111e565b60408051938452602084019290925290820152606001610240565b34801561066b57600080fd5b5061035561067a366004612a22565b61113b565b34801561068b57600080fd5b5061023461069a366004612af7565b611342565b3480156106ab57600080fd5b506102c36106ba366004612b2a565b611370565b3480156106cb57600080fd5b506102c36106da36600461290b565b6119fa565b3480156106eb57600080fd5b50600f5461028b906001600160a01b031681565b34801561070b57600080fd5b506102c361071a366004612bd0565b611a73565b60006001600160e01b031982166380ac58cd60e01b148061075057506001600160e01b03198216635b5e139f60e01b145b8061076b57506301ffc9a760e01b6001600160e01b03198316145b92915050565b60606000805461078090612c60565b80601f01602080910402602001604051908101604052809291908181526020018280546107ac90612c60565b80156107f95780601f106107ce576101008083540402835291602001916107f9565b820191906000526020600020905b8154815290600101906020018083116107dc57829003601f168201915b5050505050905090565b600061080e82611d52565b506000908152600460205260409020546001600160a01b031690565b600061083582610da3565b9050806001600160a01b0316836001600160a01b0316036108a75760405162461bcd60e51b815260206004820152602160248201527f4552433732313a20617070726f76616c20746f2063757272656e74206f776e656044820152603960f91b60648201526084015b60405180910390fd5b336001600160a01b03821614806108c357506108c38133611342565b6109355760405162461bcd60e51b815260206004820152603d60248201527f4552433732313a20617070726f76652063616c6c6572206973206e6f7420746f60448201527f6b656e206f776e6572206f7220617070726f76656420666f7220616c6c000000606482015260840161089e565b61093f8383611db1565b505050565b60086020526000908152604090208054600182015460028301805492936001600160a01b039092169261097690612c60565b80601f01602080910402602001604051908101604052809291908181526020018280546109a290612c60565b80156109ef5780601f106109c4576101008083540402835291602001916109ef565b820191906000526020600020905b8154815290600101906020018083116109d257829003601f168201915b505050505090806003018054610a0490612c60565b80601f0160208091040260200160405190810160405280929190818152602001828054610a3090612c60565b8015610a7d5780601f10610a5257610100808354040283529160200191610a7d565b820191906000526020600020905b815481529060010190602001808311610a6057829003601f168201915b505050505090806004015490806005015490806006015490806007015490806008015490806009018054610ab090612c60565b80601f0160208091040260200160405190810160405280929190818152602001828054610adc90612c60565b8015610b295780601f10610afe57610100808354040283529160200191610b29565b820191906000526020600020905b815481529060010190602001808311610b0c57829003601f168201915b50505050600a830154600b840154600c850154600d90950154939491936001600160a01b03909116925060ff168e565b610b61611e1f565b610b6b8282611e79565b5050565b610b793382611e91565b610b955760405162461bcd60e51b815260040161089e90612c9a565b61093f838383611ef0565b600960205260009081526040902080546001820154600283015460038401546004850154600586015460068701805496976001600160a01b03909616969495939492939192610bee90612c60565b80601f0160208091040260200160405190810160405280929190818152602001828054610c1a90612c60565b8015610c675780601f10610c3c57610100808354040283529160200191610c67565b820191906000526020600020905b815481529060010190602001808311610c4a57829003601f168201915b5050505050905087565b600a6020528160005260406000208181548110610c8d57600080fd5b90600052602060002001600091509150505481565b61093f83838360405180602001604052806000815250610eb7565b6001600160a01b0381166000908152600a6020908152604091829020805483518184028101840190945280845260609392830182828015610d1d57602002820191906000526020600020905b815481526020019060010190808311610d09575b50505050509050919050565b6000818152600860205260409020600101546001600160a01b03163314610d805760405162461bcd60e51b815260206004820152600b60248201526a2737ba1031b932b0ba37b960a91b604482015260640161089e565b6000908152600860205260409020600d01805460ff19811660ff90911615179055565b6000818152600260205260408120546001600160a01b03168061076b5760405162461bcd60e51b8152602060048201526018602482015277115490cdcc8c4e881a5b9d985b1a59081d1bdad95b88125160421b604482015260640161089e565b60006001600160a01b038216610e6d5760405162461bcd60e51b815260206004820152602960248201527f4552433732313a2061646472657373207a65726f206973206e6f7420612076616044820152683634b21037bbb732b960b91b606482015260840161089e565b506001600160a01b031660009081526003602052604090205490565b610e91611e1f565b610e9b6000612054565b565b60606001805461078090612c60565b610b6b3383836120a6565b610ec13383611e91565b610edd5760405162461bcd60e51b815260040161089e90612c9a565b610ee984848484612174565b50505050565b6000818152600260205260409020546060906001600160a01b0316610f485760405162461bcd60e51b815260206004820152600f60248201526e151bdad95b881b9bdd08199bdd5b99608a1b604482015260640161089e565b6000828152600d602052604090208054610f6190612c60565b80601f0160208091040260200160405190810160405280929190818152602001828054610f8d90612c60565b8015610d1d5780601f10610faf57610100808354040283529160200191610d1d565b820191906000526020600020905b815481529060010190602001808311610fbd5750939695505050505050565b336000908152600b6020526040902054806110305760405162461bcd60e51b81526020600482015260146024820152734e6f206561726e696e677320746f20636c61696d60601b604482015260640161089e565b6000612710600e546127106110459190612cfd565b61104f9084612d10565b6110599190612d27565b336000818152600b602052604080822082905551929350909183156108fc0291849190818181858888f19350505050158015611099573d6000803e3d6000fd5b50600e54156110e557600f546001600160a01b03166108fc6110bb8385612cfd565b6040518115909202916000818181858888f193505050501580156110e3573d6000803e3d6000fd5b505b60405181815233907f6a8d334a32dfb49dae325dba76deb51b0b8f5ea50b1cdfa70710f4dc1b9c24c59060200160405180910390a25050565b600080600061112c60075490565b60075447925092509250909192565b60008061114760075490565b9050604051806101c00160405280828152602001336001600160a01b031681526020018d81526020018c81526020018b81526020018a8152602001898152602001888152602001878152602001868152602001858152602001846001600160a01b031681526020016000815260200160011515815250600860008381526020019081526020016000206000820151816000015560208201518160010160006101000a8154816001600160a01b0302191690836001600160a01b03160217905550604082015181600201908161121c9190612d97565b50606082015160038201906112319082612d97565b506080820151600482015560a0820151600582015560c0820151600682015560e082015160078201556101008201516008820155610120820151600982019061127a9082612d97565b5061014082015181600a015561016082015181600b0160006101000a8154816001600160a01b0302191690836001600160a01b0316021790555061018082015181600c01556101a082015181600d0160006101000a81548160ff021916908315150217905550905050336001600160a01b0316817fc04c663886cae794dc52158f70fe6c8ee3b0140d4f48647282f9b693ff688a658e60405161131d9190612665565b60405180910390a3611333600780546001019055565b9b9a5050505050505050505050565b6001600160a01b03918216600090815260056020908152604080832093909416825291909152205460ff1690565b60208085013560008181526008909252604090912080549091146113cb5760405162461bcd60e51b815260206004820152601260248201527110d85b5c185a59db881b9bdd08199bdd5b9960721b604482015260640161089e565b600d81015460ff166114155760405162461bcd60e51b815260206004820152601360248201527243616d706169676e206e6f742061637469766560681b604482015260640161089e565b80600701544210156114605760405162461bcd60e51b815260206004820152601460248201527310d85b5c185a59db881b9bdd081cdd185c9d195960621b604482015260640161089e565b80600801544211156114a55760405162461bcd60e51b815260206004820152600e60248201526d10d85b5c185a59db88195b99195960921b604482015260640161089e565b8460c001354211156114e95760405162461bcd60e51b815260206004820152600d60248201526c141c9bdbd988195e1c1a5c9959609a1b604482015260640161089e565b601260006114fa602088018861290b565b6001600160a01b031681526020808201929092526040908101600090812088840135825290925290205460ff16156115655760405162461bcd60e51b815260206004820152600e60248201526d105b1c9958591e481b5a5b9d195960921b604482015260640161089e565b6010546000907fd4055a82ce40fc774f15e1c6ba9a8ab97c80ea431dab52a500ce192c379f8411611599602089018961290b565b886020013589604001358a606001358b608001358c60a001358d60c001356040516020016116089897969594939291909788526001600160a01b0396909616602088015260408701949094526060860192909252608085015260a084015260c083015260e08201526101000190565b6040516020818303038152906040528051906020012060405160200161164592919061190160f01b81526002810192909252602282015260420190565b60408051601f198184030181529190528051602090910120905060008080604187146116b35760405162461bcd60e51b815260206004820152601860248201527f496e76616c6964207369676e6174757265206c656e6774680000000000000000604482015260640161089e565b5050600f5460408051600080825260208083018085528790528a84013590911a928201839052893560608301819052908a013560808301819052909450926001600160a01b03169060019060a0016020604051602081039080840390855afa158015611723573d6000803e3d6000fd5b505050602060405103516001600160a01b0316146117775760405162461bcd60e51b8152602060048201526011602482015270496e76616c6964207369676e617475726560781b604482015260640161089e565b60008481526011602090815260408220805460ff19166001908117909155916012916117a5908d018d61290b565b6001600160a01b03168152602080820192909252604090810160009081208d840180358352935220805460ff191692151592909217909155600754906117f5906117ef908c61290b565b826121a7565b6117ff8188611e79565b6040805160e0810190915281815260208082019061181f908d018d61290b565b6001600160a01b031681526020018b6020013581526020014281526020018b6040013581526020018b6060013581526020016118718860010160009054906101000a90046001600160a01b0316612332565b905260008281526009602090815260409182902083518155908301516001820180546001600160a01b0319166001600160a01b03909216919091179055908201516002820155606082015160038201556080820151600482015560a0820151600582015560c082015160068201906118e99082612d97565b50600a9150600090506118ff60208d018d61290b565b6001600160a01b0390811682526020808301939093526040918201600090812080546001818101835591835285832001869055600a8b0154908b01549092168152600b909352908220805491929091611959908490612e57565b909155505060018601546001600160a01b03166000908152600c6020526040812080549161198683612e6a565b90915550611999905060208b018b61290b565b6001600160a01b0316817f055e34067993de700e7f718f190fdccc92a27695bb9068504a1a44258577f8eb8c602001356040516119d891815260200190565b60405180910390a36119ee600780546001019055565b50505050505050505050565b611a02611e1f565b6001600160a01b038116611a675760405162461bcd60e51b815260206004820152602660248201527f4f776e61626c653a206e6577206f776e657220697320746865207a65726f206160448201526564647265737360d01b606482015260840161089e565b611a7081612054565b50565b600085815260086020526040902060018101546001600160a01b03163314611ad45760405162461bcd60e51b81526020600482015260146024820152732737ba1031b0b6b830b4b3b71031b932b0ba37b960611b604482015260640161089e565b600d81015460ff16611b1e5760405162461bcd60e51b815260206004820152601360248201527243616d706169676e206e6f742061637469766560681b604482015260640161089e565b8060070154421015611b695760405162461bcd60e51b815260206004820152601460248201527310d85b5c185a59db881b9bdd081cdd185c9d195960621b604482015260640161089e565b8060080154421115611bae5760405162461bcd60e51b815260206004820152600e60248201526d10d85b5c185a59db88195b99195960921b604482015260640161089e565b6000611bb960075490565b9050611bc588826121a7565b611bcf8187611e79565b6040805160e0810182528281526001600160a01b038a811660208084019182528385018c81524260608601908152608086018c815260a087018c815260c088018c815260008b81526009909652989094208751815594516001860180546001600160a01b031916919097161790955590516002840155516003830155915160048201559051600582015591519091906006820190611c6d9082612d97565b5050506001600160a01b038089166000908152600a602081815260408084208054600181810183559186528386200187905592870154928701549094168352600b90529181208054839290611cc3908490612e57565b909155505060018301546001600160a01b03166000908152600c60205260408120805491611cf083612e6a565b9190505550886001600160a01b0316827f055e34067993de700e7f718f190fdccc92a27695bb9068504a1a44258577f8eb8a604051611d3191815260200190565b60405180910390a3611d47600780546001019055565b505050505050505050565b6000818152600260205260409020546001600160a01b0316611a705760405162461bcd60e51b8152602060048201526018602482015277115490cdcc8c4e881a5b9d985b1a59081d1bdad95b88125160421b604482015260640161089e565b600081815260046020526040902080546001600160a01b0319166001600160a01b0384169081179091558190611de682610da3565b6001600160a01b03167f8c5be1e5ebec7d5bd14f71427d1e84f3dd0314c0f7b2291e5b200ac8c7c3b92560405160405180910390a45050565b6006546001600160a01b03163314610e9b5760405162461bcd60e51b815260206004820181905260248201527f4f776e61626c653a2063616c6c6572206973206e6f7420746865206f776e6572604482015260640161089e565b6000828152600d6020526040902061093f8282612d97565b600080611e9d83610da3565b9050806001600160a01b0316846001600160a01b03161480611ec45750611ec48185611342565b80611ee85750836001600160a01b0316611edd84610803565b6001600160a01b0316145b949350505050565b826001600160a01b0316611f0382610da3565b6001600160a01b031614611f295760405162461bcd60e51b815260040161089e90612e83565b6001600160a01b038216611f8b5760405162461bcd60e51b8152602060048201526024808201527f4552433732313a207472616e7366657220746f20746865207a65726f206164646044820152637265737360e01b606482015260840161089e565b826001600160a01b0316611f9e82610da3565b6001600160a01b031614611fc45760405162461bcd60e51b815260040161089e90612e83565b600081815260046020908152604080832080546001600160a01b03199081169091556001600160a01b0387811680865260038552838620805460001901905590871680865283862080546001019055868652600290945282852080549092168417909155905184937fddf252ad1be2c89b69c2b068fc378daa952ba7f163c4a11628f55a4df523b3ef91a4505050565b600680546001600160a01b038381166001600160a01b0319831681179093556040519116919082907f8be0079c531659141344cd1fd0a4f28419497f9722a3daafe3b4186f6b6457e090600090a35050565b816001600160a01b0316836001600160a01b0316036121075760405162461bcd60e51b815260206004820152601960248201527f4552433732313a20617070726f766520746f2063616c6c657200000000000000604482015260640161089e565b6001600160a01b03838116600081815260056020908152604080832094871680845294825291829020805460ff191686151590811790915591519182527f17307eab39ab6107e8899845ad3d59bd9653f200f220920489ca2b5937696c31910160405180910390a3505050565b61217f848484611ef0565b61218b84848484612348565b610ee95760405162461bcd60e51b815260040161089e90612ec8565b6001600160a01b0382166121fd5760405162461bcd60e51b815260206004820181905260248201527f4552433732313a206d696e7420746f20746865207a65726f2061646472657373604482015260640161089e565b6000818152600260205260409020546001600160a01b0316156122625760405162461bcd60e51b815260206004820152601c60248201527f4552433732313a20746f6b656e20616c7265616479206d696e74656400000000604482015260640161089e565b6000818152600260205260409020546001600160a01b0316156122c75760405162461bcd60e51b815260206004820152601c60248201527f4552433732313a20746f6b656e20616c7265616479206d696e74656400000000604482015260640161089e565b6001600160a01b038216600081815260036020908152604080832080546001019055848352600290915280822080546001600160a01b0319168417905551839291907fddf252ad1be2c89b69c2b068fc378daa952ba7f163c4a11628f55a4df523b3ef908290a45050565b606061076b6001600160a01b0383166014612449565b60006001600160a01b0384163b1561243e57604051630a85bd0160e11b81526001600160a01b0385169063150b7a029061238c903390899088908890600401612f1a565b6020604051808303816000875af19250505080156123c7575060408051601f3d908101601f191682019092526123c491810190612f57565b60015b612424573d8080156123f5576040519150601f19603f3d011682016040523d82523d6000602084013e6123fa565b606091505b50805160000361241c5760405162461bcd60e51b815260040161089e90612ec8565b805181602001fd5b6001600160e01b031916630a85bd0160e11b149050611ee8565b506001949350505050565b60606000612458836002612d10565b612463906002612e57565b67ffffffffffffffff81111561247b5761247b612790565b6040519080825280601f01601f1916602001820160405280156124a5576020820181803683370190505b509050600360fc1b816000815181106124c0576124c0612f74565b60200101906001600160f81b031916908160001a905350600f60fb1b816001815181106124ef576124ef612f74565b60200101906001600160f81b031916908160001a9053506000612513846002612d10565b61251e906001612e57565b90505b6001811115612596576f181899199a1a9b1b9c1cb0b131b232b360811b85600f166010811061255257612552612f74565b1a60f81b82828151811061256857612568612f74565b60200101906001600160f81b031916908160001a90535060049490941c9361258f81612f8a565b9050612521565b5083156125e55760405162461bcd60e51b815260206004820181905260248201527f537472696e67733a20686578206c656e67746820696e73756666696369656e74604482015260640161089e565b9392505050565b6001600160e01b031981168114611a7057600080fd5b60006020828403121561261457600080fd5b81356125e5816125ec565b6000815180845260005b8181101561264557602081850181015186830182015201612629565b506000602082860101526020601f19601f83011685010191505092915050565b6020815260006125e5602083018461261f565b60006020828403121561268a57600080fd5b5035919050565b80356001600160a01b03811681146126a857600080fd5b919050565b600080604083850312156126c057600080fd5b6126c983612691565b946020939093013593505050565b8e81526001600160a01b038e1660208201526101c0604082015260006127016101c083018f61261f565b8281036060840152612713818f61261f565b90508c60808401528b60a08401528a60c08401528960e084015288610100840152828103610120840152612747818961261f565b915050856101408301526127676101608301866001600160a01b03169052565b8361018083015261277d6101a083018415159052565b9f9e505050505050505050505050505050565b634e487b7160e01b600052604160045260246000fd5b600067ffffffffffffffff808411156127c1576127c1612790565b604051601f8501601f19908116603f011681019082821181831017156127e9576127e9612790565b8160405280935085815286868601111561280257600080fd5b858560208301376000602087830101525050509392505050565b600082601f83011261282d57600080fd5b6125e5838335602085016127a6565b6000806040838503121561284f57600080fd5b82359150602083013567ffffffffffffffff81111561286d57600080fd5b6128798582860161281c565b9150509250929050565b60008060006060848603121561289857600080fd5b6128a184612691565b92506128af60208501612691565b9150604084013590509250925092565b87815260018060a01b03871660208201528560408201528460608201528360808201528260a082015260e060c082015260006128fe60e083018461261f565b9998505050505050505050565b60006020828403121561291d57600080fd5b6125e582612691565b6020808252825182820181905260009190848201906040850190845b8181101561295e57835183529284019291840191600101612942565b50909695505050505050565b6000806040838503121561297d57600080fd5b61298683612691565b91506020830135801515811461299b57600080fd5b809150509250929050565b600080600080608085870312156129bc57600080fd5b6129c585612691565b93506129d360208601612691565b925060408501359150606085013567ffffffffffffffff8111156129f657600080fd5b8501601f81018713612a0757600080fd5b612a16878235602084016127a6565b91505092959194509250565b6000806000806000806000806000806101408b8d031215612a4257600080fd5b8a3567ffffffffffffffff80821115612a5a57600080fd5b612a668e838f0161281c565b9b5060208d0135915080821115612a7c57600080fd5b612a888e838f0161281c565b9a5060408d0135995060608d0135985060808d0135975060a08d0135965060c08d0135955060e08d0135915080821115612ac157600080fd5b50612ace8d828e0161281c565b9350506101008b01359150612ae66101208c01612691565b90509295989b9194979a5092959850565b60008060408385031215612b0a57600080fd5b612b1383612691565b9150612b2160208401612691565b90509250929050565b600080600080848603610120811215612b4257600080fd5b60e0811215612b5057600080fd5b5084935060e085013567ffffffffffffffff80821115612b6f57600080fd5b818701915087601f830112612b8357600080fd5b813581811115612b9257600080fd5b886020828501011115612ba457600080fd5b60208301955080945050610100870135915080821115612bc357600080fd5b50612a168782880161281c565b60008060008060008060c08789031215612be957600080fd5b612bf287612691565b955060208701359450604087013567ffffffffffffffff80821115612c1657600080fd5b612c228a838b0161281c565b9550606089013594506080890135935060a0890135915080821115612c4657600080fd5b50612c5389828a0161281c565b9150509295509295509295565b600181811c90821680612c7457607f821691505b602082108103612c9457634e487b7160e01b600052602260045260246000fd5b50919050565b6020808252602d908201527f4552433732313a2063616c6c6572206973206e6f7420746f6b656e206f776e6560408201526c1c881bdc88185c1c1c9bdd9959609a1b606082015260800190565b634e487b7160e01b600052601160045260246000fd5b8181038181111561076b5761076b612ce7565b808202811582820484141761076b5761076b612ce7565b600082612d4457634e487b7160e01b600052601260045260246000fd5b500490565b601f82111561093f57600081815260208120601f850160051c81016020861015612d705750805b601f850160051c820191505b81811015612d8f57828155600101612d7c565b505050505050565b815167ffffffffffffffff811115612db157612db1612790565b612dc581612dbf8454612c60565b84612d49565b602080601f831160018114612dfa5760008415612de25750858301515b600019600386901b1c1916600185901b178555612d8f565b600085815260208120601f198616915b82811015612e2957888601518255948401946001909101908401612e0a565b5085821015612e475787850151600019600388901b60f8161c191681555b5050505050600190811b01905550565b8082018082111561076b5761076b612ce7565b600060018201612e7c57612e7c612ce7565b5060010190565b60208082526025908201527f4552433732313a207472616e736665722066726f6d20696e636f72726563742060408201526437bbb732b960d91b606082015260800190565b60208082526032908201527f4552433732313a207472616e7366657220746f206e6f6e20455243373231526560408201527131b2b4bb32b91034b6b83632b6b2b73a32b960711b606082015260800190565b6001600160a01b0385811682528416602082015260408101839052608060608201819052600090612f4d9083018461261f565b9695505050505050565b600060208284031215612f6957600080fd5b81516125e5816125ec565b634e487b7160e01b600052603260045260246000fd5b600081612f9957612f99612ce7565b50600019019056fea26469706673582212200ed13fc3d1d0aca32198a848b9352dbce8f57a6fd47c8bdec21845442ba4b9a164736f6c63430008130033",
  "linkReferences": {},
  "deployedLinkReferences": {}
}